{
    "contractName": "MarketV2",
    "abi": [
        {
            "inputs": [],
            "stateMutability": "nonpayable",
            "type": "constructor"
        },
        {
            "anonymous": false,
            "inputs": [
                {
                    "indexed": true,
                    "internalType": "address",
                    "name": "admin",
                    "type": "address"
                }
            ],
            "name": "AdminRemoved",
            "type": "event"
        },
        {
            "anonymous": false,
            "inputs": [
                {
                    "indexed": true,
                    "internalType": "address",
                    "name": "admin",
                    "type": "address"
                }
            ],
            "name": "NewAdmin",
            "type": "event"
        },
        {
            "anonymous": false,
            "inputs": [
                {
                    "indexed": true,
                    "internalType": "address",
                    "name": "previousOwner",
                    "type": "address"
                },
                {
                    "indexed": true,
                    "internalType": "address",
                    "name": "newOwner",
                    "type": "address"
                }
            ],
            "name": "OwnershipTransferred",
            "type": "event"
        },
        {
            "inputs": [
                {
                    "internalType": "address",
                    "name": "_tokenERC20",
                    "type": "address"
                }
            ],
            "name": "ChangePrincipalToken",
            "outputs": [
                {
                    "internalType": "bool",
                    "name": "",
                    "type": "bool"
                }
            ],
            "stateMutability": "nonpayable",
            "type": "function"
        },
        {
            "inputs": [
                {
                    "internalType": "address",
                    "name": "_tokenERC20",
                    "type": "address"
                }
            ],
            "name": "ChangeTokenOTRO",
            "outputs": [
                {
                    "internalType": "bool",
                    "name": "",
                    "type": "bool"
                }
            ],
            "stateMutability": "nonpayable",
            "type": "function"
        },
        {
            "inputs": [],
            "name": "MAX_CSC",
            "outputs": [
                {
                    "internalType": "uint256",
                    "name": "",
                    "type": "uint256"
                }
            ],
            "stateMutability": "view",
            "type": "function"
        },
        {
            "inputs": [],
            "name": "MIN_CSC",
            "outputs": [
                {
                    "internalType": "uint256",
                    "name": "",
                    "type": "uint256"
                }
            ],
            "stateMutability": "view",
            "type": "function"
        },
        {
            "inputs": [],
            "name": "TIME_CLAIM",
            "outputs": [
                {
                    "internalType": "uint256",
                    "name": "",
                    "type": "uint256"
                }
            ],
            "stateMutability": "view",
            "type": "function"
        },
        {
            "inputs": [
                {
                    "internalType": "address",
                    "name": "_user",
                    "type": "address"
                },
                {
                    "internalType": "uint256",
                    "name": "_id",
                    "type": "uint256"
                },
                {
                    "internalType": "string",
                    "name": "_nombre",
                    "type": "string"
                },
                {
                    "internalType": "uint256",
                    "name": "_value",
                    "type": "uint256"
                },
                {
                    "internalType": "bool",
                    "name": "_stakear",
                    "type": "bool"
                }
            ],
            "name": "actualizarItem",
            "outputs": [
                {
                    "internalType": "bool",
                    "name": "",
                    "type": "bool"
                }
            ],
            "stateMutability": "nonpayable",
            "type": "function"
        },
        {
            "inputs": [
                {
                    "internalType": "string",
                    "name": "_nombre",
                    "type": "string"
                },
                {
                    "internalType": "uint256",
                    "name": "_value",
                    "type": "uint256"
                },
                {
                    "internalType": "bool",
                    "name": "_stakear",
                    "type": "bool"
                }
            ],
            "name": "addItem",
            "outputs": [
                {
                    "internalType": "bool",
                    "name": "",
                    "type": "bool"
                }
            ],
            "stateMutability": "nonpayable",
            "type": "function"
        },
        {
            "inputs": [
                {
                    "internalType": "string",
                    "name": "_tipo",
                    "type": "string"
                },
                {
                    "internalType": "bool",
                    "name": "_ilimitado",
                    "type": "bool"
                },
                {
                    "internalType": "uint256",
                    "name": "_cantidad",
                    "type": "uint256"
                }
            ],
            "name": "addOption",
            "outputs": [
                {
                    "internalType": "bool",
                    "name": "",
                    "type": "bool"
                }
            ],
            "stateMutability": "nonpayable",
            "type": "function"
        },
        {
            "inputs": [
                {
                    "internalType": "address",
                    "name": "",
                    "type": "address"
                }
            ],
            "name": "admin",
            "outputs": [
                {
                    "internalType": "bool",
                    "name": "",
                    "type": "bool"
                }
            ],
            "stateMutability": "view",
            "type": "function"
        },
        {
            "inputs": [],
            "name": "adminWallet",
            "outputs": [
                {
                    "internalType": "address",
                    "name": "",
                    "type": "address"
                }
            ],
            "stateMutability": "view",
            "type": "function"
        },
        {
            "inputs": [
                {
                    "internalType": "uint256",
                    "name": "_value",
                    "type": "uint256"
                },
                {
                    "internalType": "address",
                    "name": "_user",
                    "type": "address"
                }
            ],
            "name": "asignarCoinsTo",
            "outputs": [
                {
                    "internalType": "bool",
                    "name": "",
                    "type": "bool"
                }
            ],
            "stateMutability": "nonpayable",
            "type": "function"
        },
        {
            "inputs": [],
            "name": "buyCoins",
            "outputs": [
                {
                    "internalType": "bool",
                    "name": "",
                    "type": "bool"
                }
            ],
            "stateMutability": "payable",
            "type": "function"
        },
        {
            "inputs": [
                {
                    "internalType": "uint256",
                    "name": "_id",
                    "type": "uint256"
                }
            ],
            "name": "buyItem",
            "outputs": [
                {
                    "internalType": "bool",
                    "name": "",
                    "type": "bool"
                }
            ],
            "stateMutability": "payable",
            "type": "function"
        },
        {
            "inputs": [
                {
                    "internalType": "uint256",
                    "name": "_id",
                    "type": "uint256"
                },
                {
                    "internalType": "string",
                    "name": "_nombre",
                    "type": "string"
                },
                {
                    "internalType": "uint256",
                    "name": "_value",
                    "type": "uint256"
                },
                {
                    "internalType": "bool",
                    "name": "_stakear",
                    "type": "bool"
                }
            ],
            "name": "editItem",
            "outputs": [
                {
                    "internalType": "bool",
                    "name": "",
                    "type": "bool"
                }
            ],
            "stateMutability": "nonpayable",
            "type": "function"
        },
        {
            "inputs": [
                {
                    "internalType": "uint256",
                    "name": "_id",
                    "type": "uint256"
                },
                {
                    "internalType": "string",
                    "name": "_tipo",
                    "type": "string"
                },
                {
                    "internalType": "bool",
                    "name": "_ilimitado",
                    "type": "bool"
                },
                {
                    "internalType": "uint256",
                    "name": "_cantidad",
                    "type": "uint256"
                }
            ],
            "name": "editOption",
            "outputs": [
                {
                    "internalType": "bool",
                    "name": "",
                    "type": "bool"
                }
            ],
            "stateMutability": "nonpayable",
            "type": "function"
        },
        {
            "inputs": [
                {
                    "internalType": "uint256",
                    "name": "_value",
                    "type": "uint256"
                },
                {
                    "internalType": "address",
                    "name": "_user",
                    "type": "address"
                }
            ],
            "name": "gastarCoinsfrom",
            "outputs": [
                {
                    "internalType": "bool",
                    "name": "",
                    "type": "bool"
                }
            ],
            "stateMutability": "nonpayable",
            "type": "function"
        },
        {
            "inputs": [
                {
                    "internalType": "uint256",
                    "name": "",
                    "type": "uint256"
                }
            ],
            "name": "idNfts",
            "outputs": [
                {
                    "internalType": "address",
                    "name": "",
                    "type": "address"
                }
            ],
            "stateMutability": "view",
            "type": "function"
        },
        {
            "inputs": [
                {
                    "internalType": "address",
                    "name": "",
                    "type": "address"
                },
                {
                    "internalType": "uint256",
                    "name": "",
                    "type": "uint256"
                }
            ],
            "name": "inventario",
            "outputs": [
                {
                    "internalType": "string",
                    "name": "nombre",
                    "type": "string"
                },
                {
                    "internalType": "uint256",
                    "name": "valor",
                    "type": "uint256"
                },
                {
                    "internalType": "bool",
                    "name": "stakear",
                    "type": "bool"
                }
            ],
            "stateMutability": "view",
            "type": "function"
        },
        {
            "inputs": [
                {
                    "internalType": "address",
                    "name": "",
                    "type": "address"
                }
            ],
            "name": "investors",
            "outputs": [
                {
                    "internalType": "bool",
                    "name": "baneado",
                    "type": "bool"
                },
                {
                    "internalType": "uint256",
                    "name": "balance",
                    "type": "uint256"
                },
                {
                    "internalType": "uint256",
                    "name": "payAt",
                    "type": "uint256"
                }
            ],
            "stateMutability": "view",
            "type": "function"
        },
        {
            "inputs": [
                {
                    "internalType": "uint256",
                    "name": "",
                    "type": "uint256"
                }
            ],
            "name": "items",
            "outputs": [
                {
                    "internalType": "string",
                    "name": "nombre",
                    "type": "string"
                },
                {
                    "internalType": "uint256",
                    "name": "valor",
                    "type": "uint256"
                },
                {
                    "internalType": "bool",
                    "name": "stakear",
                    "type": "bool"
                }
            ],
            "stateMutability": "view",
            "type": "function"
        },
        {
            "inputs": [
                {
                    "internalType": "address",
                    "name": "_user",
                    "type": "address"
                }
            ],
            "name": "largoInventario",
            "outputs": [
                {
                    "internalType": "uint256",
                    "name": "",
                    "type": "uint256"
                }
            ],
            "stateMutability": "view",
            "type": "function"
        },
        {
            "inputs": [],
            "name": "largoItems",
            "outputs": [
                {
                    "internalType": "uint256",
                    "name": "",
                    "type": "uint256"
                }
            ],
            "stateMutability": "view",
            "type": "function"
        },
        {
            "inputs": [],
            "name": "largoOptions",
            "outputs": [
                {
                    "internalType": "uint256",
                    "name": "",
                    "type": "uint256"
                }
            ],
            "stateMutability": "view",
            "type": "function"
        },
        {
            "inputs": [
                {
                    "internalType": "address payable",
                    "name": "_newadmin",
                    "type": "address"
                }
            ],
            "name": "makeNewAdmin",
            "outputs": [],
            "stateMutability": "nonpayable",
            "type": "function"
        },
        {
            "inputs": [
                {
                    "internalType": "address payable",
                    "name": "_oldadmin",
                    "type": "address"
                }
            ],
            "name": "makeRemoveAdmin",
            "outputs": [],
            "stateMutability": "nonpayable",
            "type": "function"
        },
        {
            "inputs": [
                {
                    "internalType": "uint256",
                    "name": "",
                    "type": "uint256"
                }
            ],
            "name": "nfts",
            "outputs": [
                {
                    "internalType": "address",
                    "name": "",
                    "type": "address"
                }
            ],
            "stateMutability": "view",
            "type": "function"
        },
        {
            "inputs": [
                {
                    "internalType": "uint256",
                    "name": "",
                    "type": "uint256"
                }
            ],
            "name": "opciones",
            "outputs": [
                {
                    "internalType": "string",
                    "name": "tipo",
                    "type": "string"
                },
                {
                    "internalType": "bool",
                    "name": "ilimitados",
                    "type": "bool"
                },
                {
                    "internalType": "uint256",
                    "name": "cantidad",
                    "type": "uint256"
                }
            ],
            "stateMutability": "view",
            "type": "function"
        },
        {
            "inputs": [],
            "name": "owner",
            "outputs": [
                {
                    "internalType": "address payable",
                    "name": "",
                    "type": "address"
                }
            ],
            "stateMutability": "view",
            "type": "function"
        },
        {
            "inputs": [],
            "name": "redimETH",
            "outputs": [
                {
                    "internalType": "bool",
                    "name": "",
                    "type": "bool"
                }
            ],
            "stateMutability": "nonpayable",
            "type": "function"
        },
        {
            "inputs": [],
            "name": "redimOTRO",
            "outputs": [
                {
                    "internalType": "uint256",
                    "name": "",
                    "type": "uint256"
                }
            ],
            "stateMutability": "nonpayable",
            "type": "function"
        },
        {
            "inputs": [
                {
                    "internalType": "uint256",
                    "name": "_value",
                    "type": "uint256"
                }
            ],
            "name": "sellCoins",
            "outputs": [
                {
                    "internalType": "bool",
                    "name": "",
                    "type": "bool"
                }
            ],
            "stateMutability": "nonpayable",
            "type": "function"
        },
        {
            "inputs": [],
            "name": "token",
            "outputs": [
                {
                    "internalType": "address",
                    "name": "",
                    "type": "address"
                }
            ],
            "stateMutability": "view",
            "type": "function"
        },
        {
            "inputs": [
                {
                    "internalType": "address payable",
                    "name": "newOwner",
                    "type": "address"
                }
            ],
            "name": "transferOwnership",
            "outputs": [],
            "stateMutability": "nonpayable",
            "type": "function"
        },
        {
            "inputs": [
                {
                    "internalType": "address",
                    "name": "_user",
                    "type": "address"
                },
                {
                    "internalType": "bool",
                    "name": "_ban",
                    "type": "bool"
                }
            ],
            "name": "userBan",
            "outputs": [
                {
                    "internalType": "bool",
                    "name": "isBaned",
                    "type": "bool"
                }
            ],
            "stateMutability": "nonpayable",
            "type": "function"
        },
        {
            "inputs": [],
            "name": "ventaPublica",
            "outputs": [
                {
                    "internalType": "uint256",
                    "name": "",
                    "type": "uint256"
                }
            ],
            "stateMutability": "view",
            "type": "function"
        },
        {
            "inputs": [
                {
                    "internalType": "address",
                    "name": "_user",
                    "type": "address"
                }
            ],
            "name": "verInventario",
            "outputs": [
                {
                    "components": [
                        {
                            "internalType": "string",
                            "name": "nombre",
                            "type": "string"
                        },
                        {
                            "internalType": "uint256",
                            "name": "valor",
                            "type": "uint256"
                        },
                        {
                            "internalType": "bool",
                            "name": "stakear",
                            "type": "bool"
                        }
                    ],
                    "internalType": "struct MarketV2.Item[]",
                    "name": "invent",
                    "type": "tuple[]"
                }
            ],
            "stateMutability": "view",
            "type": "function"
        }
    ],
    "bytecode": "6080604052600280546001600160a01b031990811673f0fb4a5acf1b1126a991ee189408b112028d7a63908117909255600380548216724769ef6aec57efbf56c24d0a04fe619fbb614317905563617972f7600455681b1ae4d6e2ef50000060055569021e19e0c9bab240000060065562093a8060075560088054909116909117905534801561008e57600080fd5b50600080546001600160a01b03191633908117825581526001602081905260408220805460ff19169091179055611e5c9081906100cb90396000f3fe60806040526004361061020e5760003560e01c80638792fa4711610118578063bfb231d2116100a0578063d60fd9b91161006f578063d60fd9b914610679578063dd62e6b31461068f578063e7fb74c7146106a4578063f2fde38b146106b7578063fc0c546a146106d757600080fd5b8063bfb231d214610603578063c991c47414610623578063cc36005814610643578063d47edbaa1461066357600080fd5b806396ba5363116100e757806396ba5363146105495780639a777d5d14610569578063a750a02614610571578063aaa272a6146105a7578063ab97fd60146105d457600080fd5b80638792fa47146104e85780638929cbc5146104fe5780638da5cb5b1461051357806391eb34e01461053357600080fd5b806351a4cd731161019b5780636aae4a0e1161016a5780636aae4a0e1461040b5780636f7bc9be1461042b57806370a0966b14610488578063761cd621146104a857806382655d06146104c857600080fd5b806351a4cd7314610379578063571c94d71461039957806363a846f8146103b957806369ed1e0a146103e957600080fd5b8063238393e4116101e2578063238393e4146102b7578063265aa621146102d65780632e9928d314610324578063303f37901461033957806336b19cd71461035957600080fd5b8062cffbcd14610213578063035092d91461024857806309650b8e1461026857806317262d8a14610288575b600080fd5b34801561021f57600080fd5b5061023361022e366004611947565b6106f7565b60405190151581526020015b60405180910390f35b34801561025457600080fd5b506102336102633660046119b6565b6107b1565b34801561027457600080fd5b506102336102833660046119e6565b610877565b34801561029457600080fd5b506102a86102a3366004611a47565b610922565b60405161023f93929190611aad565b3480156102c357600080fd5b50600d545b60405190815260200161023f565b3480156102e257600080fd5b5061030c6102f1366004611a47565b600b602052600090815260409020546001600160a01b031681565b6040516001600160a01b03909116815260200161023f565b34801561033057600080fd5b506102336109e8565b34801561034557600080fd5b50610233610354366004611ad2565b610a43565b34801561036557600080fd5b5060035461030c906001600160a01b031681565b34801561038557600080fd5b50610233610394366004611a47565b610a89565b3480156103a557600080fd5b506102336103b43660046119b6565b610bb8565b3480156103c557600080fd5b506102336103d4366004611b00565b60016020526000908152604090205460ff1681565b3480156103f557600080fd5b50610409610404366004611b00565b610c70565b005b34801561041757600080fd5b50610233610426366004611b24565b610cfe565b34801561043757600080fd5b5061046b610446366004611b00565b60096020526000908152604090208054600182015460029092015460ff909116919083565b60408051931515845260208401929092529082015260600161023f565b34801561049457600080fd5b506104096104a3366004611b00565b610dab565b3480156104b457600080fd5b506102336104c3366004611b87565b610e33565b3480156104d457600080fd5b506102336104e3366004611bff565b610f05565b3480156104f457600080fd5b506102c860045481565b34801561050a57600080fd5b506102c8610fc1565b34801561051f57600080fd5b5060005461030c906001600160a01b031681565b34801561053f57600080fd5b506102c860055481565b34801561055557600080fd5b50610233610564366004611b00565b611147565b61023361118d565b34801561057d57600080fd5b5061030c61058c366004611a47565b600c602052600090815260409020546001600160a01b031681565b3480156105b357600080fd5b506105c76105c2366004611b00565b6111f8565b60405161023f9190611c5a565b3480156105e057600080fd5b506105f46105ef366004611cdd565b61131e565b60405161023f93929190611d09565b34801561060f57600080fd5b506105f461061e366004611a47565b6113f1565b34801561062f57600080fd5b506102c861063e366004611b00565b611424565b34801561064f57600080fd5b5061023361065e366004611b00565b611547565b34801561066f57600080fd5b506102c860065481565b34801561068557600080fd5b506102c860075481565b34801561069b57600080fd5b50600e546102c8565b6102336106b2366004611a47565b61159b565b3480156106c357600080fd5b506104096106d2366004611b00565b61176c565b3480156106e357600080fd5b5060025461030c906001600160a01b031681565b600080546001600160a01b0316336001600160a01b03161461071857600080fd5b60408051606081018252858152841515602080830191909152918101849052600e805460018101825560009190915281518051929360039092027fbb7b4a454dc3493923482f07822329ed19e8244eff582cc204f8554c3620c3fd019261078292849201906117fa565b5060208201516001828101805460ff191692151592909217909155604090920151600290910155949350505050565b3360009081526001602052604081205460ff166107cd57600080fd5b6001600160a01b0382166000908152600960205260409020805460ff16806107f85750806001015484115b156108545760405162461bcd60e51b815260206004820152602160248201527f6572726f723a20676173746172206d6173206465206c6f20717565207469656e6044820152606560f81b60648201526084015b60405180910390fd5b838160010160008282546108689190611d49565b90915550600195945050505050565b600080546001600160a01b0316336001600160a01b03161461089857600080fd5b6040518060600160405280858152602001841515815260200183815250600e86815481106108c8576108c8611d60565b906000526020600020906003020160008201518160000190805190602001906108f29291906117fa565b5060208201516001828101805460ff19169215159290921790915560409092015160029091015595945050505050565b600e818154811061093257600080fd5b906000526020600020906003020160009150905080600001805461095590611d76565b80601f016020809104026020016040519081016040528092919081815260200182805461098190611d76565b80156109ce5780601f106109a3576101008083540402835291602001916109ce565b820191906000526020600020905b8154815290600101906020018083116109b157829003601f168201915b505050506001830154600290930154919260ff1691905083565b600080546001600160a01b0316336001600160a01b031614610a0957600080fd5b60004711610a1657600080fd5b600080546040516001600160a01b03909116914780156108fc02929091818181858888f194505050505090565b3360009081526001602052604081205460ff16610a5f57600080fd5b506001600160a01b03919091166000908152600960205260409020805460ff191682151517905590565b336000908152600960205260408120805460ff1615610aba5760405162461bcd60e51b815260040161084b90611db1565b8060010154831115610acb57600080fd5b82471015610b1b5760405162461bcd60e51b815260206004820152601e60248201527f6e6f206861792062616c616e63652070617261207472616e7366657269720000604482015260640161084b565b604051339084156108fc029085906000818181858888f1935050505015610b7d5760405162461bcd60e51b815260206004820152601660248201527566616c6c6f206c61207472616e73666572656e63696160501b604482015260640161084b565b82816001016000828254610b919190611d49565b925050819055508260106000828254610baa9190611dd8565b909155506001949350505050565b3360009081526001602052604081205460ff16610bd457600080fd5b6001600160a01b0382166000908152600960205260409020805460ff1680610c04575068056bc75e2d6310000084115b15610c5c57805460ff1916600117815560405162461bcd60e51b815260206004820152601d60248201527f76616c6f72206d7579206772616e6465206e6f207065726d697469646f000000604482015260640161084b565b838160010160008282546108689190611dd8565b6000546001600160a01b0316336001600160a01b031614610c9057600080fd5b6001600160a01b038116610ca357600080fd5b6040516001600160a01b038216907f71614071b88dee5e0b2ae578a9dd7b2ebbe9ae832ba419dc0242cd065a290b6c90600090a26001600160a01b03166000908152600160208190526040909120805460ff19169091179055565b600080546001600160a01b0316336001600160a01b031614610d1f57600080fd5b6040518060600160405280858152602001848152602001831515815250600d8681548110610d4f57610d4f611d60565b90600052602060002090600302016000820151816000019080519060200190610d799291906117fa565b5060208201516001828101919091556040909201516002909101805460ff191691151591909117905595945050505050565b6000546001600160a01b0316336001600160a01b031614610dcb57600080fd5b6001600160a01b038116610dde57600080fd5b6040516001600160a01b038216907fa3b62bc36326052d97ea62d63c3d60308ed4c3ea8ac079dd8499f1e9c4f80c0f90600090a26001600160a01b03166000908152600160205260409020805460ff19169055565b3360009081526001602052604081205460ff16610e4f57600080fd5b6000600a6000886001600160a01b03166001600160a01b0316815260200190815260200160002090506040518060600160405280868152602001858152602001841515815250818781548110610ea757610ea7611d60565b90600052602060002090600302016000820151816000019080519060200190610ed19291906117fa565b5060208201516001828101919091556040909201516002909101805460ff1916911515919091179055979650505050505050565b600080546001600160a01b0316336001600160a01b031614610f2657600080fd5b60408051606081018252858152602080820186905284151592820192909252600d805460018101825560009190915281518051929360039092027fd7b6990105719101dabeb77144f2a3385c8033acd3af97e9423a695e81ad1eb50192610f9092849201906117fa565b5060208201516001828101919091556040909201516002909101805460ff1916911515919091179055949350505050565b600080546001600160a01b0316336001600160a01b031614610fe257600080fd5b6008546040516370a0823160e01b81523060048201526000916001600160a01b0316906370a0823190602401602060405180830381865afa15801561102b573d6000803e3d6000fd5b505050506040513d601f19601f8201168201806040525081019061104f9190611df0565b1161105957600080fd5b6008546040516370a0823160e01b81523060048201526000916001600160a01b0316906370a0823190602401602060405180830381865afa1580156110a2573d6000803e3d6000fd5b505050506040513d601f19601f820116820180604052508101906110c69190611df0565b60085460005460405163a9059cbb60e01b81526001600160a01b03918216600482015260248101849052929350169063a9059cbb906044016020604051808303816000875af115801561111d573d6000803e3d6000fd5b505050506040513d601f19601f820116820180604052508101906111419190611e09565b50905090565b600080546001600160a01b0316336001600160a01b03161461116857600080fd5b50600880546001600160a01b0383166001600160a01b03199091161790556001919050565b336000908152600960205260408120805460ff16156111be5760405162461bcd60e51b815260040161084b90611db1565b348160010160008282546111d29190611dd8565b9250508190555034600f60008282546111eb9190611dd8565b9091555060019392505050565b6001600160a01b0381166000908152600a60209081526040808320805482518185028101850190935280835260609492939192909184015b82821015611313578382906000526020600020906003020160405180606001604052908160008201805461126390611d76565b80601f016020809104026020016040519081016040528092919081815260200182805461128f90611d76565b80156112dc5780601f106112b1576101008083540402835291602001916112dc565b820191906000526020600020905b8154815290600101906020018083116112bf57829003601f168201915b505050918352505060018281015460208084019190915260029093015460ff16151560409092019190915291835292019101611230565b505050509050919050565b600a602052816000526040600020818154811061133a57600080fd5b90600052602060002090600302016000915091505080600001805461135e90611d76565b80601f016020809104026020016040519081016040528092919081815260200182805461138a90611d76565b80156113d75780601f106113ac576101008083540402835291602001916113d7565b820191906000526020600020905b8154815290600101906020018083116113ba57829003601f168201915b50505050600183015460029093015491929160ff16905083565b600d818154811061140157600080fd5b906000526020600020906003020160009150905080600001805461135e90611d76565b6001600160a01b0381166000908152600a6020908152604080832080548251818502810185019093528083528493849084015b8282101561153a578382906000526020600020906003020160405180606001604052908160008201805461148a90611d76565b80601f01602080910402602001604051908101604052809291908181526020018280546114b690611d76565b80156115035780601f106114d857610100808354040283529160200191611503565b820191906000526020600020905b8154815290600101906020018083116114e657829003601f168201915b505050918352505060018281015460208084019190915260029093015460ff16151560409092019190915291835292019101611457565b5050915195945050505050565b600080546001600160a01b0316336001600160a01b03161461156857600080fd5b50600880546001600160a01b0383166001600160a01b031991821681179092556002805490911690911790556001919050565b600080600d83815481106115b1576115b1611d60565b90600052602060002090600302016040518060600160405290816000820180546115da90611d76565b80601f016020809104026020016040519081016040528092919081815260200182805461160690611d76565b80156116535780601f1061162857610100808354040283529160200191611653565b820191906000526020600020905b81548152906001019060200180831161163657829003601f168201915b5050509183525050600182015460208083019190915260029092015460ff16151560409091015281015190915034101561168c57600080fd5b60045442101561169b57600080fd5b336000908152600960209081526040918290208251606081018452815460ff161580158252600183015493820193909352600290910154928101929092526116f55760405162461bcd60e51b815260040161084b90611db1565b336000908152600a60209081526040822080546001810182559083529181902084518051869460030290920192611731928492909101906117fa565b5060208281015160018301556040909201516002909101805460ff1916911515919091179055820151600f8054600090610868908490611dd8565b6000546001600160a01b0316336001600160a01b03161461178c57600080fd5b6001600160a01b03811661179f57600080fd5b600080546040516001600160a01b03808516939216917f8be0079c531659141344cd1fd0a4f28419497f9722a3daafe3b4186f6b6457e091a3600080546001600160a01b0319166001600160a01b0392909216919091179055565b82805461180690611d76565b90600052602060002090601f016020900481019282611828576000855561186e565b82601f1061184157805160ff191683800117855561186e565b8280016001018555821561186e579182015b8281111561186e578251825591602001919060010190611853565b5061187a92915061187e565b5090565b5b8082111561187a576000815560010161187f565b634e487b7160e01b600052604160045260246000fd5b600082601f8301126118ba57600080fd5b813567ffffffffffffffff808211156118d5576118d5611893565b604051601f8301601f19908116603f011681019082821181831017156118fd576118fd611893565b8160405283815286602085880101111561191657600080fd5b836020870160208301376000602085830101528094505050505092915050565b801515811461194457600080fd5b50565b60008060006060848603121561195c57600080fd5b833567ffffffffffffffff81111561197357600080fd5b61197f868287016118a9565b935050602084013561199081611936565b929592945050506040919091013590565b6001600160a01b038116811461194457600080fd5b600080604083850312156119c957600080fd5b8235915060208301356119db816119a1565b809150509250929050565b600080600080608085870312156119fc57600080fd5b84359350602085013567ffffffffffffffff811115611a1a57600080fd5b611a26878288016118a9565b9350506040850135611a3781611936565b9396929550929360600135925050565b600060208284031215611a5957600080fd5b5035919050565b6000815180845260005b81811015611a8657602081850181015186830182015201611a6a565b81811115611a98576000602083870101525b50601f01601f19169290920160200192915050565b606081526000611ac06060830186611a60565b93151560208301525060400152919050565b60008060408385031215611ae557600080fd5b8235611af0816119a1565b915060208301356119db81611936565b600060208284031215611b1257600080fd5b8135611b1d816119a1565b9392505050565b60008060008060808587031215611b3a57600080fd5b84359350602085013567ffffffffffffffff811115611b5857600080fd5b611b64878288016118a9565b935050604085013591506060850135611b7c81611936565b939692955090935050565b600080600080600060a08688031215611b9f57600080fd5b8535611baa816119a1565b945060208601359350604086013567ffffffffffffffff811115611bcd57600080fd5b611bd9888289016118a9565b935050606086013591506080860135611bf181611936565b809150509295509295909350565b600080600060608486031215611c1457600080fd5b833567ffffffffffffffff811115611c2b57600080fd5b611c37868287016118a9565b935050602084013591506040840135611c4f81611936565b809150509250925092565b60006020808301818452808551808352604092508286019150828160051b87010184880160005b83811015611ccf57603f19898403018552815160608151818652611ca782870182611a60565b838b0151878c0152928901511515958901959095525094870194925090860190600101611c81565b509098975050505050505050565b60008060408385031215611cf057600080fd5b8235611cfb816119a1565b946020939093013593505050565b606081526000611d1c6060830186611a60565b602083019490945250901515604090910152919050565b634e487b7160e01b600052601160045260246000fd5b600082821015611d5b57611d5b611d33565b500390565b634e487b7160e01b600052603260045260246000fd5b600181811c90821680611d8a57607f821691505b60208210811415611dab57634e487b7160e01b600052602260045260246000fd5b50919050565b6020808252600d908201526c65737461732062616e6561646f60981b604082015260600190565b60008219821115611deb57611deb611d33565b500190565b600060208284031215611e0257600080fd5b5051919050565b600060208284031215611e1b57600080fd5b8151611b1d8161193656fea2646970667358221220dcad4fd7ccfff0cf5a612bc0fb914b5a1553e9b768def754102b800200955b6c64736f6c634300080a0033",
    "sourcePath": "c:/Users/STC/Documents/GitHub/Solitare-Crypto/contracts/Market 2.0/Market-2.0.sol",
    "compiler": {
        "name": "solc",
        "version": "0.8.10+commit.fc410830"
    },
    "functionHashes": {
        "ChangePrincipalToken(address)": "cc360058",
        "ChangeTokenOTRO(address)": "96ba5363",
        "MAX_CSC()": "d47edbaa",
        "MIN_CSC()": "91eb34e0",
        "TIME_CLAIM()": "d60fd9b9",
        "actualizarItem(address,uint256,string,uint256,bool)": "761cd621",
        "addItem(string,uint256,bool)": "82655d06",
        "addOption(string,bool,uint256)": "00cffbcd",
        "admin(address)": "63a846f8",
        "adminWallet()": "36b19cd7",
        "asignarCoinsTo(uint256,address)": "571c94d7",
        "buyCoins()": "9a777d5d",
        "buyItem(uint256)": "e7fb74c7",
        "editItem(uint256,string,uint256,bool)": "6aae4a0e",
        "editOption(uint256,string,bool,uint256)": "09650b8e",
        "gastarCoinsfrom(uint256,address)": "035092d9",
        "idNfts(uint256)": "a750a026",
        "inventario(address,uint256)": "ab97fd60",
        "investors(address)": "6f7bc9be",
        "items(uint256)": "bfb231d2",
        "largoInventario(address)": "c991c474",
        "largoItems()": "238393e4",
        "largoOptions()": "dd62e6b3",
        "makeNewAdmin(address)": "69ed1e0a",
        "makeRemoveAdmin(address)": "70a0966b",
        "nfts(uint256)": "265aa621",
        "opciones(uint256)": "17262d8a",
        "owner()": "8da5cb5b",
        "redimETH()": "2e9928d3",
        "redimOTRO()": "8929cbc5",
        "sellCoins(uint256)": "51a4cd73",
        "token()": "fc0c546a",
        "transferOwnership(address)": "f2fde38b",
        "userBan(address,bool)": "303f3790",
        "ventaPublica()": "8792fa47",
        "verInventario(address)": "aaa272a6"
    },
    "gasEstimates": {
        "creation": {
            "codeDepositCost": "1554400",
            "executionCost": "211287",
            "totalCost": "1765687"
        },
        "external": {
            "ChangePrincipalToken(address)": "51104",
            "ChangeTokenOTRO(address)": "26827",
            "MAX_CSC()": "2406",
            "MIN_CSC()": "2407",
            "TIME_CLAIM()": "2339",
            "actualizarItem(address,uint256,string,uint256,bool)": "infinite",
            "addItem(string,uint256,bool)": "infinite",
            "addOption(string,bool,uint256)": "infinite",
            "admin(address)": "2604",
            "adminWallet()": "2471",
            "asignarCoinsTo(uint256,address)": "29200",
            "buyCoins()": "infinite",
            "buyItem(uint256)": "infinite",
            "editItem(uint256,string,uint256,bool)": "infinite",
            "editOption(uint256,string,bool,uint256)": "infinite",
            "gastarCoinsfrom(uint256,address)": "31304",
            "idNfts(uint256)": "2566",
            "inventario(address,uint256)": "infinite",
            "investors(address)": "6870",
            "items(uint256)": "infinite",
            "largoInventario(address)": "infinite",
            "largoItems()": "2327",
            "largoOptions()": "2358",
            "makeNewAdmin(address)": "28088",
            "makeRemoveAdmin(address)": "28047",
            "nfts(uint256)": "2545",
            "opciones(uint256)": "infinite",
            "owner()": "2427",
            "redimETH()": "infinite",
            "redimOTRO()": "infinite",
            "sellCoins(uint256)": "infinite",
            "token()": "2469",
            "transferOwnership(address)": "30522",
            "userBan(address,bool)": "infinite",
            "ventaPublica()": "2341",
            "verInventario(address)": "infinite"
        }
    }
}