{
    "contractName": "MarketV2",
    "abi": [
        {
            "inputs": [],
            "stateMutability": "nonpayable",
            "type": "constructor"
        },
        {
            "anonymous": false,
            "inputs": [
                {
                    "indexed": true,
                    "internalType": "address",
                    "name": "admin",
                    "type": "address"
                }
            ],
            "name": "AdminRemoved",
            "type": "event"
        },
        {
            "anonymous": false,
            "inputs": [
                {
                    "indexed": true,
                    "internalType": "address",
                    "name": "admin",
                    "type": "address"
                }
            ],
            "name": "NewAdmin",
            "type": "event"
        },
        {
            "anonymous": false,
            "inputs": [
                {
                    "indexed": true,
                    "internalType": "address",
                    "name": "previousOwner",
                    "type": "address"
                },
                {
                    "indexed": true,
                    "internalType": "address",
                    "name": "newOwner",
                    "type": "address"
                }
            ],
            "name": "OwnershipTransferred",
            "type": "event"
        },
        {
            "inputs": [
                {
                    "internalType": "address",
                    "name": "_tokenERC20",
                    "type": "address"
                }
            ],
            "name": "ChangeTokenOTRO",
            "outputs": [
                {
                    "internalType": "bool",
                    "name": "",
                    "type": "bool"
                }
            ],
            "stateMutability": "nonpayable",
            "type": "function"
        },
        {
            "inputs": [],
            "name": "MAX_BNB",
            "outputs": [
                {
                    "internalType": "uint256",
                    "name": "",
                    "type": "uint256"
                }
            ],
            "stateMutability": "view",
            "type": "function"
        },
        {
            "inputs": [
                {
                    "internalType": "address",
                    "name": "_user",
                    "type": "address"
                },
                {
                    "internalType": "uint256",
                    "name": "_carta",
                    "type": "uint256"
                }
            ],
            "name": "NoStakingCard",
            "outputs": [
                {
                    "internalType": "bool",
                    "name": "",
                    "type": "bool"
                }
            ],
            "stateMutability": "nonpayable",
            "type": "function"
        },
        {
            "inputs": [],
            "name": "TIME_CLAIM",
            "outputs": [
                {
                    "internalType": "uint256",
                    "name": "",
                    "type": "uint256"
                }
            ],
            "stateMutability": "view",
            "type": "function"
        },
        {
            "inputs": [
                {
                    "internalType": "address payable",
                    "name": "_adminWallet",
                    "type": "address"
                }
            ],
            "name": "UpdateAdminWallet",
            "outputs": [
                {
                    "internalType": "bool",
                    "name": "",
                    "type": "bool"
                }
            ],
            "stateMutability": "nonpayable",
            "type": "function"
        },
        {
            "inputs": [
                {
                    "internalType": "address payable",
                    "name": "_stakingContract",
                    "type": "address"
                }
            ],
            "name": "UpdateStakingContract",
            "outputs": [
                {
                    "internalType": "bool",
                    "name": "",
                    "type": "bool"
                }
            ],
            "stateMutability": "nonpayable",
            "type": "function"
        },
        {
            "inputs": [
                {
                    "internalType": "address",
                    "name": "_user",
                    "type": "address"
                },
                {
                    "internalType": "uint256",
                    "name": "_id",
                    "type": "uint256"
                },
                {
                    "internalType": "string",
                    "name": "_nombre",
                    "type": "string"
                },
                {
                    "internalType": "uint256",
                    "name": "_value",
                    "type": "uint256"
                },
                {
                    "internalType": "bool",
                    "name": "_stakear",
                    "type": "bool"
                }
            ],
            "name": "actualizarItem",
            "outputs": [
                {
                    "internalType": "bool",
                    "name": "",
                    "type": "bool"
                }
            ],
            "stateMutability": "nonpayable",
            "type": "function"
        },
        {
            "inputs": [
                {
                    "internalType": "string",
                    "name": "_nombre",
                    "type": "string"
                },
                {
                    "internalType": "uint256",
                    "name": "_value",
                    "type": "uint256"
                },
                {
                    "internalType": "bool",
                    "name": "_stakear",
                    "type": "bool"
                }
            ],
            "name": "addItem",
            "outputs": [
                {
                    "internalType": "bool",
                    "name": "",
                    "type": "bool"
                }
            ],
            "stateMutability": "nonpayable",
            "type": "function"
        },
        {
            "inputs": [
                {
                    "internalType": "address",
                    "name": "",
                    "type": "address"
                }
            ],
            "name": "admin",
            "outputs": [
                {
                    "internalType": "bool",
                    "name": "",
                    "type": "bool"
                }
            ],
            "stateMutability": "view",
            "type": "function"
        },
        {
            "inputs": [],
            "name": "adminWallet",
            "outputs": [
                {
                    "internalType": "address payable",
                    "name": "",
                    "type": "address"
                }
            ],
            "stateMutability": "view",
            "type": "function"
        },
        {
            "inputs": [
                {
                    "internalType": "uint256",
                    "name": "_value",
                    "type": "uint256"
                },
                {
                    "internalType": "address",
                    "name": "_user",
                    "type": "address"
                }
            ],
            "name": "asignarCoinsTo",
            "outputs": [
                {
                    "internalType": "bool",
                    "name": "",
                    "type": "bool"
                }
            ],
            "stateMutability": "nonpayable",
            "type": "function"
        },
        {
            "inputs": [],
            "name": "buyCoins",
            "outputs": [
                {
                    "internalType": "bool",
                    "name": "",
                    "type": "bool"
                }
            ],
            "stateMutability": "payable",
            "type": "function"
        },
        {
            "inputs": [
                {
                    "internalType": "uint256",
                    "name": "_id",
                    "type": "uint256"
                },
                {
                    "internalType": "address",
                    "name": "_upline",
                    "type": "address"
                }
            ],
            "name": "buyItem",
            "outputs": [
                {
                    "internalType": "bool",
                    "name": "",
                    "type": "bool"
                }
            ],
            "stateMutability": "payable",
            "type": "function"
        },
        {
            "inputs": [
                {
                    "internalType": "address",
                    "name": "_user",
                    "type": "address"
                },
                {
                    "internalType": "uint256",
                    "name": "_carta",
                    "type": "uint256"
                }
            ],
            "name": "consultarCarta",
            "outputs": [
                {
                    "internalType": "uint256",
                    "name": "",
                    "type": "uint256"
                }
            ],
            "stateMutability": "view",
            "type": "function"
        },
        {
            "inputs": [
                {
                    "internalType": "uint256",
                    "name": "_id",
                    "type": "uint256"
                },
                {
                    "internalType": "string",
                    "name": "_nombre",
                    "type": "string"
                },
                {
                    "internalType": "uint256",
                    "name": "_value",
                    "type": "uint256"
                },
                {
                    "internalType": "bool",
                    "name": "_stakear",
                    "type": "bool"
                }
            ],
            "name": "editItem",
            "outputs": [
                {
                    "internalType": "bool",
                    "name": "",
                    "type": "bool"
                }
            ],
            "stateMutability": "nonpayable",
            "type": "function"
        },
        {
            "inputs": [
                {
                    "internalType": "uint256",
                    "name": "_value",
                    "type": "uint256"
                },
                {
                    "internalType": "address",
                    "name": "_user",
                    "type": "address"
                }
            ],
            "name": "gastarCoinsfrom",
            "outputs": [
                {
                    "internalType": "bool",
                    "name": "",
                    "type": "bool"
                }
            ],
            "stateMutability": "nonpayable",
            "type": "function"
        },
        {
            "inputs": [
                {
                    "internalType": "address",
                    "name": "",
                    "type": "address"
                },
                {
                    "internalType": "uint256",
                    "name": "",
                    "type": "uint256"
                }
            ],
            "name": "inventario",
            "outputs": [
                {
                    "internalType": "string",
                    "name": "nombre",
                    "type": "string"
                },
                {
                    "internalType": "uint256",
                    "name": "valor",
                    "type": "uint256"
                },
                {
                    "internalType": "bool",
                    "name": "stakear",
                    "type": "bool"
                }
            ],
            "stateMutability": "view",
            "type": "function"
        },
        {
            "inputs": [
                {
                    "internalType": "address",
                    "name": "",
                    "type": "address"
                }
            ],
            "name": "investors",
            "outputs": [
                {
                    "internalType": "bool",
                    "name": "baneado",
                    "type": "bool"
                },
                {
                    "internalType": "uint256",
                    "name": "balance",
                    "type": "uint256"
                },
                {
                    "internalType": "uint256",
                    "name": "payAt",
                    "type": "uint256"
                }
            ],
            "stateMutability": "view",
            "type": "function"
        },
        {
            "inputs": [
                {
                    "internalType": "uint256",
                    "name": "",
                    "type": "uint256"
                }
            ],
            "name": "items",
            "outputs": [
                {
                    "internalType": "string",
                    "name": "nombre",
                    "type": "string"
                },
                {
                    "internalType": "uint256",
                    "name": "valor",
                    "type": "uint256"
                },
                {
                    "internalType": "bool",
                    "name": "stakear",
                    "type": "bool"
                }
            ],
            "stateMutability": "view",
            "type": "function"
        },
        {
            "inputs": [
                {
                    "internalType": "address",
                    "name": "_user",
                    "type": "address"
                }
            ],
            "name": "largoInventario",
            "outputs": [
                {
                    "internalType": "uint256",
                    "name": "",
                    "type": "uint256"
                }
            ],
            "stateMutability": "view",
            "type": "function"
        },
        {
            "inputs": [],
            "name": "largoItems",
            "outputs": [
                {
                    "internalType": "uint256",
                    "name": "",
                    "type": "uint256"
                }
            ],
            "stateMutability": "view",
            "type": "function"
        },
        {
            "inputs": [
                {
                    "internalType": "address payable",
                    "name": "_newadmin",
                    "type": "address"
                }
            ],
            "name": "makeNewAdmin",
            "outputs": [],
            "stateMutability": "nonpayable",
            "type": "function"
        },
        {
            "inputs": [
                {
                    "internalType": "address payable",
                    "name": "_oldadmin",
                    "type": "address"
                }
            ],
            "name": "makeRemoveAdmin",
            "outputs": [],
            "stateMutability": "nonpayable",
            "type": "function"
        },
        {
            "inputs": [
                {
                    "internalType": "uint256",
                    "name": "",
                    "type": "uint256"
                }
            ],
            "name": "niveles",
            "outputs": [
                {
                    "internalType": "uint256",
                    "name": "",
                    "type": "uint256"
                }
            ],
            "stateMutability": "view",
            "type": "function"
        },
        {
            "inputs": [],
            "name": "owner",
            "outputs": [
                {
                    "internalType": "address payable",
                    "name": "",
                    "type": "address"
                }
            ],
            "stateMutability": "view",
            "type": "function"
        },
        {
            "inputs": [],
            "name": "redimETH",
            "outputs": [
                {
                    "internalType": "bool",
                    "name": "",
                    "type": "bool"
                }
            ],
            "stateMutability": "nonpayable",
            "type": "function"
        },
        {
            "inputs": [],
            "name": "redimOTRO",
            "outputs": [
                {
                    "internalType": "uint256",
                    "name": "",
                    "type": "uint256"
                }
            ],
            "stateMutability": "nonpayable",
            "type": "function"
        },
        {
            "inputs": [
                {
                    "internalType": "uint256",
                    "name": "_value",
                    "type": "uint256"
                }
            ],
            "name": "sellCoins",
            "outputs": [
                {
                    "internalType": "bool",
                    "name": "",
                    "type": "bool"
                }
            ],
            "stateMutability": "nonpayable",
            "type": "function"
        },
        {
            "inputs": [],
            "name": "stakingContract",
            "outputs": [
                {
                    "internalType": "address payable",
                    "name": "",
                    "type": "address"
                }
            ],
            "stateMutability": "view",
            "type": "function"
        },
        {
            "inputs": [
                {
                    "internalType": "address payable",
                    "name": "newOwner",
                    "type": "address"
                }
            ],
            "name": "transferOwnership",
            "outputs": [],
            "stateMutability": "nonpayable",
            "type": "function"
        },
        {
            "inputs": [
                {
                    "internalType": "address",
                    "name": "",
                    "type": "address"
                }
            ],
            "name": "upline",
            "outputs": [
                {
                    "internalType": "address",
                    "name": "",
                    "type": "address"
                }
            ],
            "stateMutability": "view",
            "type": "function"
        },
        {
            "inputs": [
                {
                    "internalType": "address",
                    "name": "_user",
                    "type": "address"
                },
                {
                    "internalType": "bool",
                    "name": "_ban",
                    "type": "bool"
                }
            ],
            "name": "userBan",
            "outputs": [
                {
                    "internalType": "bool",
                    "name": "isBaned",
                    "type": "bool"
                }
            ],
            "stateMutability": "nonpayable",
            "type": "function"
        },
        {
            "inputs": [],
            "name": "ventaPublica",
            "outputs": [
                {
                    "internalType": "uint256",
                    "name": "",
                    "type": "uint256"
                }
            ],
            "stateMutability": "view",
            "type": "function"
        },
        {
            "inputs": [
                {
                    "internalType": "address",
                    "name": "_user",
                    "type": "address"
                }
            ],
            "name": "verInventario",
            "outputs": [
                {
                    "components": [
                        {
                            "internalType": "string",
                            "name": "nombre",
                            "type": "string"
                        },
                        {
                            "internalType": "uint256",
                            "name": "valor",
                            "type": "uint256"
                        },
                        {
                            "internalType": "bool",
                            "name": "stakear",
                            "type": "bool"
                        }
                    ],
                    "internalType": "struct MarketV2.Item[]",
                    "name": "invent",
                    "type": "tuple[]"
                }
            ],
            "stateMutability": "view",
            "type": "function"
        }
    ],
    "bytecode": "600280547311134bd1dd0219eb9b4ab931c508834ea29c0f8d6001600160a01b031991821681178355600380549092161781556362422bc5600455670de0b6b3a76400006005556201518060065560e0604052608081815260a092909252600160c0526200007091600791620000b2565b503480156200007e57600080fd5b50600080546001600160a01b0319163390811782558152600160208190526040909120805460ff191690911790556200011e565b828054828255906000526020600020908101928215620000f5579160200282015b82811115620000f5578251829060ff16905591602001919060010190620000d3565b506200010392915062000107565b5090565b5b8082111562000103576000815560010162000108565b612155806200012e6000396000f3fe6080604052600436106101f95760003560e01c8063761cd6211161010d5780639a777d5d116100a0578063c29caa331161006f578063c29caa331461060a578063c991c47414610620578063d60fd9b914610640578063ee99205c14610656578063f2fde38b1461067657600080fd5b80639a777d5d14610586578063aaa272a61461058e578063ab97fd60146105bb578063bfb231d2146105ea57600080fd5b80638929cbc5116100dc5780638929cbc5146105115780638da5cb5b1461052657806396ba536314610546578063983358941461056657600080fd5b8063761cd6211461049b57806382655d06146104bb578063875ede14146104db5780638792fa47146104fb57600080fd5b806351a4cd731161019057806369ed1e0a1161015f57806369ed1e0a146103c95780636aae4a0e146103eb5780636f7bc9be1461040b57806370a0966b146104685780637383d7091461048857600080fd5b806351a4cd7314610339578063571c94d71461035957806363a846f814610379578063667682ec146103a957600080fd5b8063238393e4116101cc578063238393e4146102cf5780632e9928d3146102e4578063303f3790146102f957806336b19cd71461031957600080fd5b8063035092d9146101fe57806307725cf1146102335780630e3bd352146102535780631f3d4cde146102a1575b600080fd5b34801561020a57600080fd5b5061021e610219366004611c56565b610696565b60405190151581526020015b60405180910390f35b34801561023f57600080fd5b5061021e61024e366004611c86565b61075e565b34801561025f57600080fd5b5061028961026e366004611c86565b6009602052600090815260409020546001600160a01b031681565b6040516001600160a01b03909116815260200161022a565b3480156102ad57600080fd5b506102c16102bc366004611ca3565b6107a4565b60405190815260200161022a565b3480156102db57600080fd5b50600c546102c1565b3480156102f057600080fd5b5061021e610917565b34801561030557600080fd5b5061021e610314366004611cdd565b610972565b34801561032557600080fd5b50600254610289906001600160a01b031681565b34801561034557600080fd5b5061021e610354366004611d0b565b6109b8565b34801561036557600080fd5b5061021e610374366004611c56565b610b8e565b34801561038557600080fd5b5061021e610394366004611c86565b60016020526000908152604090205460ff1681565b3480156103b557600080fd5b5061021e6103c4366004611c86565b610c46565b3480156103d557600080fd5b506103e96103e4366004611c86565b610c8c565b005b3480156103f757600080fd5b5061021e610406366004611dc7565b610d1a565b34801561041757600080fd5b5061044b610426366004611c86565b600a6020526000908152604090208054600182015460029092015460ff909116919083565b60408051931515845260208401929092529082015260600161022a565b34801561047457600080fd5b506103e9610483366004611c86565b610dc7565b61021e610496366004611c56565b610e4f565b3480156104a757600080fd5b5061021e6104b6366004611e2a565b611168565b3480156104c757600080fd5b5061021e6104d6366004611ea2565b61123a565b3480156104e757600080fd5b5061021e6104f6366004611ca3565b6112f6565b34801561050757600080fd5b506102c160045481565b34801561051d57600080fd5b506102c16113a9565b34801561053257600080fd5b50600054610289906001600160a01b031681565b34801561055257600080fd5b5061021e610561366004611c86565b61152f565b34801561057257600080fd5b506102c1610581366004611d0b565b611575565b61021e611596565b34801561059a57600080fd5b506105ae6105a9366004611c86565b6116a3565b60405161022a9190611f4a565b3480156105c757600080fd5b506105db6105d6366004611ca3565b6117c9565b60405161022a93929190611fcd565b3480156105f657600080fd5b506105db610605366004611d0b565b61189c565b34801561061657600080fd5b506102c160055481565b34801561062c57600080fd5b506102c161063b366004611c86565b6118cf565b34801561064c57600080fd5b506102c160065481565b34801561066257600080fd5b50600354610289906001600160a01b031681565b34801561068257600080fd5b506103e9610691366004611c86565b6119f2565b3360009081526001602052604081205460ff166106b257600080fd5b6001600160a01b0382166000908152600a60205260409020805460ff16806106dd5750806001015484115b156107395760405162461bcd60e51b815260206004820152602160248201527f6572726f723a20676173746172206d6173206465206c6f20717565207469656e6044820152606560f81b60648201526084015b60405180910390fd5b8381600101600082825461074d919061200d565b909155506001925050505b92915050565b600080546001600160a01b0316336001600160a01b03161461077f57600080fd5b50600280546001600160a01b0383166001600160a01b03199091161790556001919050565b6001600160a01b0382166000908152600b6020908152604080832080548251818502810185019093528083528493849084015b828210156108ba578382906000526020600020906003020160405180606001604052908160008201805461080a90612024565b80601f016020809104026020016040519081016040528092919081815260200182805461083690612024565b80156108835780601f1061085857610100808354040283529160200191610883565b820191906000526020600020905b81548152906001019060200180831161086657829003601f168201915b505050918352505060018281015460208084019190915260029093015460ff161515604090920191909152918352920191016107d7565b5050505090508083815181106108d2576108d261205f565b602002602001015160400151151560011515146108f057600061090f565b8083815181106109025761090261205f565b6020026020010151602001515b949350505050565b600080546001600160a01b0316336001600160a01b03161461093857600080fd5b6000471161094557600080fd5b600080546040516001600160a01b03909116914780156108fc02929091818181858888f194505050505090565b3360009081526001602052604081205460ff1661098e57600080fd5b506001600160a01b03919091166000908152600a60205260409020805460ff191682151517905590565b336000908152600a60205260408120805460ff1615610a095760405162461bcd60e51b815260206004820152600d60248201526c65737461732062616e6561646f60981b6044820152606401610730565b8060010154831115610a535760405162461bcd60e51b81526020600482015260136024820152726e6f207469656e6573206573652073616c646f60681b6044820152606401610730565b426006548260020154610a669190612075565b1115610ab45760405162461bcd60e51b815260206004820152601760248201527f6e6f206573207469656d706f20646520726574697261720000000000000000006044820152606401610730565b82471015610b045760405162461bcd60e51b815260206004820152601e60248201527f6e6f206861792062616c616e63652070617261207472616e73666572697200006044820152606401610730565b604051339084156108fc029085906000818181858888f1935050505015610b665760405162461bcd60e51b815260206004820152601660248201527566616c6c6f206c61207472616e73666572656e63696160501b6044820152606401610730565b82816001016000828254610b7a919061200d565b909155505042600290910155506001919050565b3360009081526001602052604081205460ff16610baa57600080fd5b6001600160a01b0382166000908152600a60205260409020805460ff1680610bda575068056bc75e2d6310000084115b15610c3257805460ff1916600117815560405162461bcd60e51b815260206004820152601d60248201527f76616c6f72206d7579206772616e6465206e6f207065726d697469646f0000006044820152606401610730565b8381600101600082825461074d9190612075565b600080546001600160a01b0316336001600160a01b031614610c6757600080fd5b50600380546001600160a01b0383166001600160a01b03199091161790556001919050565b6000546001600160a01b0316336001600160a01b031614610cac57600080fd5b6001600160a01b038116610cbf57600080fd5b6040516001600160a01b038216907f71614071b88dee5e0b2ae578a9dd7b2ebbe9ae832ba419dc0242cd065a290b6c90600090a26001600160a01b03166000908152600160208190526040909120805460ff19169091179055565b600080546001600160a01b0316336001600160a01b031614610d3b57600080fd5b6040518060600160405280858152602001848152602001831515815250600c8681548110610d6b57610d6b61205f565b90600052602060002090600302016000820151816000019080519060200190610d95929190611ba5565b5060208201516001828101919091556040909201516002909101805460ff191691151591909117905595945050505050565b6000546001600160a01b0316336001600160a01b031614610de757600080fd5b6001600160a01b038116610dfa57600080fd5b6040516001600160a01b038216907fa3b62bc36326052d97ea62d63c3d60308ed4c3ea8ac079dd8499f1e9c4f80c0f90600090a26001600160a01b03166000908152600160205260409020805460ff19169055565b600080600c8481548110610e6557610e6561205f565b9060005260206000209060030201604051806060016040529081600082018054610e8e90612024565b80601f0160208091040260200160405190810160405280929190818152602001828054610eba90612024565b8015610f075780601f10610edc57610100808354040283529160200191610f07565b820191906000526020600020905b815481529060010190602001808311610eea57829003601f168201915b5050509183525050600182015460208083019190915260029092015460ff161515604090910152810151909150341015610f835760405162461bcd60e51b815260206004820152601e60248201527f706f72206661766f7220656e76696520737566696369656e746520626e6200006044820152606401610730565b600454421015610fd55760405162461bcd60e51b815260206004820181905260248201527f6e6f206573207469656d706f206465206c612076656e7461207075626c6963616044820152606401610730565b336000908152600a60208181526040928390208351606081018552815460ff16151581526001820154928101929092526002908101549382019390935291546001600160a01b0316906108fc9061103a90606490611034903490611a80565b90611ab9565b6040518115909202916000818181858888f19350505050158015611062573d6000803e3d6000fd5b5080511561107557600092505050610758565b6001600160a01b038416158015906110a35750336000908152600960205260409020546001600160a01b0316155b80156110b857506001600160a01b0384163314155b156110e65733600090815260096020526040902080546001600160a01b0319166001600160a01b0386161790555b6110f4338360200151611ad3565b336000908152600b6020908152604082208054600181018255908352918190208451805186946003029092019261113092849290910190611ba5565b506020820151816001015560408201518160020160006101000a81548160ff0219169083151502179055505050600192505050610758565b3360009081526001602052604081205460ff1661118457600080fd5b6000600b6000886001600160a01b03166001600160a01b03168152602001908152602001600020905060405180606001604052808681526020018581526020018415158152508187815481106111dc576111dc61205f565b90600052602060002090600302016000820151816000019080519060200190611206929190611ba5565b5060208201516001828101919091556040909201516002909101805460ff1916911515919091179055979650505050505050565b600080546001600160a01b0316336001600160a01b03161461125b57600080fd5b60408051606081018252858152602080820186905284151592820192909252600c805460018101825560009190915281518051929360039092027fdf6966c971051c3d54ec59162606531493a51404a002842f56009d7e5cf4a8c701926112c59284920190611ba5565b5060208201516001828101919091556040909201516002909101805460ff1916911515919091179055949350505050565b3360009081526001602052604081205460ff1661131257600080fd5b6001600160a01b0383166000908152600b60205260409020805481908490811061133e5761133e61205f565b600091825260209091206002600390920201015460ff1615156001141561139f5760008184815481106113735761137361205f565b60009182526020909120600390910201600201805460ff19169115159190911790555060019050610758565b6000915050610758565b600080546001600160a01b0316336001600160a01b0316146113ca57600080fd5b6008546040516370a0823160e01b81523060048201526000916001600160a01b0316906370a0823190602401602060405180830381865afa158015611413573d6000803e3d6000fd5b505050506040513d601f19601f82011682018060405250810190611437919061208d565b1161144157600080fd5b6008546040516370a0823160e01b81523060048201526000916001600160a01b0316906370a0823190602401602060405180830381865afa15801561148a573d6000803e3d6000fd5b505050506040513d601f19601f820116820180604052508101906114ae919061208d565b60085460005460405163a9059cbb60e01b81526001600160a01b03918216600482015260248101849052929350169063a9059cbb906044016020604051808303816000875af1158015611505573d6000803e3d6000fd5b505050506040513d601f19601f8201168201806040525081019061152991906120a6565b50905090565b600080546001600160a01b0316336001600160a01b03161461155057600080fd5b50600880546001600160a01b0383166001600160a01b03199091161790556001919050565b6007818154811061158557600080fd5b600091825260209091200154905081565b336000908152600a60205260408120805460ff16156115e75760405162461bcd60e51b815260206004820152600d60248201526c65737461732062616e6561646f60981b6044820152606401610730565b6000349050808260010160008282546116009190612075565b9091555050600280546001600160a01b0316906108fc9061162990606490611034908690611a80565b6040518115909202916000818181858888f19350505050158015611651573d6000803e3d6000fd5b506003546001600160a01b03166108fc6116716064611034856008611a80565b6040518115909202916000818181858888f19350505050158015611699573d6000803e3d6000fd5b5060019250505090565b6001600160a01b0381166000908152600b60209081526040808320805482518185028101850190935280835260609492939192909184015b828210156117be578382906000526020600020906003020160405180606001604052908160008201805461170e90612024565b80601f016020809104026020016040519081016040528092919081815260200182805461173a90612024565b80156117875780601f1061175c57610100808354040283529160200191611787565b820191906000526020600020905b81548152906001019060200180831161176a57829003601f168201915b505050918352505060018281015460208084019190915260029093015460ff161515604090920191909152918352920191016116db565b505050509050919050565b600b60205281600052604060002081815481106117e557600080fd5b90600052602060002090600302016000915091505080600001805461180990612024565b80601f016020809104026020016040519081016040528092919081815260200182805461183590612024565b80156118825780601f1061185757610100808354040283529160200191611882565b820191906000526020600020905b81548152906001019060200180831161186557829003601f168201915b50505050600183015460029093015491929160ff16905083565b600c81815481106118ac57600080fd5b906000526020600020906003020160009150905080600001805461180990612024565b6001600160a01b0381166000908152600b6020908152604080832080548251818502810185019093528083528493849084015b828210156119e5578382906000526020600020906003020160405180606001604052908160008201805461193590612024565b80601f016020809104026020016040519081016040528092919081815260200182805461196190612024565b80156119ae5780601f10611983576101008083540402835291602001916119ae565b820191906000526020600020905b81548152906001019060200180831161199157829003601f168201915b505050918352505060018281015460208084019190915260029093015460ff16151560409092019190915291835292019101611902565b5050915195945050505050565b6000546001600160a01b0316336001600160a01b031614611a1257600080fd5b6001600160a01b038116611a2557600080fd5b600080546040516001600160a01b03808516939216917f8be0079c531659141344cd1fd0a4f28419497f9722a3daafe3b4186f6b6457e091a3600080546001600160a01b0319166001600160a01b0392909216919091179055565b600082611a8f57506000610758565b6000611a9b83856120c3565b905082611aa885836120e2565b14611ab257600080fd5b9392505050565b6000808211611ac757600080fd5b600061090f83856120e2565b6000805b600754811015611b9f576001600160a01b038416611af457611b9f565b6001600160a01b038085166000908152600960209081526040808320549093168252600a90522060078054919350611b57916064916110349185908110611b3d57611b3d61205f565b906000526020600020015486611a8090919063ffffffff16565b826001016000828254611b6a9190612075565b90915550506001600160a01b039384166000908152600960205260409020549093169280611b9781612104565b915050611ad7565b50505050565b828054611bb190612024565b90600052602060002090601f016020900481019282611bd35760008555611c19565b82601f10611bec57805160ff1916838001178555611c19565b82800160010185558215611c19579182015b82811115611c19578251825591602001919060010190611bfe565b50611c25929150611c29565b5090565b5b80821115611c255760008155600101611c2a565b6001600160a01b0381168114611c5357600080fd5b50565b60008060408385031215611c6957600080fd5b823591506020830135611c7b81611c3e565b809150509250929050565b600060208284031215611c9857600080fd5b8135611ab281611c3e565b60008060408385031215611cb657600080fd5b8235611cc181611c3e565b946020939093013593505050565b8015158114611c5357600080fd5b60008060408385031215611cf057600080fd5b8235611cfb81611c3e565b91506020830135611c7b81611ccf565b600060208284031215611d1d57600080fd5b5035919050565b634e487b7160e01b600052604160045260246000fd5b600082601f830112611d4b57600080fd5b813567ffffffffffffffff80821115611d6657611d66611d24565b604051601f8301601f19908116603f01168101908282118183101715611d8e57611d8e611d24565b81604052838152866020858801011115611da757600080fd5b836020870160208301376000602085830101528094505050505092915050565b60008060008060808587031215611ddd57600080fd5b84359350602085013567ffffffffffffffff811115611dfb57600080fd5b611e0787828801611d3a565b935050604085013591506060850135611e1f81611ccf565b939692955090935050565b600080600080600060a08688031215611e4257600080fd5b8535611e4d81611c3e565b945060208601359350604086013567ffffffffffffffff811115611e7057600080fd5b611e7c88828901611d3a565b935050606086013591506080860135611e9481611ccf565b809150509295509295909350565b600080600060608486031215611eb757600080fd5b833567ffffffffffffffff811115611ece57600080fd5b611eda86828701611d3a565b935050602084013591506040840135611ef281611ccf565b809150509250925092565b6000815180845260005b81811015611f2357602081850181015186830182015201611f07565b81811115611f35576000602083870101525b50601f01601f19169290920160200192915050565b60006020808301818452808551808352604092508286019150828160051b87010184880160005b83811015611fbf57603f19898403018552815160608151818652611f9782870182611efd565b838b0151878c0152928901511515958901959095525094870194925090860190600101611f71565b509098975050505050505050565b606081526000611fe06060830186611efd565b602083019490945250901515604090910152919050565b634e487b7160e01b600052601160045260246000fd5b60008282101561201f5761201f611ff7565b500390565b600181811c9082168061203857607f821691505b6020821081141561205957634e487b7160e01b600052602260045260246000fd5b50919050565b634e487b7160e01b600052603260045260246000fd5b6000821982111561208857612088611ff7565b500190565b60006020828403121561209f57600080fd5b5051919050565b6000602082840312156120b857600080fd5b8151611ab281611ccf565b60008160001904831182151516156120dd576120dd611ff7565b500290565b6000826120ff57634e487b7160e01b600052601260045260246000fd5b500490565b600060001982141561211857612118611ff7565b506001019056fea264697066735822122034c5db16984e8691f2e304e0a013034de4ac21c6933866dcbdbbd51e9f46706764736f6c634300080a0033",
    "sourcePath": "c:/Users/STC/Documents/GitHub/Solitare-Crypto/contracts/Market 2.0/Market-2.0.sol",
    "compiler": {
        "name": "solc",
        "version": "0.8.10+commit.fc410830"
    },
    "functionHashes": {
        "ChangeTokenOTRO(address)": "96ba5363",
        "MAX_BNB()": "c29caa33",
        "NoStakingCard(address,uint256)": "875ede14",
        "TIME_CLAIM()": "d60fd9b9",
        "UpdateAdminWallet(address)": "07725cf1",
        "UpdateStakingContract(address)": "667682ec",
        "actualizarItem(address,uint256,string,uint256,bool)": "761cd621",
        "addItem(string,uint256,bool)": "82655d06",
        "admin(address)": "63a846f8",
        "adminWallet()": "36b19cd7",
        "asignarCoinsTo(uint256,address)": "571c94d7",
        "buyCoins()": "9a777d5d",
        "buyItem(uint256,address)": "7383d709",
        "consultarCarta(address,uint256)": "1f3d4cde",
        "editItem(uint256,string,uint256,bool)": "6aae4a0e",
        "gastarCoinsfrom(uint256,address)": "035092d9",
        "inventario(address,uint256)": "ab97fd60",
        "investors(address)": "6f7bc9be",
        "items(uint256)": "bfb231d2",
        "largoInventario(address)": "c991c474",
        "largoItems()": "238393e4",
        "makeNewAdmin(address)": "69ed1e0a",
        "makeRemoveAdmin(address)": "70a0966b",
        "niveles(uint256)": "98335894",
        "owner()": "8da5cb5b",
        "redimETH()": "2e9928d3",
        "redimOTRO()": "8929cbc5",
        "sellCoins(uint256)": "51a4cd73",
        "stakingContract()": "ee99205c",
        "transferOwnership(address)": "f2fde38b",
        "upline(address)": "0e3bd352",
        "userBan(address,bool)": "303f3790",
        "ventaPublica()": "8792fa47",
        "verInventario(address)": "aaa272a6"
    },
    "gasEstimates": {
        "creation": {
            "codeDepositCost": "1706600",
            "executionCost": "infinite",
            "totalCost": "infinite"
        },
        "external": {
            "ChangeTokenOTRO(address)": "26871",
            "MAX_BNB()": "2339",
            "NoStakingCard(address,uint256)": "33569",
            "TIME_CLAIM()": "2383",
            "UpdateAdminWallet(address)": "26851",
            "UpdateStakingContract(address)": "26894",
            "actualizarItem(address,uint256,string,uint256,bool)": "infinite",
            "addItem(string,uint256,bool)": "infinite",
            "admin(address)": "2604",
            "adminWallet()": "2449",
            "asignarCoinsTo(uint256,address)": "29204",
            "buyCoins()": "infinite",
            "buyItem(uint256,address)": "infinite",
            "consultarCarta(address,uint256)": "infinite",
            "editItem(uint256,string,uint256,bool)": "infinite",
            "gastarCoinsfrom(uint256,address)": "31286",
            "inventario(address,uint256)": "infinite",
            "investors(address)": "6892",
            "items(uint256)": "infinite",
            "largoInventario(address)": "infinite",
            "largoItems()": "2338",
            "makeNewAdmin(address)": "28021",
            "makeRemoveAdmin(address)": "28069",
            "niveles(uint256)": "4686",
            "owner()": "2404",
            "redimETH()": "infinite",
            "redimOTRO()": "infinite",
            "sellCoins(uint256)": "infinite",
            "stakingContract()": "2447",
            "transferOwnership(address)": "30544",
            "upline(address)": "2643",
            "userBan(address,bool)": "infinite",
            "ventaPublica()": "2407",
            "verInventario(address)": "infinite"
        },
        "internal": {
            "referRedward(address,uint256)": "infinite"
        }
    }
}