{
    "contractName": "MarketV2",
    "abi": [
        {
            "inputs": [],
            "stateMutability": "nonpayable",
            "type": "constructor"
        },
        {
            "anonymous": false,
            "inputs": [
                {
                    "indexed": true,
                    "internalType": "address",
                    "name": "admin",
                    "type": "address"
                }
            ],
            "name": "AdminRemoved",
            "type": "event"
        },
        {
            "anonymous": false,
            "inputs": [
                {
                    "indexed": true,
                    "internalType": "address",
                    "name": "admin",
                    "type": "address"
                }
            ],
            "name": "NewAdmin",
            "type": "event"
        },
        {
            "anonymous": false,
            "inputs": [
                {
                    "indexed": true,
                    "internalType": "address",
                    "name": "previousOwner",
                    "type": "address"
                },
                {
                    "indexed": true,
                    "internalType": "address",
                    "name": "newOwner",
                    "type": "address"
                }
            ],
            "name": "OwnershipTransferred",
            "type": "event"
        },
        {
            "inputs": [
                {
                    "internalType": "address",
                    "name": "_tokenERC20",
                    "type": "address"
                }
            ],
            "name": "ChangePrincipalToken",
            "outputs": [
                {
                    "internalType": "bool",
                    "name": "",
                    "type": "bool"
                }
            ],
            "stateMutability": "nonpayable",
            "type": "function"
        },
        {
            "inputs": [
                {
                    "internalType": "address",
                    "name": "_tokenERC20",
                    "type": "address"
                }
            ],
            "name": "ChangeTokenOTRO",
            "outputs": [
                {
                    "internalType": "bool",
                    "name": "",
                    "type": "bool"
                }
            ],
            "stateMutability": "nonpayable",
            "type": "function"
        },
        {
            "inputs": [],
            "name": "MAX_CSC",
            "outputs": [
                {
                    "internalType": "uint256",
                    "name": "",
                    "type": "uint256"
                }
            ],
            "stateMutability": "view",
            "type": "function"
        },
        {
            "inputs": [],
            "name": "MIN_CSC",
            "outputs": [
                {
                    "internalType": "uint256",
                    "name": "",
                    "type": "uint256"
                }
            ],
            "stateMutability": "view",
            "type": "function"
        },
        {
            "inputs": [],
            "name": "TIME_CLAIM",
            "outputs": [
                {
                    "internalType": "uint256",
                    "name": "",
                    "type": "uint256"
                }
            ],
            "stateMutability": "view",
            "type": "function"
        },
        {
            "inputs": [
                {
                    "internalType": "string",
                    "name": "_nombre",
                    "type": "string"
                },
                {
                    "internalType": "string",
                    "name": "_tipo",
                    "type": "string"
                },
                {
                    "internalType": "uint256",
                    "name": "_value",
                    "type": "uint256"
                },
                {
                    "internalType": "bool",
                    "name": "_acumulable",
                    "type": "bool"
                },
                {
                    "internalType": "bool",
                    "name": "_ilimitado",
                    "type": "bool"
                },
                {
                    "internalType": "uint256",
                    "name": "_cantidad",
                    "type": "uint256"
                }
            ],
            "name": "addItem",
            "outputs": [
                {
                    "internalType": "bool",
                    "name": "",
                    "type": "bool"
                }
            ],
            "stateMutability": "nonpayable",
            "type": "function"
        },
        {
            "inputs": [
                {
                    "internalType": "string",
                    "name": "_tipo",
                    "type": "string"
                },
                {
                    "internalType": "bool",
                    "name": "_ilimitado",
                    "type": "bool"
                },
                {
                    "internalType": "uint256",
                    "name": "_cantidad",
                    "type": "uint256"
                }
            ],
            "name": "addOption",
            "outputs": [
                {
                    "internalType": "bool",
                    "name": "",
                    "type": "bool"
                }
            ],
            "stateMutability": "nonpayable",
            "type": "function"
        },
        {
            "inputs": [
                {
                    "internalType": "address",
                    "name": "",
                    "type": "address"
                }
            ],
            "name": "admin",
            "outputs": [
                {
                    "internalType": "bool",
                    "name": "",
                    "type": "bool"
                }
            ],
            "stateMutability": "view",
            "type": "function"
        },
        {
            "inputs": [],
            "name": "adminWallet",
            "outputs": [
                {
                    "internalType": "address",
                    "name": "",
                    "type": "address"
                }
            ],
            "stateMutability": "view",
            "type": "function"
        },
        {
            "inputs": [
                {
                    "internalType": "uint256",
                    "name": "_value",
                    "type": "uint256"
                },
                {
                    "internalType": "address",
                    "name": "_user",
                    "type": "address"
                }
            ],
            "name": "asignarCoinsTo",
            "outputs": [
                {
                    "internalType": "bool",
                    "name": "",
                    "type": "bool"
                }
            ],
            "stateMutability": "nonpayable",
            "type": "function"
        },
        {
            "inputs": [
                {
                    "internalType": "uint256",
                    "name": "_value",
                    "type": "uint256"
                }
            ],
            "name": "buyCoins",
            "outputs": [
                {
                    "internalType": "bool",
                    "name": "",
                    "type": "bool"
                }
            ],
            "stateMutability": "nonpayable",
            "type": "function"
        },
        {
            "inputs": [
                {
                    "internalType": "uint256",
                    "name": "_id",
                    "type": "uint256"
                }
            ],
            "name": "buyItem",
            "outputs": [
                {
                    "internalType": "bool",
                    "name": "",
                    "type": "bool"
                }
            ],
            "stateMutability": "nonpayable",
            "type": "function"
        },
        {
            "inputs": [
                {
                    "internalType": "uint256",
                    "name": "_id",
                    "type": "uint256"
                },
                {
                    "internalType": "string",
                    "name": "_nombre",
                    "type": "string"
                },
                {
                    "internalType": "string",
                    "name": "_tipo",
                    "type": "string"
                },
                {
                    "internalType": "uint256",
                    "name": "_value",
                    "type": "uint256"
                },
                {
                    "internalType": "bool",
                    "name": "_acumulable",
                    "type": "bool"
                },
                {
                    "internalType": "bool",
                    "name": "_ilimitado",
                    "type": "bool"
                },
                {
                    "internalType": "uint256",
                    "name": "_cantidad",
                    "type": "uint256"
                }
            ],
            "name": "editItem",
            "outputs": [
                {
                    "internalType": "bool",
                    "name": "",
                    "type": "bool"
                }
            ],
            "stateMutability": "nonpayable",
            "type": "function"
        },
        {
            "inputs": [
                {
                    "internalType": "uint256",
                    "name": "_id",
                    "type": "uint256"
                },
                {
                    "internalType": "string",
                    "name": "_tipo",
                    "type": "string"
                },
                {
                    "internalType": "bool",
                    "name": "_ilimitado",
                    "type": "bool"
                },
                {
                    "internalType": "uint256",
                    "name": "_cantidad",
                    "type": "uint256"
                }
            ],
            "name": "editOption",
            "outputs": [
                {
                    "internalType": "bool",
                    "name": "",
                    "type": "bool"
                }
            ],
            "stateMutability": "nonpayable",
            "type": "function"
        },
        {
            "inputs": [
                {
                    "internalType": "uint256",
                    "name": "_value",
                    "type": "uint256"
                }
            ],
            "name": "gastarCoins",
            "outputs": [
                {
                    "internalType": "bool",
                    "name": "",
                    "type": "bool"
                }
            ],
            "stateMutability": "nonpayable",
            "type": "function"
        },
        {
            "inputs": [
                {
                    "internalType": "uint256",
                    "name": "_value",
                    "type": "uint256"
                },
                {
                    "internalType": "address",
                    "name": "_user",
                    "type": "address"
                }
            ],
            "name": "gastarCoinsfrom",
            "outputs": [
                {
                    "internalType": "bool",
                    "name": "",
                    "type": "bool"
                }
            ],
            "stateMutability": "nonpayable",
            "type": "function"
        },
        {
            "inputs": [
                {
                    "internalType": "uint256",
                    "name": "",
                    "type": "uint256"
                }
            ],
            "name": "idNfts",
            "outputs": [
                {
                    "internalType": "address",
                    "name": "",
                    "type": "address"
                }
            ],
            "stateMutability": "view",
            "type": "function"
        },
        {
            "inputs": [
                {
                    "internalType": "address",
                    "name": "",
                    "type": "address"
                },
                {
                    "internalType": "uint256",
                    "name": "",
                    "type": "uint256"
                }
            ],
            "name": "inventario",
            "outputs": [
                {
                    "internalType": "string",
                    "name": "nombre",
                    "type": "string"
                },
                {
                    "internalType": "string",
                    "name": "tipo",
                    "type": "string"
                },
                {
                    "internalType": "uint256",
                    "name": "valor",
                    "type": "uint256"
                },
                {
                    "internalType": "bool",
                    "name": "acumulable",
                    "type": "bool"
                },
                {
                    "internalType": "bool",
                    "name": "ilimitado",
                    "type": "bool"
                },
                {
                    "internalType": "uint256",
                    "name": "cantidad",
                    "type": "uint256"
                },
                {
                    "internalType": "bool",
                    "name": "stakear",
                    "type": "bool"
                }
            ],
            "stateMutability": "view",
            "type": "function"
        },
        {
            "inputs": [
                {
                    "internalType": "address",
                    "name": "",
                    "type": "address"
                }
            ],
            "name": "investors",
            "outputs": [
                {
                    "internalType": "bool",
                    "name": "baneado",
                    "type": "bool"
                },
                {
                    "internalType": "uint256",
                    "name": "balance",
                    "type": "uint256"
                },
                {
                    "internalType": "uint256",
                    "name": "gastado",
                    "type": "uint256"
                },
                {
                    "internalType": "uint256",
                    "name": "payAt",
                    "type": "uint256"
                },
                {
                    "internalType": "uint256",
                    "name": "almacen",
                    "type": "uint256"
                }
            ],
            "stateMutability": "view",
            "type": "function"
        },
        {
            "inputs": [
                {
                    "internalType": "uint256",
                    "name": "",
                    "type": "uint256"
                }
            ],
            "name": "items",
            "outputs": [
                {
                    "internalType": "string",
                    "name": "nombre",
                    "type": "string"
                },
                {
                    "internalType": "string",
                    "name": "tipo",
                    "type": "string"
                },
                {
                    "internalType": "uint256",
                    "name": "valor",
                    "type": "uint256"
                },
                {
                    "internalType": "bool",
                    "name": "acumulable",
                    "type": "bool"
                },
                {
                    "internalType": "bool",
                    "name": "ilimitado",
                    "type": "bool"
                },
                {
                    "internalType": "uint256",
                    "name": "cantidad",
                    "type": "uint256"
                },
                {
                    "internalType": "bool",
                    "name": "stakear",
                    "type": "bool"
                }
            ],
            "stateMutability": "view",
            "type": "function"
        },
        {
            "inputs": [
                {
                    "internalType": "address",
                    "name": "_user",
                    "type": "address"
                }
            ],
            "name": "largoInventario",
            "outputs": [
                {
                    "internalType": "uint256",
                    "name": "",
                    "type": "uint256"
                }
            ],
            "stateMutability": "view",
            "type": "function"
        },
        {
            "inputs": [],
            "name": "largoItems",
            "outputs": [
                {
                    "internalType": "uint256",
                    "name": "",
                    "type": "uint256"
                }
            ],
            "stateMutability": "view",
            "type": "function"
        },
        {
            "inputs": [],
            "name": "largoOptions",
            "outputs": [
                {
                    "internalType": "uint256",
                    "name": "",
                    "type": "uint256"
                }
            ],
            "stateMutability": "view",
            "type": "function"
        },
        {
            "inputs": [
                {
                    "internalType": "address payable",
                    "name": "_newadmin",
                    "type": "address"
                }
            ],
            "name": "makeNewAdmin",
            "outputs": [],
            "stateMutability": "nonpayable",
            "type": "function"
        },
        {
            "inputs": [
                {
                    "internalType": "address payable",
                    "name": "_oldadmin",
                    "type": "address"
                }
            ],
            "name": "makeRemoveAdmin",
            "outputs": [],
            "stateMutability": "nonpayable",
            "type": "function"
        },
        {
            "inputs": [
                {
                    "internalType": "uint256",
                    "name": "",
                    "type": "uint256"
                }
            ],
            "name": "nfts",
            "outputs": [
                {
                    "internalType": "address",
                    "name": "",
                    "type": "address"
                }
            ],
            "stateMutability": "view",
            "type": "function"
        },
        {
            "inputs": [
                {
                    "internalType": "uint256",
                    "name": "",
                    "type": "uint256"
                }
            ],
            "name": "opciones",
            "outputs": [
                {
                    "internalType": "string",
                    "name": "tipo",
                    "type": "string"
                },
                {
                    "internalType": "bool",
                    "name": "ilimitados",
                    "type": "bool"
                },
                {
                    "internalType": "uint256",
                    "name": "cantidad",
                    "type": "uint256"
                }
            ],
            "stateMutability": "view",
            "type": "function"
        },
        {
            "inputs": [],
            "name": "owner",
            "outputs": [
                {
                    "internalType": "address payable",
                    "name": "",
                    "type": "address"
                }
            ],
            "stateMutability": "view",
            "type": "function"
        },
        {
            "inputs": [],
            "name": "redimETH",
            "outputs": [
                {
                    "internalType": "uint256",
                    "name": "",
                    "type": "uint256"
                }
            ],
            "stateMutability": "nonpayable",
            "type": "function"
        },
        {
            "inputs": [],
            "name": "redimOTRO",
            "outputs": [
                {
                    "internalType": "uint256",
                    "name": "",
                    "type": "uint256"
                }
            ],
            "stateMutability": "nonpayable",
            "type": "function"
        },
        {
            "inputs": [],
            "name": "redimTokenPrincipal01",
            "outputs": [
                {
                    "internalType": "uint256",
                    "name": "",
                    "type": "uint256"
                }
            ],
            "stateMutability": "nonpayable",
            "type": "function"
        },
        {
            "inputs": [
                {
                    "internalType": "uint256",
                    "name": "_value",
                    "type": "uint256"
                }
            ],
            "name": "redimTokenPrincipal02",
            "outputs": [
                {
                    "internalType": "uint256",
                    "name": "",
                    "type": "uint256"
                }
            ],
            "stateMutability": "nonpayable",
            "type": "function"
        },
        {
            "inputs": [
                {
                    "internalType": "uint256",
                    "name": "_value",
                    "type": "uint256"
                }
            ],
            "name": "sellCoins",
            "outputs": [
                {
                    "internalType": "bool",
                    "name": "",
                    "type": "bool"
                }
            ],
            "stateMutability": "nonpayable",
            "type": "function"
        },
        {
            "inputs": [],
            "name": "token",
            "outputs": [
                {
                    "internalType": "address",
                    "name": "",
                    "type": "address"
                }
            ],
            "stateMutability": "view",
            "type": "function"
        },
        {
            "inputs": [],
            "name": "tokenTRC721",
            "outputs": [
                {
                    "internalType": "address",
                    "name": "",
                    "type": "address"
                }
            ],
            "stateMutability": "view",
            "type": "function"
        },
        {
            "inputs": [
                {
                    "internalType": "address payable",
                    "name": "newOwner",
                    "type": "address"
                }
            ],
            "name": "transferOwnership",
            "outputs": [],
            "stateMutability": "nonpayable",
            "type": "function"
        },
        {
            "inputs": [],
            "name": "ventaPublica",
            "outputs": [
                {
                    "internalType": "uint256",
                    "name": "",
                    "type": "uint256"
                }
            ],
            "stateMutability": "view",
            "type": "function"
        }
    ],
    "bytecode": "6080604052600280546001600160a01b031990811673f0fb4a5acf1b1126a991ee189408b112028d7a6390811790925560038054821683179055600480548216724769ef6aec57efbf56c24d0a04fe619fbb614317905563617972f7600555681b1ae4d6e2ef50000060065569021e19e0c9bab240000060075562093a8060085560098054821683179055600a8054821683179055600b805490911690911790553480156100ac57600080fd5b50600080546001600160a01b03191633908117825581526001602081905260408220805460ff19169091179055612a709081906100e990396000f3fe608060405234801561001057600080fd5b50600436106102265760003560e01c806370a0966b11610130578063c991c474116100b8578063e7fb74c71161007c578063e7fb74c71461052a578063eb5b455a1461053d578063f2fde38b14610545578063fc0c546a14610558578063fe4681961461056b57600080fd5b8063c991c474146104ea578063cc360058146104fd578063d47edbaa14610510578063d60fd9b914610519578063dd62e6b31461052257600080fd5b806391eb34e0116100ff57806391eb34e01461046c57806396ba536314610475578063a750a02614610488578063ab97fd60146104b1578063bfb231d2146104d757600080fd5b806370a0966b146104355780638792fa47146104485780638929cbc5146104515780638da5cb5b1461045957600080fd5b806336b19cd7116101b3578063571c94d711610182578063571c94d71461036c57806363a846f81461037f57806369ed1e0a146103a25780636d3ea6ce146103b75780636f7bc9be146103ca57600080fd5b806336b19cd71461032057806336ec5fe41461033357806351a4cd731461034657806351e954f71461035957600080fd5b806317262d8a116101fa57806317262d8a1461029a578063238393e4146102bc578063265aa621146102c45780632e9928d31461030557806330dc1a291461030d57600080fd5b8062cffbcd1461022b578063035092d91461025357806309650b8e146102665780631140e85b14610279575b600080fd5b61023e610239366004612521565b61057e565b60405190151581526020015b60405180910390f35b61023e610261366004612590565b610638565b61023e6102743660046125c0565b6106fa565b61028c610287366004612621565b6107a5565b60405190815260200161024a565b6102ad6102a8366004612621565b6108bd565b60405161024a93929190612696565b60105461028c565b6102ed6102d2366004612621565b600e602052600090815260409020546001600160a01b031681565b6040516001600160a01b03909116815260200161024a565b61028c610983565b61023e61031b366004612621565b6109f2565b6004546102ed906001600160a01b031681565b61023e6103413660046126bb565b610a9f565b61023e610354366004612621565b610bc9565b61023e610367366004612758565b610db5565b61023e61037a366004612590565b610ed5565b61023e61038d366004612800565b60016020526000908152604090205460ff1681565b6103b56103b0366004612800565b610f84565b005b6002546102ed906001600160a01b031681565b61040b6103d8366004612800565b600c602052600090815260409020805460018201546002830154600384015460049094015460ff90931693919290919085565b6040805195151586526020860194909452928401919091526060830152608082015260a00161024a565b6103b5610443366004612800565b611012565b61028c60055481565b61028c61109a565b6000546102ed906001600160a01b031681565b61028c60065481565b61023e610483366004612800565b611221565b6102ed610496366004612621565b600f602052600090815260409020546001600160a01b031681565b6104c46104bf36600461281d565b611267565b60405161024a9796959493929190612849565b6104c46104e5366004612621565b6113df565b61028c6104f8366004612800565b611412565b61023e61050b366004612800565b6115f1565b61028c60075481565b61028c60085481565b60115461028c565b61023e610538366004612621565b611645565b61028c611ab1565b6103b5610553366004612800565b611bf3565b6003546102ed906001600160a01b031681565b61023e610579366004612621565b611c81565b600080546001600160a01b0316336001600160a01b03161461059f57600080fd5b604080516060810182528581528415156020808301919091529181018490526011805460018101825560009190915281518051929360039092027f31ecc21a745e3968a04e9570e4425bc18fa8019c68028196b546d1669c200c68019261060992849201906123d4565b5060208201516001828101805460ff191692151592909217909155604090920151600290910155949350505050565b3360009081526001602052604081205460ff1661065457600080fd5b6001600160a01b0382166000908152600c60205260409020805460ff1615801561068f57506001810154600282015461068d9086611dea565b115b156106d75760405162461bcd60e51b81526020600482015260136024820152726572726f723a206761737461722064656d617360681b60448201526064015b60405180910390fd5b838160020160008282546106eb91906128b1565b90915550600195945050505050565b600080546001600160a01b0316336001600160a01b03161461071b57600080fd5b60405180606001604052808581526020018415158152602001838152506011868154811061074b5761074b6128c9565b906000526020600020906003020160008201518160000190805190602001906107759291906123d4565b5060208201516001828101805460ff19169215159290921790915560409092015160029091015595945050505050565b600080546001600160a01b0316336001600160a01b0316146107c657600080fd5b600a546040516370a0823160e01b815230600482015283916001600160a01b0316906370a0823190602401602060405180830381865afa15801561080e573d6000803e3d6000fd5b505050506040513d601f19601f8201168201806040525081019061083291906128df565b101561083d57600080fd5b600a5460005460405163a9059cbb60e01b81526001600160a01b0391821660048201526024810185905291169063a9059cbb906044016020604051808303816000875af1158015610892573d6000803e3d6000fd5b505050506040513d601f19601f820116820180604052508101906108b691906128f8565b5090919050565b601181815481106108cd57600080fd5b90600052602060002090600302016000915090508060000180546108f090612915565b80601f016020809104026020016040519081016040528092919081815260200182805461091c90612915565b80156109695780601f1061093e57610100808354040283529160200191610969565b820191906000526020600020905b81548152906001019060200180831161094c57829003601f168201915b505050506001830154600290930154919260ff1691905083565b600080546001600160a01b0316336001600160a01b0316146109a457600080fd5b600047116109b157600080fd5b600080546040516001600160a01b03909116914780156108fc02929091818181858888f193505050501580156109eb573d6000803e3d6000fd5b5047905090565b336000908152600c60205260408120805460ff16158015610a24575060018101546002820154610a229085611dea565b115b15610a7d5760405162461bcd60e51b8152602060048201526024808201527f696e74656e74617320676173746172206d6173206465206c6f20717565207469604482015263656e657360e01b60648201526084016106ce565b82816002016000828254610a9191906128b1565b909155506001949350505050565b600080546001600160a01b0316336001600160a01b031614610ac057600080fd5b6040805160e08101825288815260208082018990529181018790528515156060820152841515608082015260a08101849052600060c0820181905260108054600181018255915281518051929360069092027f1b6847dc741a1b0cd08d278845f9d819d87b734759afb55fe2de5cb82a9ae6720192610b4292849201906123d4565b506020828101518051610b5b92600185019201906123d4565b50604082015160028201556060820151600382018054608085015115156101000261ff00199315159390931661ffff199091161791909117905560a0820151600482015560c0909101516005909101805491151560ff19929092169190911790555060019695505050505050565b336000908152600c60205260408120805460ff16610be657600080fd5b8060010154838260020154610bfb91906128b1565b1115610c0657600080fd5b600a546040516370a0823160e01b815230600482015284916001600160a01b0316906370a0823190602401602060405180830381865afa158015610c4e573d6000803e3d6000fd5b505050506040513d601f19601f82011682018060405250810190610c7291906128df565b1015610cc05760405162461bcd60e51b815260206004820152601e60248201527f6e6f206861792062616c616e63652070617261207472616e736665726972000060448201526064016106ce565b600a546001600160a01b031663a9059cbb336040516001600160e01b031960e084901b1681526001600160a01b039091166004820152602481018690526044016020604051808303816000875af1158015610d1f573d6000803e3d6000fd5b505050506040513d601f19601f82011682018060405250810190610d4391906128f8565b610d885760405162461bcd60e51b815260206004820152601660248201527566616c6c6f206c61207472616e73666572656e63696160501b60448201526064016106ce565b82816002016000828254610d9c91906128b1565b925050819055508260136000828254610a9191906128b1565b600080546001600160a01b0316336001600160a01b031614610dd657600080fd5b6040518060e00160405280888152602001878152602001868152602001851515815260200184151581526020018381526020016000151581525060108981548110610e2357610e236128c9565b90600052602060002090600602016000820151816000019080519060200190610e4d9291906123d4565b506020828101518051610e6692600185019201906123d4565b50604082015160028201556060820151600382018054608085015115156101000261ff00199315159390931661ffff199091161791909117905560a0820151600482015560c0909101516005909101805491151560ff1992909216919091179055506001979650505050505050565b3360009081526001602052604081205460ff16610ef157600080fd5b6001600160a01b0382166000908152600c60205260409020805460ff16158015610f23575068056bc75e2d6310000084115b15610f705760405162461bcd60e51b815260206004820152601d60248201527f76616c6f72206d7579206772616e6465206e6f207065726d697469646f00000060448201526064016106ce565b838160010160008282546106eb91906128b1565b6000546001600160a01b0316336001600160a01b031614610fa457600080fd5b6001600160a01b038116610fb757600080fd5b6040516001600160a01b038216907f71614071b88dee5e0b2ae578a9dd7b2ebbe9ae832ba419dc0242cd065a290b6c90600090a26001600160a01b03166000908152600160208190526040909120805460ff19169091179055565b6000546001600160a01b0316336001600160a01b03161461103257600080fd5b6001600160a01b03811661104557600080fd5b6040516001600160a01b038216907fa3b62bc36326052d97ea62d63c3d60308ed4c3ea8ac079dd8499f1e9c4f80c0f90600090a26001600160a01b03166000908152600160205260409020805460ff19169055565b600080546001600160a01b0316336001600160a01b0316146110bb57600080fd5b600b546040516370a0823160e01b81523060048201526000916001600160a01b0316906370a0823190602401602060405180830381865afa158015611104573d6000803e3d6000fd5b505050506040513d601f19601f8201168201806040525081019061112891906128df565b1161113257600080fd5b600b546040516370a0823160e01b81523060048201526000916001600160a01b0316906370a0823190602401602060405180830381865afa15801561117b573d6000803e3d6000fd5b505050506040513d601f19601f8201168201806040525081019061119f91906128df565b600b5460005460405163a9059cbb60e01b81526001600160a01b03918216600482015260248101849052929350169063a9059cbb906044015b6020604051808303816000875af11580156111f7573d6000803e3d6000fd5b505050506040513d601f19601f8201168201806040525081019061121b91906128f8565b50905090565b600080546001600160a01b0316336001600160a01b03161461124257600080fd5b50600b80546001600160a01b0383166001600160a01b03199091161790556001919050565b600d602052816000526040600020818154811061128357600080fd5b9060005260206000209060060201600091509150508060000180546112a790612915565b80601f01602080910402602001604051908101604052809291908181526020018280546112d390612915565b80156113205780601f106112f557610100808354040283529160200191611320565b820191906000526020600020905b81548152906001019060200180831161130357829003601f168201915b50505050509080600101805461133590612915565b80601f016020809104026020016040519081016040528092919081815260200182805461136190612915565b80156113ae5780601f10611383576101008083540402835291602001916113ae565b820191906000526020600020905b81548152906001019060200180831161139157829003601f168201915b5050506002840154600385015460048601546005909601549495919460ff8083169550610100909204821693501687565b601081815481106113ef57600080fd5b90600052602060002090600602016000915090508060000180546112a790612915565b6001600160a01b0381166000908152600d6020908152604080832080548251818502810185019093528083528493849084015b828210156115e457838290600052602060002090600602016040518060e001604052908160008201805461147890612915565b80601f01602080910402602001604051908101604052809291908181526020018280546114a490612915565b80156114f15780601f106114c6576101008083540402835291602001916114f1565b820191906000526020600020905b8154815290600101906020018083116114d457829003601f168201915b5050505050815260200160018201805461150a90612915565b80601f016020809104026020016040519081016040528092919081815260200182805461153690612915565b80156115835780601f1061155857610100808354040283529160200191611583565b820191906000526020600020905b81548152906001019060200180831161156657829003601f168201915b50505091835250506002820154602080830191909152600383015460ff8082161515604085015261010090910481161515606084015260048401546080840152600590930154909216151560a0909101529082526001929092019101611445565b5050915195945050505050565b600080546001600160a01b0316336001600160a01b03161461161257600080fd5b50600b80546001600160a01b0383166001600160a01b031991821681179092556003805490911690911790556001919050565b600060055442101561165657600080fd5b336000908152600c60209081526040808320815160a081018352815460ff16151581526001820154938101939093526002810154918301919091526003810154606083015260040154608082015260108054919291859081106116bb576116bb6128c9565b90600052602060002090600602016040518060e00160405290816000820180546116e490612915565b80601f016020809104026020016040519081016040528092919081815260200182805461171090612915565b801561175d5780601f106117325761010080835404028352916020019161175d565b820191906000526020600020905b81548152906001019060200180831161174057829003601f168201915b5050505050815260200160018201805461177690612915565b80601f01602080910402602001604051908101604052809291908181526020018280546117a290612915565b80156117ef5780601f106117c4576101008083540402835291602001916117ef565b820191906000526020600020905b8154815290600101906020018083116117d257829003601f168201915b505050918352505060028201546020820152600382015460ff80821615156040840152610100909104811615156060808401919091526004840154608084015260059093015416151560a09091015281015190915061185b5761185184611e0d565b1561185b57600080fd5b815161186657600080fd5b806080015161187d5760a081015161187d57600080fd5b6040810151600a546001600160a01b031663dd62ed3e336040516001600160e01b031960e084901b1681526001600160a01b039091166004820152306024820152604401602060405180830381865afa1580156118de573d6000803e3d6000fd5b505050506040513d601f19601f8201168201806040525081019061190291906128df565b101561190d57600080fd5b600a546004805460408481015181516323b872dd60e01b815233948101949094526001600160a01b0392831660248501526044840152519216916323b872dd9160648082019260209290919082900301816000875af1158015611974573d6000803e3d6000fd5b505050506040513d601f19601f8201168201806040525081019061199891906128f8565b6119a157600080fd5b80608001516119e5576001601085815481106119bf576119bf6128c9565b906000526020600020906006020160040160008282546119df9190612950565b90915550505b336000908152600d60209081526040822080546001810182559083529181902083518051859460060290920192611a21928492909101906123d4565b506020828101518051611a3a92600185019201906123d4565b5060408281015160028301556060830151600383018054608086015115156101000261ff00199315159390931661ffff199091161791909117905560a0830151600483015560c0909201516005909101805491151560ff1992909216919091179055810151601280546000906106eb9084906128b1565b600080546001600160a01b0316336001600160a01b031614611ad257600080fd5b600a546040516370a0823160e01b81523060048201526000916001600160a01b0316906370a0823190602401602060405180830381865afa158015611b1b573d6000803e3d6000fd5b505050506040513d601f19601f82011682018060405250810190611b3f91906128df565b11611b4957600080fd5b600a546040516370a0823160e01b81523060048201526000916001600160a01b0316906370a0823190602401602060405180830381865afa158015611b92573d6000803e3d6000fd5b505050506040513d601f19601f82011682018060405250810190611bb691906128df565b600a5460005460405163a9059cbb60e01b81526001600160a01b03918216600482015260248101849052929350169063a9059cbb906044016111d8565b6000546001600160a01b0316336001600160a01b031614611c1357600080fd5b6001600160a01b038116611c2657600080fd5b600080546040516001600160a01b03808516939216917f8be0079c531659141344cd1fd0a4f28419497f9722a3daafe3b4186f6b6457e091a3600080546001600160a01b0319166001600160a01b0392909216919091179055565b336000908152600c60205260408120805460ff16611c9e57600080fd5b600a5483906001600160a01b031663dd62ed3e336040516001600160e01b031960e084901b1681526001600160a01b039091166004820152306024820152604401602060405180830381865afa158015611cfc573d6000803e3d6000fd5b505050506040513d601f19601f82011682018060405250810190611d2091906128df565b1015611d2b57600080fd5b600a546001600160a01b03166323b872dd336040516001600160e01b031960e084901b1681526001600160a01b039091166004820152306024820152604481018690526064016020604051808303816000875af1158015611d90573d6000803e3d6000fd5b505050506040513d601f19601f82011682018060405250810190611db491906128f8565b611dbd57600080fd5b82816001016000828254611dd191906128b1565b925050819055508260126000828254610a9191906128b1565b600080611df783856128b1565b905083811015611e0657600080fd5b9392505050565b60008060108381548110611e2357611e236128c9565b90600052602060002090600602016040518060e0016040529081600082018054611e4c90612915565b80601f0160208091040260200160405190810160405280929190818152602001828054611e7890612915565b8015611ec55780601f10611e9a57610100808354040283529160200191611ec5565b820191906000526020600020905b815481529060010190602001808311611ea857829003601f168201915b50505050508152602001600182018054611ede90612915565b80601f0160208091040260200160405190810160405280929190818152602001828054611f0a90612915565b8015611f575780601f10611f2c57610100808354040283529160200191611f57565b820191906000526020600020905b815481529060010190602001808311611f3a57829003601f168201915b505050918352505060028201546020820152600382015460ff8082161515604084015261010090910481161515606083015260048301546080830152600590920154909116151560a09091015290506000600d81336001600160a01b03166001600160a01b03168152602001908152602001600020805480602002602001604051908101604052809291908181526020016000905b8282101561218b57838290600052602060002090600602016040518060e001604052908160008201805461201f90612915565b80601f016020809104026020016040519081016040528092919081815260200182805461204b90612915565b80156120985780601f1061206d57610100808354040283529160200191612098565b820191906000526020600020905b81548152906001019060200180831161207b57829003601f168201915b505050505081526020016001820180546120b190612915565b80601f01602080910402602001604051908101604052809291908181526020018280546120dd90612915565b801561212a5780601f106120ff5761010080835404028352916020019161212a565b820191906000526020600020905b81548152906001019060200180831161210d57829003601f168201915b50505091835250506002820154602080830191909152600383015460ff8082161515604085015261010090910481161515606084015260048401546080840152600590930154909216151560a0909101529082526001929092019101611fec565b5050505090506000805b82518110156123cb5783516040516121b09190602001612967565b604051602081830303815290604052805190602001208382815181106121d8576121d86128c9565b6020026020010151600001516040516020016121f49190612967565b60405160208183030381529060405280519060200120141561221957600191506123cb565b60208085015160405161222c9201612967565b60405160208183030381529060405280519060200120838281518110612254576122546128c9565b6020026020010151602001516040516020016122709190612967565b6040516020818303038152906040528051906020012014156123b9576000805b6011548110156123b657601181815481106122ad576122ad6128c9565b90600052602060002090600302016000016040516020016122ce9190612983565b604051602081830303815290604052805190602001208584815181106122f6576122f66128c9565b6020026020010151602001516040516020016123129190612967565b6040516020818303038152906040528051906020012014156123a4578161233881612a1f565b9250506011818154811061234e5761234e6128c9565b906000526020600020906003020160020154821015801561239657506011818154811061237d5761237d6128c9565b600091825260209091206001600390920201015460ff16155b156123a457600193506123b6565b806123ae81612a1f565b915050612290565b50505b806123c381612a1f565b915050612195565b50949350505050565b8280546123e090612915565b90600052602060002090601f0160209004810192826124025760008555612448565b82601f1061241b57805160ff1916838001178555612448565b82800160010185558215612448579182015b8281111561244857825182559160200191906001019061242d565b50612454929150612458565b5090565b5b808211156124545760008155600101612459565b634e487b7160e01b600052604160045260246000fd5b600082601f83011261249457600080fd5b813567ffffffffffffffff808211156124af576124af61246d565b604051601f8301601f19908116603f011681019082821181831017156124d7576124d761246d565b816040528381528660208588010111156124f057600080fd5b836020870160208301376000602085830101528094505050505092915050565b801515811461251e57600080fd5b50565b60008060006060848603121561253657600080fd5b833567ffffffffffffffff81111561254d57600080fd5b61255986828701612483565b935050602084013561256a81612510565b929592945050506040919091013590565b6001600160a01b038116811461251e57600080fd5b600080604083850312156125a357600080fd5b8235915060208301356125b58161257b565b809150509250929050565b600080600080608085870312156125d657600080fd5b84359350602085013567ffffffffffffffff8111156125f457600080fd5b61260087828801612483565b935050604085013561261181612510565b9396929550929360600135925050565b60006020828403121561263357600080fd5b5035919050565b60005b8381101561265557818101518382015260200161263d565b83811115612664576000848401525b50505050565b6000815180845261268281602086016020860161263a565b601f01601f19169290920160200192915050565b6060815260006126a9606083018661266a565b93151560208301525060400152919050565b60008060008060008060c087890312156126d457600080fd5b863567ffffffffffffffff808211156126ec57600080fd5b6126f88a838b01612483565b9750602089013591508082111561270e57600080fd5b5061271b89828a01612483565b95505060408701359350606087013561273381612510565b9250608087013561274381612510565b8092505060a087013590509295509295509295565b600080600080600080600060e0888a03121561277357600080fd5b87359650602088013567ffffffffffffffff8082111561279257600080fd5b61279e8b838c01612483565b975060408a01359150808211156127b457600080fd5b506127c18a828b01612483565b9550506060880135935060808801356127d981612510565b925060a08801356127e981612510565b8092505060c0880135905092959891949750929550565b60006020828403121561281257600080fd5b8135611e068161257b565b6000806040838503121561283057600080fd5b823561283b8161257b565b946020939093013593505050565b60e08152600061285c60e083018a61266a565b828103602084015261286e818a61266a565b604084019890985250509315156060850152911515608084015260a0830152151560c09091015292915050565b634e487b7160e01b600052601160045260246000fd5b600082198211156128c4576128c461289b565b500190565b634e487b7160e01b600052603260045260246000fd5b6000602082840312156128f157600080fd5b5051919050565b60006020828403121561290a57600080fd5b8151611e0681612510565b600181811c9082168061292957607f821691505b6020821081141561294a57634e487b7160e01b600052602260045260246000fd5b50919050565b6000828210156129625761296261289b565b500390565b6000825161297981846020870161263a565b9190910192915050565b600080835481600182811c91508083168061299f57607f831692505b60208084108214156129bf57634e487b7160e01b86526022600452602486fd5b8180156129d357600181146129e457612a11565b60ff19861689528489019650612a11565b60008a81526020902060005b86811015612a095781548b8201529085019083016129f0565b505084890196505b509498975050505050505050565b6000600019821415612a3357612a3361289b565b506001019056fea26469706673582212204f7dff0c5e1dc737f5d9a2e7370715d8701ebc5118c38608111a29031c3d9e7064736f6c634300080a0033",
    "sourcePath": "c:/Users/STC/Documents/GitHub/Solitare-Crypto/contracts/Market 2.0/Market-2.0.sol",
    "compiler": {
        "name": "solc",
        "version": "0.8.10+commit.fc410830"
    },
    "functionHashes": {
        "ChangePrincipalToken(address)": "cc360058",
        "ChangeTokenOTRO(address)": "96ba5363",
        "MAX_CSC()": "d47edbaa",
        "MIN_CSC()": "91eb34e0",
        "TIME_CLAIM()": "d60fd9b9",
        "addItem(string,string,uint256,bool,bool,uint256)": "36ec5fe4",
        "addOption(string,bool,uint256)": "00cffbcd",
        "admin(address)": "63a846f8",
        "adminWallet()": "36b19cd7",
        "asignarCoinsTo(uint256,address)": "571c94d7",
        "buyCoins(uint256)": "fe468196",
        "buyItem(uint256)": "e7fb74c7",
        "editItem(uint256,string,string,uint256,bool,bool,uint256)": "51e954f7",
        "editOption(uint256,string,bool,uint256)": "09650b8e",
        "gastarCoins(uint256)": "30dc1a29",
        "gastarCoinsfrom(uint256,address)": "035092d9",
        "idNfts(uint256)": "a750a026",
        "inventario(address,uint256)": "ab97fd60",
        "investors(address)": "6f7bc9be",
        "items(uint256)": "bfb231d2",
        "largoInventario(address)": "c991c474",
        "largoItems()": "238393e4",
        "largoOptions()": "dd62e6b3",
        "makeNewAdmin(address)": "69ed1e0a",
        "makeRemoveAdmin(address)": "70a0966b",
        "nfts(uint256)": "265aa621",
        "opciones(uint256)": "17262d8a",
        "owner()": "8da5cb5b",
        "redimETH()": "2e9928d3",
        "redimOTRO()": "8929cbc5",
        "redimTokenPrincipal01()": "eb5b455a",
        "redimTokenPrincipal02(uint256)": "1140e85b",
        "sellCoins(uint256)": "51a4cd73",
        "token()": "fc0c546a",
        "tokenTRC721()": "6d3ea6ce",
        "transferOwnership(address)": "f2fde38b",
        "ventaPublica()": "8792fa47"
    },
    "gasEstimates": {
        "creation": {
            "codeDepositCost": "2172800",
            "executionCost": "284642",
            "totalCost": "2457442"
        },
        "external": {
            "ChangePrincipalToken(address)": "51082",
            "ChangeTokenOTRO(address)": "26849",
            "MAX_CSC()": "2384",
            "MIN_CSC()": "2340",
            "TIME_CLAIM()": "2406",
            "addItem(string,string,uint256,bool,bool,uint256)": "infinite",
            "addOption(string,bool,uint256)": "infinite",
            "admin(address)": "2581",
            "adminWallet()": "2383",
            "asignarCoinsTo(uint256,address)": "29183",
            "buyCoins(uint256)": "infinite",
            "buyItem(uint256)": "infinite",
            "editItem(uint256,string,string,uint256,bool,bool,uint256)": "infinite",
            "editOption(uint256,string,bool,uint256)": "infinite",
            "gastarCoins(uint256)": "infinite",
            "gastarCoinsfrom(uint256,address)": "infinite",
            "idNfts(uint256)": "2566",
            "inventario(address,uint256)": "infinite",
            "investors(address)": "11205",
            "items(uint256)": "infinite",
            "largoInventario(address)": "infinite",
            "largoItems()": "2360",
            "largoOptions()": "2425",
            "makeNewAdmin(address)": "28065",
            "makeRemoveAdmin(address)": "28004",
            "nfts(uint256)": "2567",
            "opciones(uint256)": "infinite",
            "owner()": "2449",
            "redimETH()": "infinite",
            "redimOTRO()": "infinite",
            "redimTokenPrincipal01()": "infinite",
            "redimTokenPrincipal02(uint256)": "infinite",
            "sellCoins(uint256)": "infinite",
            "token()": "2447",
            "tokenTRC721()": "2448",
            "transferOwnership(address)": "30500",
            "ventaPublica()": "2363"
        },
        "internal": {
            "viewDuplicatedItem(uint256)": "infinite"
        }
    }
}