{
    "contractName": "MarketV2",
    "abi": [
        {
            "inputs": [],
            "stateMutability": "nonpayable",
            "type": "constructor"
        },
        {
            "anonymous": false,
            "inputs": [
                {
                    "indexed": true,
                    "internalType": "address",
                    "name": "admin",
                    "type": "address"
                }
            ],
            "name": "AdminRemoved",
            "type": "event"
        },
        {
            "anonymous": false,
            "inputs": [
                {
                    "indexed": true,
                    "internalType": "address",
                    "name": "admin",
                    "type": "address"
                }
            ],
            "name": "NewAdmin",
            "type": "event"
        },
        {
            "anonymous": false,
            "inputs": [
                {
                    "indexed": true,
                    "internalType": "address",
                    "name": "previousOwner",
                    "type": "address"
                },
                {
                    "indexed": true,
                    "internalType": "address",
                    "name": "newOwner",
                    "type": "address"
                }
            ],
            "name": "OwnershipTransferred",
            "type": "event"
        },
        {
            "inputs": [
                {
                    "internalType": "address",
                    "name": "_tokenERC20",
                    "type": "address"
                }
            ],
            "name": "ChangePrincipalToken",
            "outputs": [
                {
                    "internalType": "bool",
                    "name": "",
                    "type": "bool"
                }
            ],
            "stateMutability": "nonpayable",
            "type": "function"
        },
        {
            "inputs": [
                {
                    "internalType": "address",
                    "name": "_tokenERC20",
                    "type": "address"
                }
            ],
            "name": "ChangeTokenOTRO",
            "outputs": [
                {
                    "internalType": "bool",
                    "name": "",
                    "type": "bool"
                }
            ],
            "stateMutability": "nonpayable",
            "type": "function"
        },
        {
            "inputs": [],
            "name": "MAX_CSC",
            "outputs": [
                {
                    "internalType": "uint256",
                    "name": "",
                    "type": "uint256"
                }
            ],
            "stateMutability": "view",
            "type": "function"
        },
        {
            "inputs": [],
            "name": "MIN_CSC",
            "outputs": [
                {
                    "internalType": "uint256",
                    "name": "",
                    "type": "uint256"
                }
            ],
            "stateMutability": "view",
            "type": "function"
        },
        {
            "inputs": [],
            "name": "TIME_CLAIM",
            "outputs": [
                {
                    "internalType": "uint256",
                    "name": "",
                    "type": "uint256"
                }
            ],
            "stateMutability": "view",
            "type": "function"
        },
        {
            "inputs": [
                {
                    "internalType": "string",
                    "name": "_nombre",
                    "type": "string"
                },
                {
                    "internalType": "string",
                    "name": "_tipo",
                    "type": "string"
                },
                {
                    "internalType": "uint256",
                    "name": "_value",
                    "type": "uint256"
                },
                {
                    "internalType": "bool",
                    "name": "_acumulable",
                    "type": "bool"
                },
                {
                    "internalType": "bool",
                    "name": "_ilimitado",
                    "type": "bool"
                },
                {
                    "internalType": "uint256",
                    "name": "_cantidad",
                    "type": "uint256"
                }
            ],
            "name": "addItem",
            "outputs": [
                {
                    "internalType": "bool",
                    "name": "",
                    "type": "bool"
                }
            ],
            "stateMutability": "nonpayable",
            "type": "function"
        },
        {
            "inputs": [
                {
                    "internalType": "string",
                    "name": "_tipo",
                    "type": "string"
                },
                {
                    "internalType": "bool",
                    "name": "_ilimitado",
                    "type": "bool"
                },
                {
                    "internalType": "uint256",
                    "name": "_cantidad",
                    "type": "uint256"
                }
            ],
            "name": "addOption",
            "outputs": [
                {
                    "internalType": "bool",
                    "name": "",
                    "type": "bool"
                }
            ],
            "stateMutability": "nonpayable",
            "type": "function"
        },
        {
            "inputs": [
                {
                    "internalType": "address",
                    "name": "",
                    "type": "address"
                }
            ],
            "name": "admin",
            "outputs": [
                {
                    "internalType": "bool",
                    "name": "",
                    "type": "bool"
                }
            ],
            "stateMutability": "view",
            "type": "function"
        },
        {
            "inputs": [],
            "name": "adminWallet",
            "outputs": [
                {
                    "internalType": "address",
                    "name": "",
                    "type": "address"
                }
            ],
            "stateMutability": "view",
            "type": "function"
        },
        {
            "inputs": [
                {
                    "internalType": "uint256",
                    "name": "_value",
                    "type": "uint256"
                },
                {
                    "internalType": "address",
                    "name": "_user",
                    "type": "address"
                }
            ],
            "name": "asignarCoinsTo",
            "outputs": [
                {
                    "internalType": "bool",
                    "name": "",
                    "type": "bool"
                }
            ],
            "stateMutability": "nonpayable",
            "type": "function"
        },
        {
            "inputs": [
                {
                    "internalType": "uint256",
                    "name": "_value",
                    "type": "uint256"
                }
            ],
            "name": "buyCoins",
            "outputs": [
                {
                    "internalType": "bool",
                    "name": "",
                    "type": "bool"
                }
            ],
            "stateMutability": "nonpayable",
            "type": "function"
        },
        {
            "inputs": [
                {
                    "internalType": "uint256",
                    "name": "_id",
                    "type": "uint256"
                }
            ],
            "name": "buyItem",
            "outputs": [
                {
                    "internalType": "bool",
                    "name": "",
                    "type": "bool"
                }
            ],
            "stateMutability": "nonpayable",
            "type": "function"
        },
        {
            "inputs": [
                {
                    "internalType": "uint256",
                    "name": "_id",
                    "type": "uint256"
                },
                {
                    "internalType": "string",
                    "name": "_nombre",
                    "type": "string"
                },
                {
                    "internalType": "string",
                    "name": "_tipo",
                    "type": "string"
                },
                {
                    "internalType": "uint256",
                    "name": "_value",
                    "type": "uint256"
                },
                {
                    "internalType": "bool",
                    "name": "_acumulable",
                    "type": "bool"
                },
                {
                    "internalType": "bool",
                    "name": "_ilimitado",
                    "type": "bool"
                },
                {
                    "internalType": "uint256",
                    "name": "_cantidad",
                    "type": "uint256"
                }
            ],
            "name": "editItem",
            "outputs": [
                {
                    "internalType": "bool",
                    "name": "",
                    "type": "bool"
                }
            ],
            "stateMutability": "nonpayable",
            "type": "function"
        },
        {
            "inputs": [
                {
                    "internalType": "uint256",
                    "name": "_id",
                    "type": "uint256"
                },
                {
                    "internalType": "string",
                    "name": "_tipo",
                    "type": "string"
                },
                {
                    "internalType": "bool",
                    "name": "_ilimitado",
                    "type": "bool"
                },
                {
                    "internalType": "uint256",
                    "name": "_cantidad",
                    "type": "uint256"
                }
            ],
            "name": "editOption",
            "outputs": [
                {
                    "internalType": "bool",
                    "name": "",
                    "type": "bool"
                }
            ],
            "stateMutability": "nonpayable",
            "type": "function"
        },
        {
            "inputs": [
                {
                    "internalType": "uint256",
                    "name": "_value",
                    "type": "uint256"
                }
            ],
            "name": "gastarCoins",
            "outputs": [
                {
                    "internalType": "bool",
                    "name": "",
                    "type": "bool"
                }
            ],
            "stateMutability": "nonpayable",
            "type": "function"
        },
        {
            "inputs": [
                {
                    "internalType": "uint256",
                    "name": "_value",
                    "type": "uint256"
                },
                {
                    "internalType": "address",
                    "name": "_user",
                    "type": "address"
                }
            ],
            "name": "gastarCoinsfrom",
            "outputs": [
                {
                    "internalType": "bool",
                    "name": "",
                    "type": "bool"
                }
            ],
            "stateMutability": "nonpayable",
            "type": "function"
        },
        {
            "inputs": [
                {
                    "internalType": "uint256",
                    "name": "",
                    "type": "uint256"
                }
            ],
            "name": "idNfts",
            "outputs": [
                {
                    "internalType": "address",
                    "name": "",
                    "type": "address"
                }
            ],
            "stateMutability": "view",
            "type": "function"
        },
        {
            "inputs": [
                {
                    "internalType": "address",
                    "name": "",
                    "type": "address"
                },
                {
                    "internalType": "uint256",
                    "name": "",
                    "type": "uint256"
                }
            ],
            "name": "inventario",
            "outputs": [
                {
                    "internalType": "string",
                    "name": "nombre",
                    "type": "string"
                },
                {
                    "internalType": "string",
                    "name": "tipo",
                    "type": "string"
                },
                {
                    "internalType": "uint256",
                    "name": "valor",
                    "type": "uint256"
                },
                {
                    "internalType": "bool",
                    "name": "acumulable",
                    "type": "bool"
                },
                {
                    "internalType": "bool",
                    "name": "ilimitado",
                    "type": "bool"
                },
                {
                    "internalType": "uint256",
                    "name": "cantidad",
                    "type": "uint256"
                },
                {
                    "internalType": "bool",
                    "name": "stakear",
                    "type": "bool"
                }
            ],
            "stateMutability": "view",
            "type": "function"
        },
        {
            "inputs": [
                {
                    "internalType": "address",
                    "name": "",
                    "type": "address"
                }
            ],
            "name": "investors",
            "outputs": [
                {
                    "internalType": "bool",
                    "name": "baneado",
                    "type": "bool"
                },
                {
                    "internalType": "uint256",
                    "name": "balance",
                    "type": "uint256"
                },
                {
                    "internalType": "uint256",
                    "name": "gastado",
                    "type": "uint256"
                },
                {
                    "internalType": "uint256",
                    "name": "payAt",
                    "type": "uint256"
                },
                {
                    "internalType": "uint256",
                    "name": "almacen",
                    "type": "uint256"
                }
            ],
            "stateMutability": "view",
            "type": "function"
        },
        {
            "inputs": [
                {
                    "internalType": "uint256",
                    "name": "",
                    "type": "uint256"
                }
            ],
            "name": "items",
            "outputs": [
                {
                    "internalType": "string",
                    "name": "nombre",
                    "type": "string"
                },
                {
                    "internalType": "string",
                    "name": "tipo",
                    "type": "string"
                },
                {
                    "internalType": "uint256",
                    "name": "valor",
                    "type": "uint256"
                },
                {
                    "internalType": "bool",
                    "name": "acumulable",
                    "type": "bool"
                },
                {
                    "internalType": "bool",
                    "name": "ilimitado",
                    "type": "bool"
                },
                {
                    "internalType": "uint256",
                    "name": "cantidad",
                    "type": "uint256"
                },
                {
                    "internalType": "bool",
                    "name": "stakear",
                    "type": "bool"
                }
            ],
            "stateMutability": "view",
            "type": "function"
        },
        {
            "inputs": [
                {
                    "internalType": "address",
                    "name": "_user",
                    "type": "address"
                }
            ],
            "name": "largoInventario",
            "outputs": [
                {
                    "internalType": "uint256",
                    "name": "",
                    "type": "uint256"
                }
            ],
            "stateMutability": "view",
            "type": "function"
        },
        {
            "inputs": [],
            "name": "largoItems",
            "outputs": [
                {
                    "internalType": "uint256",
                    "name": "",
                    "type": "uint256"
                }
            ],
            "stateMutability": "view",
            "type": "function"
        },
        {
            "inputs": [],
            "name": "largoOptions",
            "outputs": [
                {
                    "internalType": "uint256",
                    "name": "",
                    "type": "uint256"
                }
            ],
            "stateMutability": "view",
            "type": "function"
        },
        {
            "inputs": [
                {
                    "internalType": "address payable",
                    "name": "_newadmin",
                    "type": "address"
                }
            ],
            "name": "makeNewAdmin",
            "outputs": [],
            "stateMutability": "nonpayable",
            "type": "function"
        },
        {
            "inputs": [
                {
                    "internalType": "address payable",
                    "name": "_oldadmin",
                    "type": "address"
                }
            ],
            "name": "makeRemoveAdmin",
            "outputs": [],
            "stateMutability": "nonpayable",
            "type": "function"
        },
        {
            "inputs": [
                {
                    "internalType": "uint256",
                    "name": "",
                    "type": "uint256"
                }
            ],
            "name": "nfts",
            "outputs": [
                {
                    "internalType": "address",
                    "name": "",
                    "type": "address"
                }
            ],
            "stateMutability": "view",
            "type": "function"
        },
        {
            "inputs": [
                {
                    "internalType": "uint256",
                    "name": "",
                    "type": "uint256"
                }
            ],
            "name": "opciones",
            "outputs": [
                {
                    "internalType": "string",
                    "name": "tipo",
                    "type": "string"
                },
                {
                    "internalType": "bool",
                    "name": "ilimitados",
                    "type": "bool"
                },
                {
                    "internalType": "uint256",
                    "name": "cantidad",
                    "type": "uint256"
                }
            ],
            "stateMutability": "view",
            "type": "function"
        },
        {
            "inputs": [],
            "name": "owner",
            "outputs": [
                {
                    "internalType": "address payable",
                    "name": "",
                    "type": "address"
                }
            ],
            "stateMutability": "view",
            "type": "function"
        },
        {
            "inputs": [],
            "name": "redimETH",
            "outputs": [
                {
                    "internalType": "uint256",
                    "name": "",
                    "type": "uint256"
                }
            ],
            "stateMutability": "nonpayable",
            "type": "function"
        },
        {
            "inputs": [],
            "name": "redimOTRO",
            "outputs": [
                {
                    "internalType": "uint256",
                    "name": "",
                    "type": "uint256"
                }
            ],
            "stateMutability": "nonpayable",
            "type": "function"
        },
        {
            "inputs": [],
            "name": "redimTokenPrincipal01",
            "outputs": [
                {
                    "internalType": "uint256",
                    "name": "",
                    "type": "uint256"
                }
            ],
            "stateMutability": "nonpayable",
            "type": "function"
        },
        {
            "inputs": [
                {
                    "internalType": "uint256",
                    "name": "_value",
                    "type": "uint256"
                }
            ],
            "name": "redimTokenPrincipal02",
            "outputs": [
                {
                    "internalType": "uint256",
                    "name": "",
                    "type": "uint256"
                }
            ],
            "stateMutability": "nonpayable",
            "type": "function"
        },
        {
            "inputs": [
                {
                    "internalType": "uint256",
                    "name": "_value",
                    "type": "uint256"
                }
            ],
            "name": "sellCoins",
            "outputs": [
                {
                    "internalType": "bool",
                    "name": "",
                    "type": "bool"
                }
            ],
            "stateMutability": "nonpayable",
            "type": "function"
        },
        {
            "inputs": [],
            "name": "token",
            "outputs": [
                {
                    "internalType": "address",
                    "name": "",
                    "type": "address"
                }
            ],
            "stateMutability": "view",
            "type": "function"
        },
        {
            "inputs": [],
            "name": "tokenTRC721",
            "outputs": [
                {
                    "internalType": "address",
                    "name": "",
                    "type": "address"
                }
            ],
            "stateMutability": "view",
            "type": "function"
        },
        {
            "inputs": [
                {
                    "internalType": "address payable",
                    "name": "newOwner",
                    "type": "address"
                }
            ],
            "name": "transferOwnership",
            "outputs": [],
            "stateMutability": "nonpayable",
            "type": "function"
        },
        {
            "inputs": [],
            "name": "ventaPublica",
            "outputs": [
                {
                    "internalType": "uint256",
                    "name": "",
                    "type": "uint256"
                }
            ],
            "stateMutability": "view",
            "type": "function"
        }
    ],
    "bytecode": "6080604052600280546001600160a01b031990811673f0fb4a5acf1b1126a991ee189408b112028d7a6390811790925560038054821683179055600480548216724769ef6aec57efbf56c24d0a04fe619fbb614317905563617972f7600555681b1ae4d6e2ef50000060065569021e19e0c9bab240000060075562093a8060085560098054821683179055600a8054821683179055600b805490911690911790553480156100ac57600080fd5b50600080546001600160a01b03191633908117825581526001602081905260408220805460ff1916909117905561292a9081906100e990396000f3fe608060405234801561001057600080fd5b50600436106102265760003560e01c806370a0966b11610130578063c991c474116100b8578063e7fb74c71161007c578063e7fb74c71461052a578063eb5b455a1461053d578063f2fde38b14610545578063fc0c546a14610558578063fe4681961461056b57600080fd5b8063c991c474146104ea578063cc360058146104fd578063d47edbaa14610510578063d60fd9b914610519578063dd62e6b31461052257600080fd5b806391eb34e0116100ff57806391eb34e01461046c57806396ba536314610475578063a750a02614610488578063ab97fd60146104b1578063bfb231d2146104d757600080fd5b806370a0966b146104355780638792fa47146104485780638929cbc5146104515780638da5cb5b1461045957600080fd5b806336b19cd7116101b3578063571c94d711610182578063571c94d71461036c57806363a846f81461037f57806369ed1e0a146103a25780636d3ea6ce146103b75780636f7bc9be146103ca57600080fd5b806336b19cd71461032057806336ec5fe41461033357806351a4cd731461034657806351e954f71461035957600080fd5b806317262d8a116101fa57806317262d8a1461029a578063238393e4146102bc578063265aa621146102c45780632e9928d31461030557806330dc1a291461030d57600080fd5b8062cffbcd1461022b578063035092d91461025357806309650b8e146102665780631140e85b14610279575b600080fd5b61023e6102393660046123db565b61057e565b60405190151581526020015b60405180910390f35b61023e61026136600461244a565b610638565b61023e61027436600461247a565b6106bc565b61028c6102873660046124db565b610767565b60405190815260200161024a565b6102ad6102a83660046124db565b61087f565b60405161024a93929190612550565b60105461028c565b6102ed6102d23660046124db565b600e602052600090815260409020546001600160a01b031681565b6040516001600160a01b03909116815260200161024a565b61028c610945565b61023e61031b3660046124db565b6109b4565b6004546102ed906001600160a01b031681565b61023e610341366004612575565b610a12565b61023e6103543660046124db565b610b3c565b61023e610367366004612612565b610ca9565b61023e61037a36600461244a565b610dc9565b61023e61038d3660046126ba565b60016020526000908152604090205460ff1681565b6103b56103b03660046126ba565b610e3e565b005b6002546102ed906001600160a01b031681565b61040b6103d83660046126ba565b600c602052600090815260409020805460018201546002830154600384015460049094015460ff90931693919290919085565b6040805195151586526020860194909452928401919091526060830152608082015260a00161024a565b6103b56104433660046126ba565b610ecc565b61028c60055481565b61028c610f54565b6000546102ed906001600160a01b031681565b61028c60065481565b61023e6104833660046126ba565b6110db565b6102ed6104963660046124db565b600f602052600090815260409020546001600160a01b031681565b6104c46104bf3660046126d7565b611121565b60405161024a9796959493929190612703565b6104c46104e53660046124db565b611299565b61028c6104f83660046126ba565b6112cc565b61023e61050b3660046126ba565b6114ab565b61028c60075481565b61028c60085481565b60115461028c565b61023e6105383660046124db565b6114ff565b61028c61196b565b6103b56105533660046126ba565b611aad565b6003546102ed906001600160a01b031681565b61023e6105793660046124db565b611b3b565b600080546001600160a01b0316336001600160a01b03161461059f57600080fd5b604080516060810182528581528415156020808301919091529181018490526011805460018101825560009190915281518051929360039092027f31ecc21a745e3968a04e9570e4425bc18fa8019c68028196b546d1669c200c680192610609928492019061228e565b5060208201516001828101805460ff191692151592909217909155604090920151600290910155949350505050565b3360009081526001602052604081205460ff1661065457600080fd5b6001600160a01b0382166000908152600c60205260409020805460ff1615801561068f57506001810154600282015461068d9086611ca4565b115b1561069957600080fd5b838160020160008282546106ad919061276b565b90915550600195945050505050565b600080546001600160a01b0316336001600160a01b0316146106dd57600080fd5b60405180606001604052808581526020018415158152602001838152506011868154811061070d5761070d612783565b9060005260206000209060030201600082015181600001908051906020019061073792919061228e565b5060208201516001828101805460ff19169215159290921790915560409092015160029091015595945050505050565b600080546001600160a01b0316336001600160a01b03161461078857600080fd5b600a546040516370a0823160e01b815230600482015283916001600160a01b0316906370a0823190602401602060405180830381865afa1580156107d0573d6000803e3d6000fd5b505050506040513d601f19601f820116820180604052508101906107f49190612799565b10156107ff57600080fd5b600a5460005460405163a9059cbb60e01b81526001600160a01b0391821660048201526024810185905291169063a9059cbb906044016020604051808303816000875af1158015610854573d6000803e3d6000fd5b505050506040513d601f19601f8201168201806040525081019061087891906127b2565b5090919050565b6011818154811061088f57600080fd5b90600052602060002090600302016000915090508060000180546108b2906127cf565b80601f01602080910402602001604051908101604052809291908181526020018280546108de906127cf565b801561092b5780601f106109005761010080835404028352916020019161092b565b820191906000526020600020905b81548152906001019060200180831161090e57829003601f168201915b505050506001830154600290930154919260ff1691905083565b600080546001600160a01b0316336001600160a01b03161461096657600080fd5b6000471161097357600080fd5b600080546040516001600160a01b03909116914780156108fc02929091818181858888f193505050501580156109ad573d6000803e3d6000fd5b5047905090565b336000908152600c60205260408120805460ff161580156109e65750600181015460028201546109e49085611ca4565b115b156109f057600080fd5b82816002016000828254610a04919061276b565b909155506001949350505050565b600080546001600160a01b0316336001600160a01b031614610a3357600080fd5b6040805160e08101825288815260208082018990529181018790528515156060820152841515608082015260a08101849052600060c0820181905260108054600181018255915281518051929360069092027f1b6847dc741a1b0cd08d278845f9d819d87b734759afb55fe2de5cb82a9ae6720192610ab5928492019061228e565b506020828101518051610ace926001850192019061228e565b50604082015160028201556060820151600382018054608085015115156101000261ff00199315159390931661ffff199091161791909117905560a0820151600482015560c0909101516005909101805491151560ff19929092169190911790555060019695505050505050565b336000908152600c60205260408120805460ff16610b5957600080fd5b8060010154838260020154610b6e919061276b565b1115610b7957600080fd5b600a546040516370a0823160e01b815230600482015284916001600160a01b0316906370a0823190602401602060405180830381865afa158015610bc1573d6000803e3d6000fd5b505050506040513d601f19601f82011682018060405250810190610be59190612799565b1015610bf057600080fd5b600a546001600160a01b031663a9059cbb336040516001600160e01b031960e084901b1681526001600160a01b039091166004820152602481018690526044016020604051808303816000875af1158015610c4f573d6000803e3d6000fd5b505050506040513d601f19601f82011682018060405250810190610c7391906127b2565b610c7c57600080fd5b82816002016000828254610c90919061276b565b925050819055508260136000828254610a04919061276b565b600080546001600160a01b0316336001600160a01b031614610cca57600080fd5b6040518060e00160405280888152602001878152602001868152602001851515815260200184151581526020018381526020016000151581525060108981548110610d1757610d17612783565b90600052602060002090600602016000820151816000019080519060200190610d4192919061228e565b506020828101518051610d5a926001850192019061228e565b50604082015160028201556060820151600382018054608085015115156101000261ff00199315159390931661ffff199091161791909117905560a0820151600482015560c0909101516005909101805491151560ff1992909216919091179055506001979650505050505050565b3360009081526001602052604081205460ff16610de557600080fd5b6001600160a01b0382166000908152600c60205260409020805460ff16158015610e20575060018101546002820154610e1e9086611ca4565b115b15610e2a57600080fd5b838160010160008282546106ad919061276b565b6000546001600160a01b0316336001600160a01b031614610e5e57600080fd5b6001600160a01b038116610e7157600080fd5b6040516001600160a01b038216907f71614071b88dee5e0b2ae578a9dd7b2ebbe9ae832ba419dc0242cd065a290b6c90600090a26001600160a01b03166000908152600160208190526040909120805460ff19169091179055565b6000546001600160a01b0316336001600160a01b031614610eec57600080fd5b6001600160a01b038116610eff57600080fd5b6040516001600160a01b038216907fa3b62bc36326052d97ea62d63c3d60308ed4c3ea8ac079dd8499f1e9c4f80c0f90600090a26001600160a01b03166000908152600160205260409020805460ff19169055565b600080546001600160a01b0316336001600160a01b031614610f7557600080fd5b600b546040516370a0823160e01b81523060048201526000916001600160a01b0316906370a0823190602401602060405180830381865afa158015610fbe573d6000803e3d6000fd5b505050506040513d601f19601f82011682018060405250810190610fe29190612799565b11610fec57600080fd5b600b546040516370a0823160e01b81523060048201526000916001600160a01b0316906370a0823190602401602060405180830381865afa158015611035573d6000803e3d6000fd5b505050506040513d601f19601f820116820180604052508101906110599190612799565b600b5460005460405163a9059cbb60e01b81526001600160a01b03918216600482015260248101849052929350169063a9059cbb906044015b6020604051808303816000875af11580156110b1573d6000803e3d6000fd5b505050506040513d601f19601f820116820180604052508101906110d591906127b2565b50905090565b600080546001600160a01b0316336001600160a01b0316146110fc57600080fd5b50600b80546001600160a01b0383166001600160a01b03199091161790556001919050565b600d602052816000526040600020818154811061113d57600080fd5b906000526020600020906006020160009150915050806000018054611161906127cf565b80601f016020809104026020016040519081016040528092919081815260200182805461118d906127cf565b80156111da5780601f106111af576101008083540402835291602001916111da565b820191906000526020600020905b8154815290600101906020018083116111bd57829003601f168201915b5050505050908060010180546111ef906127cf565b80601f016020809104026020016040519081016040528092919081815260200182805461121b906127cf565b80156112685780601f1061123d57610100808354040283529160200191611268565b820191906000526020600020905b81548152906001019060200180831161124b57829003601f168201915b5050506002840154600385015460048601546005909601549495919460ff8083169550610100909204821693501687565b601081815481106112a957600080fd5b9060005260206000209060060201600091509050806000018054611161906127cf565b6001600160a01b0381166000908152600d6020908152604080832080548251818502810185019093528083528493849084015b8282101561149e57838290600052602060002090600602016040518060e0016040529081600082018054611332906127cf565b80601f016020809104026020016040519081016040528092919081815260200182805461135e906127cf565b80156113ab5780601f10611380576101008083540402835291602001916113ab565b820191906000526020600020905b81548152906001019060200180831161138e57829003601f168201915b505050505081526020016001820180546113c4906127cf565b80601f01602080910402602001604051908101604052809291908181526020018280546113f0906127cf565b801561143d5780601f106114125761010080835404028352916020019161143d565b820191906000526020600020905b81548152906001019060200180831161142057829003601f168201915b50505091835250506002820154602080830191909152600383015460ff8082161515604085015261010090910481161515606084015260048401546080840152600590930154909216151560a09091015290825260019290920191016112ff565b5050915195945050505050565b600080546001600160a01b0316336001600160a01b0316146114cc57600080fd5b50600b80546001600160a01b0383166001600160a01b031991821681179092556003805490911690911790556001919050565b600060055442101561151057600080fd5b336000908152600c60209081526040808320815160a081018352815460ff161515815260018201549381019390935260028101549183019190915260038101546060830152600401546080820152601080549192918590811061157557611575612783565b90600052602060002090600602016040518060e001604052908160008201805461159e906127cf565b80601f01602080910402602001604051908101604052809291908181526020018280546115ca906127cf565b80156116175780601f106115ec57610100808354040283529160200191611617565b820191906000526020600020905b8154815290600101906020018083116115fa57829003601f168201915b50505050508152602001600182018054611630906127cf565b80601f016020809104026020016040519081016040528092919081815260200182805461165c906127cf565b80156116a95780601f1061167e576101008083540402835291602001916116a9565b820191906000526020600020905b81548152906001019060200180831161168c57829003601f168201915b505050918352505060028201546020820152600382015460ff80821615156040840152610100909104811615156060808401919091526004840154608084015260059093015416151560a0909101528101519091506117155761170b84611cc7565b1561171557600080fd5b815161172057600080fd5b80608001516117375760a081015161173757600080fd5b6040810151600a546001600160a01b031663dd62ed3e336040516001600160e01b031960e084901b1681526001600160a01b039091166004820152306024820152604401602060405180830381865afa158015611798573d6000803e3d6000fd5b505050506040513d601f19601f820116820180604052508101906117bc9190612799565b10156117c757600080fd5b600a546004805460408481015181516323b872dd60e01b815233948101949094526001600160a01b0392831660248501526044840152519216916323b872dd9160648082019260209290919082900301816000875af115801561182e573d6000803e3d6000fd5b505050506040513d601f19601f8201168201806040525081019061185291906127b2565b61185b57600080fd5b806080015161189f5760016010858154811061187957611879612783565b90600052602060002090600602016004016000828254611899919061280a565b90915550505b336000908152600d602090815260408220805460018101825590835291819020835180518594600602909201926118db9284929091019061228e565b5060208281015180516118f4926001850192019061228e565b5060408281015160028301556060830151600383018054608086015115156101000261ff00199315159390931661ffff199091161791909117905560a0830151600483015560c0909201516005909101805491151560ff1992909216919091179055810151601280546000906106ad90849061276b565b600080546001600160a01b0316336001600160a01b03161461198c57600080fd5b600a546040516370a0823160e01b81523060048201526000916001600160a01b0316906370a0823190602401602060405180830381865afa1580156119d5573d6000803e3d6000fd5b505050506040513d601f19601f820116820180604052508101906119f99190612799565b11611a0357600080fd5b600a546040516370a0823160e01b81523060048201526000916001600160a01b0316906370a0823190602401602060405180830381865afa158015611a4c573d6000803e3d6000fd5b505050506040513d601f19601f82011682018060405250810190611a709190612799565b600a5460005460405163a9059cbb60e01b81526001600160a01b03918216600482015260248101849052929350169063a9059cbb90604401611092565b6000546001600160a01b0316336001600160a01b031614611acd57600080fd5b6001600160a01b038116611ae057600080fd5b600080546040516001600160a01b03808516939216917f8be0079c531659141344cd1fd0a4f28419497f9722a3daafe3b4186f6b6457e091a3600080546001600160a01b0319166001600160a01b0392909216919091179055565b336000908152600c60205260408120805460ff16611b5857600080fd5b600a5483906001600160a01b031663dd62ed3e336040516001600160e01b031960e084901b1681526001600160a01b039091166004820152306024820152604401602060405180830381865afa158015611bb6573d6000803e3d6000fd5b505050506040513d601f19601f82011682018060405250810190611bda9190612799565b1015611be557600080fd5b600a546001600160a01b03166323b872dd336040516001600160e01b031960e084901b1681526001600160a01b039091166004820152306024820152604481018690526064016020604051808303816000875af1158015611c4a573d6000803e3d6000fd5b505050506040513d601f19601f82011682018060405250810190611c6e91906127b2565b611c7757600080fd5b82816001016000828254611c8b919061276b565b925050819055508260126000828254610a04919061276b565b600080611cb1838561276b565b905083811015611cc057600080fd5b9392505050565b60008060108381548110611cdd57611cdd612783565b90600052602060002090600602016040518060e0016040529081600082018054611d06906127cf565b80601f0160208091040260200160405190810160405280929190818152602001828054611d32906127cf565b8015611d7f5780601f10611d5457610100808354040283529160200191611d7f565b820191906000526020600020905b815481529060010190602001808311611d6257829003601f168201915b50505050508152602001600182018054611d98906127cf565b80601f0160208091040260200160405190810160405280929190818152602001828054611dc4906127cf565b8015611e115780601f10611de657610100808354040283529160200191611e11565b820191906000526020600020905b815481529060010190602001808311611df457829003601f168201915b505050918352505060028201546020820152600382015460ff8082161515604084015261010090910481161515606083015260048301546080830152600590920154909116151560a09091015290506000600d81336001600160a01b03166001600160a01b03168152602001908152602001600020805480602002602001604051908101604052809291908181526020016000905b8282101561204557838290600052602060002090600602016040518060e0016040529081600082018054611ed9906127cf565b80601f0160208091040260200160405190810160405280929190818152602001828054611f05906127cf565b8015611f525780601f10611f2757610100808354040283529160200191611f52565b820191906000526020600020905b815481529060010190602001808311611f3557829003601f168201915b50505050508152602001600182018054611f6b906127cf565b80601f0160208091040260200160405190810160405280929190818152602001828054611f97906127cf565b8015611fe45780601f10611fb957610100808354040283529160200191611fe4565b820191906000526020600020905b815481529060010190602001808311611fc757829003601f168201915b50505091835250506002820154602080830191909152600383015460ff8082161515604085015261010090910481161515606084015260048401546080840152600590930154909216151560a0909101529082526001929092019101611ea6565b5050505090506000805b825181101561228557835160405161206a9190602001612821565b6040516020818303038152906040528051906020012083828151811061209257612092612783565b6020026020010151600001516040516020016120ae9190612821565b6040516020818303038152906040528051906020012014156120d35760019150612285565b6020808501516040516120e69201612821565b6040516020818303038152906040528051906020012083828151811061210e5761210e612783565b60200260200101516020015160405160200161212a9190612821565b604051602081830303815290604052805190602001201415612273576000805b601154811015612270576011818154811061216757612167612783565b9060005260206000209060030201600001604051602001612188919061283d565b604051602081830303815290604052805190602001208584815181106121b0576121b0612783565b6020026020010151602001516040516020016121cc9190612821565b60405160208183030381529060405280519060200120141561225e57816121f2816128d9565b9250506011818154811061220857612208612783565b906000526020600020906003020160020154821015801561225057506011818154811061223757612237612783565b600091825260209091206001600390920201015460ff16155b1561225e5760019350612270565b80612268816128d9565b91505061214a565b50505b8061227d816128d9565b91505061204f565b50949350505050565b82805461229a906127cf565b90600052602060002090601f0160209004810192826122bc5760008555612302565b82601f106122d557805160ff1916838001178555612302565b82800160010185558215612302579182015b828111156123025782518255916020019190600101906122e7565b5061230e929150612312565b5090565b5b8082111561230e5760008155600101612313565b634e487b7160e01b600052604160045260246000fd5b600082601f83011261234e57600080fd5b813567ffffffffffffffff8082111561236957612369612327565b604051601f8301601f19908116603f0116810190828211818310171561239157612391612327565b816040528381528660208588010111156123aa57600080fd5b836020870160208301376000602085830101528094505050505092915050565b80151581146123d857600080fd5b50565b6000806000606084860312156123f057600080fd5b833567ffffffffffffffff81111561240757600080fd5b6124138682870161233d565b9350506020840135612424816123ca565b929592945050506040919091013590565b6001600160a01b03811681146123d857600080fd5b6000806040838503121561245d57600080fd5b82359150602083013561246f81612435565b809150509250929050565b6000806000806080858703121561249057600080fd5b84359350602085013567ffffffffffffffff8111156124ae57600080fd5b6124ba8782880161233d565b93505060408501356124cb816123ca565b9396929550929360600135925050565b6000602082840312156124ed57600080fd5b5035919050565b60005b8381101561250f5781810151838201526020016124f7565b8381111561251e576000848401525b50505050565b6000815180845261253c8160208601602086016124f4565b601f01601f19169290920160200192915050565b6060815260006125636060830186612524565b93151560208301525060400152919050565b60008060008060008060c0878903121561258e57600080fd5b863567ffffffffffffffff808211156125a657600080fd5b6125b28a838b0161233d565b975060208901359150808211156125c857600080fd5b506125d589828a0161233d565b9550506040870135935060608701356125ed816123ca565b925060808701356125fd816123ca565b8092505060a087013590509295509295509295565b600080600080600080600060e0888a03121561262d57600080fd5b87359650602088013567ffffffffffffffff8082111561264c57600080fd5b6126588b838c0161233d565b975060408a013591508082111561266e57600080fd5b5061267b8a828b0161233d565b955050606088013593506080880135612693816123ca565b925060a08801356126a3816123ca565b8092505060c0880135905092959891949750929550565b6000602082840312156126cc57600080fd5b8135611cc081612435565b600080604083850312156126ea57600080fd5b82356126f581612435565b946020939093013593505050565b60e08152600061271660e083018a612524565b8281036020840152612728818a612524565b604084019890985250509315156060850152911515608084015260a0830152151560c09091015292915050565b634e487b7160e01b600052601160045260246000fd5b6000821982111561277e5761277e612755565b500190565b634e487b7160e01b600052603260045260246000fd5b6000602082840312156127ab57600080fd5b5051919050565b6000602082840312156127c457600080fd5b8151611cc0816123ca565b600181811c908216806127e357607f821691505b6020821081141561280457634e487b7160e01b600052602260045260246000fd5b50919050565b60008282101561281c5761281c612755565b500390565b600082516128338184602087016124f4565b9190910192915050565b600080835481600182811c91508083168061285957607f831692505b602080841082141561287957634e487b7160e01b86526022600452602486fd5b81801561288d576001811461289e576128cb565b60ff198616895284890196506128cb565b60008a81526020902060005b868110156128c35781548b8201529085019083016128aa565b505084890196505b509498975050505050505050565b60006000198214156128ed576128ed612755565b506001019056fea26469706673582212206c3f29122116d90c92e2e6e0c3386f49bc8440909768e3513928b271286fe23764736f6c634300080a0033",
    "sourcePath": "c:/Users/STC/Documents/GitHub/Solitare-Crypto/contracts/Market 2.0/Market-2.0.sol",
    "compiler": {
        "name": "solc",
        "version": "0.8.10+commit.fc410830"
    },
    "functionHashes": {
        "ChangePrincipalToken(address)": "cc360058",
        "ChangeTokenOTRO(address)": "96ba5363",
        "MAX_CSC()": "d47edbaa",
        "MIN_CSC()": "91eb34e0",
        "TIME_CLAIM()": "d60fd9b9",
        "addItem(string,string,uint256,bool,bool,uint256)": "36ec5fe4",
        "addOption(string,bool,uint256)": "00cffbcd",
        "admin(address)": "63a846f8",
        "adminWallet()": "36b19cd7",
        "asignarCoinsTo(uint256,address)": "571c94d7",
        "buyCoins(uint256)": "fe468196",
        "buyItem(uint256)": "e7fb74c7",
        "editItem(uint256,string,string,uint256,bool,bool,uint256)": "51e954f7",
        "editOption(uint256,string,bool,uint256)": "09650b8e",
        "gastarCoins(uint256)": "30dc1a29",
        "gastarCoinsfrom(uint256,address)": "035092d9",
        "idNfts(uint256)": "a750a026",
        "inventario(address,uint256)": "ab97fd60",
        "investors(address)": "6f7bc9be",
        "items(uint256)": "bfb231d2",
        "largoInventario(address)": "c991c474",
        "largoItems()": "238393e4",
        "largoOptions()": "dd62e6b3",
        "makeNewAdmin(address)": "69ed1e0a",
        "makeRemoveAdmin(address)": "70a0966b",
        "nfts(uint256)": "265aa621",
        "opciones(uint256)": "17262d8a",
        "owner()": "8da5cb5b",
        "redimETH()": "2e9928d3",
        "redimOTRO()": "8929cbc5",
        "redimTokenPrincipal01()": "eb5b455a",
        "redimTokenPrincipal02(uint256)": "1140e85b",
        "sellCoins(uint256)": "51a4cd73",
        "token()": "fc0c546a",
        "tokenTRC721()": "6d3ea6ce",
        "transferOwnership(address)": "f2fde38b",
        "ventaPublica()": "8792fa47"
    },
    "gasEstimates": {
        "creation": {
            "codeDepositCost": "2107600",
            "executionCost": "284569",
            "totalCost": "2392169"
        },
        "external": {
            "ChangePrincipalToken(address)": "51082",
            "ChangeTokenOTRO(address)": "26849",
            "MAX_CSC()": "2384",
            "MIN_CSC()": "2340",
            "TIME_CLAIM()": "2406",
            "addItem(string,string,uint256,bool,bool,uint256)": "infinite",
            "addOption(string,bool,uint256)": "infinite",
            "admin(address)": "2581",
            "adminWallet()": "2383",
            "asignarCoinsTo(uint256,address)": "infinite",
            "buyCoins(uint256)": "infinite",
            "buyItem(uint256)": "infinite",
            "editItem(uint256,string,string,uint256,bool,bool,uint256)": "infinite",
            "editOption(uint256,string,bool,uint256)": "infinite",
            "gastarCoins(uint256)": "infinite",
            "gastarCoinsfrom(uint256,address)": "infinite",
            "idNfts(uint256)": "2566",
            "inventario(address,uint256)": "infinite",
            "investors(address)": "11205",
            "items(uint256)": "infinite",
            "largoInventario(address)": "infinite",
            "largoItems()": "2360",
            "largoOptions()": "2425",
            "makeNewAdmin(address)": "28065",
            "makeRemoveAdmin(address)": "28004",
            "nfts(uint256)": "2567",
            "opciones(uint256)": "infinite",
            "owner()": "2449",
            "redimETH()": "infinite",
            "redimOTRO()": "infinite",
            "redimTokenPrincipal01()": "infinite",
            "redimTokenPrincipal02(uint256)": "infinite",
            "sellCoins(uint256)": "infinite",
            "token()": "2447",
            "tokenTRC721()": "2448",
            "transferOwnership(address)": "30500",
            "ventaPublica()": "2363"
        },
        "internal": {
            "viewDuplicatedItem(uint256)": "infinite"
        }
    }
}