{
    "contractName": "MarketV2",
    "abi": [
        {
            "inputs": [],
            "stateMutability": "nonpayable",
            "type": "constructor"
        },
        {
            "anonymous": false,
            "inputs": [
                {
                    "indexed": true,
                    "internalType": "address",
                    "name": "admin",
                    "type": "address"
                }
            ],
            "name": "AdminRemoved",
            "type": "event"
        },
        {
            "anonymous": false,
            "inputs": [
                {
                    "indexed": true,
                    "internalType": "address",
                    "name": "admin",
                    "type": "address"
                }
            ],
            "name": "NewAdmin",
            "type": "event"
        },
        {
            "anonymous": false,
            "inputs": [
                {
                    "indexed": true,
                    "internalType": "address",
                    "name": "previousOwner",
                    "type": "address"
                },
                {
                    "indexed": true,
                    "internalType": "address",
                    "name": "newOwner",
                    "type": "address"
                }
            ],
            "name": "OwnershipTransferred",
            "type": "event"
        },
        {
            "inputs": [
                {
                    "internalType": "address",
                    "name": "_tokenERC20",
                    "type": "address"
                }
            ],
            "name": "ChangeTokenOTRO",
            "outputs": [
                {
                    "internalType": "bool",
                    "name": "",
                    "type": "bool"
                }
            ],
            "stateMutability": "nonpayable",
            "type": "function"
        },
        {
            "inputs": [],
            "name": "MAX_BNB",
            "outputs": [
                {
                    "internalType": "uint256",
                    "name": "",
                    "type": "uint256"
                }
            ],
            "stateMutability": "view",
            "type": "function"
        },
        {
            "inputs": [
                {
                    "internalType": "address",
                    "name": "_user",
                    "type": "address"
                },
                {
                    "internalType": "uint256",
                    "name": "_carta",
                    "type": "uint256"
                }
            ],
            "name": "NoStakingCard",
            "outputs": [
                {
                    "internalType": "bool",
                    "name": "",
                    "type": "bool"
                }
            ],
            "stateMutability": "nonpayable",
            "type": "function"
        },
        {
            "inputs": [],
            "name": "TIME_CLAIM",
            "outputs": [
                {
                    "internalType": "uint256",
                    "name": "",
                    "type": "uint256"
                }
            ],
            "stateMutability": "view",
            "type": "function"
        },
        {
            "inputs": [
                {
                    "internalType": "address payable",
                    "name": "_adminWallet",
                    "type": "address"
                }
            ],
            "name": "UpdateDEVSWallet",
            "outputs": [
                {
                    "internalType": "bool",
                    "name": "",
                    "type": "bool"
                }
            ],
            "stateMutability": "nonpayable",
            "type": "function"
        },
        {
            "inputs": [
                {
                    "internalType": "address payable",
                    "name": "_stakingContract",
                    "type": "address"
                }
            ],
            "name": "UpdateStakingContract",
            "outputs": [
                {
                    "internalType": "bool",
                    "name": "",
                    "type": "bool"
                }
            ],
            "stateMutability": "nonpayable",
            "type": "function"
        },
        {
            "inputs": [
                {
                    "internalType": "address",
                    "name": "_user",
                    "type": "address"
                },
                {
                    "internalType": "uint256",
                    "name": "_id",
                    "type": "uint256"
                },
                {
                    "internalType": "string",
                    "name": "_nombre",
                    "type": "string"
                },
                {
                    "internalType": "uint256",
                    "name": "_value",
                    "type": "uint256"
                },
                {
                    "internalType": "bool",
                    "name": "_stakear",
                    "type": "bool"
                }
            ],
            "name": "actualizarItem",
            "outputs": [
                {
                    "internalType": "bool",
                    "name": "",
                    "type": "bool"
                }
            ],
            "stateMutability": "nonpayable",
            "type": "function"
        },
        {
            "inputs": [
                {
                    "internalType": "string",
                    "name": "_nombre",
                    "type": "string"
                },
                {
                    "internalType": "uint256",
                    "name": "_value",
                    "type": "uint256"
                },
                {
                    "internalType": "bool",
                    "name": "_stakear",
                    "type": "bool"
                }
            ],
            "name": "addItem",
            "outputs": [
                {
                    "internalType": "bool",
                    "name": "",
                    "type": "bool"
                }
            ],
            "stateMutability": "nonpayable",
            "type": "function"
        },
        {
            "inputs": [
                {
                    "internalType": "address",
                    "name": "",
                    "type": "address"
                }
            ],
            "name": "admin",
            "outputs": [
                {
                    "internalType": "bool",
                    "name": "",
                    "type": "bool"
                }
            ],
            "stateMutability": "view",
            "type": "function"
        },
        {
            "inputs": [],
            "name": "adminWallet",
            "outputs": [
                {
                    "internalType": "address payable",
                    "name": "",
                    "type": "address"
                }
            ],
            "stateMutability": "view",
            "type": "function"
        },
        {
            "inputs": [
                {
                    "internalType": "uint256",
                    "name": "_value",
                    "type": "uint256"
                },
                {
                    "internalType": "address",
                    "name": "_user",
                    "type": "address"
                }
            ],
            "name": "asignarCoinsTo",
            "outputs": [
                {
                    "internalType": "bool",
                    "name": "",
                    "type": "bool"
                }
            ],
            "stateMutability": "nonpayable",
            "type": "function"
        },
        {
            "inputs": [],
            "name": "buyCoins",
            "outputs": [
                {
                    "internalType": "bool",
                    "name": "",
                    "type": "bool"
                }
            ],
            "stateMutability": "payable",
            "type": "function"
        },
        {
            "inputs": [
                {
                    "internalType": "uint256",
                    "name": "_id",
                    "type": "uint256"
                },
                {
                    "internalType": "address",
                    "name": "_upline",
                    "type": "address"
                }
            ],
            "name": "buyItem",
            "outputs": [
                {
                    "internalType": "bool",
                    "name": "",
                    "type": "bool"
                }
            ],
            "stateMutability": "payable",
            "type": "function"
        },
        {
            "inputs": [
                {
                    "internalType": "address",
                    "name": "_user",
                    "type": "address"
                },
                {
                    "internalType": "uint256",
                    "name": "_carta",
                    "type": "uint256"
                }
            ],
            "name": "consultarCarta",
            "outputs": [
                {
                    "internalType": "uint256",
                    "name": "",
                    "type": "uint256"
                }
            ],
            "stateMutability": "view",
            "type": "function"
        },
        {
            "inputs": [
                {
                    "internalType": "uint256",
                    "name": "_id",
                    "type": "uint256"
                },
                {
                    "internalType": "string",
                    "name": "_nombre",
                    "type": "string"
                },
                {
                    "internalType": "uint256",
                    "name": "_value",
                    "type": "uint256"
                },
                {
                    "internalType": "bool",
                    "name": "_stakear",
                    "type": "bool"
                }
            ],
            "name": "editItem",
            "outputs": [
                {
                    "internalType": "bool",
                    "name": "",
                    "type": "bool"
                }
            ],
            "stateMutability": "nonpayable",
            "type": "function"
        },
        {
            "inputs": [
                {
                    "internalType": "uint256",
                    "name": "_value",
                    "type": "uint256"
                },
                {
                    "internalType": "address",
                    "name": "_user",
                    "type": "address"
                }
            ],
            "name": "gastarCoinsfrom",
            "outputs": [
                {
                    "internalType": "bool",
                    "name": "",
                    "type": "bool"
                }
            ],
            "stateMutability": "nonpayable",
            "type": "function"
        },
        {
            "inputs": [
                {
                    "internalType": "address",
                    "name": "",
                    "type": "address"
                },
                {
                    "internalType": "uint256",
                    "name": "",
                    "type": "uint256"
                }
            ],
            "name": "inventario",
            "outputs": [
                {
                    "internalType": "string",
                    "name": "nombre",
                    "type": "string"
                },
                {
                    "internalType": "uint256",
                    "name": "valor",
                    "type": "uint256"
                },
                {
                    "internalType": "bool",
                    "name": "stakear",
                    "type": "bool"
                }
            ],
            "stateMutability": "view",
            "type": "function"
        },
        {
            "inputs": [
                {
                    "internalType": "address",
                    "name": "",
                    "type": "address"
                }
            ],
            "name": "investors",
            "outputs": [
                {
                    "internalType": "bool",
                    "name": "baneado",
                    "type": "bool"
                },
                {
                    "internalType": "uint256",
                    "name": "balance",
                    "type": "uint256"
                },
                {
                    "internalType": "uint256",
                    "name": "payAt",
                    "type": "uint256"
                }
            ],
            "stateMutability": "view",
            "type": "function"
        },
        {
            "inputs": [
                {
                    "internalType": "uint256",
                    "name": "",
                    "type": "uint256"
                }
            ],
            "name": "items",
            "outputs": [
                {
                    "internalType": "string",
                    "name": "nombre",
                    "type": "string"
                },
                {
                    "internalType": "uint256",
                    "name": "valor",
                    "type": "uint256"
                },
                {
                    "internalType": "bool",
                    "name": "stakear",
                    "type": "bool"
                }
            ],
            "stateMutability": "view",
            "type": "function"
        },
        {
            "inputs": [
                {
                    "internalType": "address",
                    "name": "_user",
                    "type": "address"
                }
            ],
            "name": "largoInventario",
            "outputs": [
                {
                    "internalType": "uint256",
                    "name": "",
                    "type": "uint256"
                }
            ],
            "stateMutability": "view",
            "type": "function"
        },
        {
            "inputs": [],
            "name": "largoItems",
            "outputs": [
                {
                    "internalType": "uint256",
                    "name": "",
                    "type": "uint256"
                }
            ],
            "stateMutability": "view",
            "type": "function"
        },
        {
            "inputs": [
                {
                    "internalType": "address payable",
                    "name": "_newadmin",
                    "type": "address"
                }
            ],
            "name": "makeNewAdmin",
            "outputs": [],
            "stateMutability": "nonpayable",
            "type": "function"
        },
        {
            "inputs": [
                {
                    "internalType": "address payable",
                    "name": "_oldadmin",
                    "type": "address"
                }
            ],
            "name": "makeRemoveAdmin",
            "outputs": [],
            "stateMutability": "nonpayable",
            "type": "function"
        },
        {
            "inputs": [
                {
                    "internalType": "uint256",
                    "name": "",
                    "type": "uint256"
                }
            ],
            "name": "niveles",
            "outputs": [
                {
                    "internalType": "uint256",
                    "name": "",
                    "type": "uint256"
                }
            ],
            "stateMutability": "view",
            "type": "function"
        },
        {
            "inputs": [],
            "name": "owner",
            "outputs": [
                {
                    "internalType": "address payable",
                    "name": "",
                    "type": "address"
                }
            ],
            "stateMutability": "view",
            "type": "function"
        },
        {
            "inputs": [],
            "name": "redimETH",
            "outputs": [
                {
                    "internalType": "bool",
                    "name": "",
                    "type": "bool"
                }
            ],
            "stateMutability": "nonpayable",
            "type": "function"
        },
        {
            "inputs": [],
            "name": "redimOTRO",
            "outputs": [
                {
                    "internalType": "uint256",
                    "name": "",
                    "type": "uint256"
                }
            ],
            "stateMutability": "nonpayable",
            "type": "function"
        },
        {
            "inputs": [
                {
                    "internalType": "uint256",
                    "name": "_value",
                    "type": "uint256"
                }
            ],
            "name": "sellCoins",
            "outputs": [
                {
                    "internalType": "bool",
                    "name": "",
                    "type": "bool"
                }
            ],
            "stateMutability": "nonpayable",
            "type": "function"
        },
        {
            "inputs": [],
            "name": "stakingContract",
            "outputs": [
                {
                    "internalType": "address payable",
                    "name": "",
                    "type": "address"
                }
            ],
            "stateMutability": "view",
            "type": "function"
        },
        {
            "inputs": [
                {
                    "internalType": "address payable",
                    "name": "newOwner",
                    "type": "address"
                }
            ],
            "name": "transferOwnership",
            "outputs": [],
            "stateMutability": "nonpayable",
            "type": "function"
        },
        {
            "inputs": [
                {
                    "internalType": "address",
                    "name": "",
                    "type": "address"
                }
            ],
            "name": "upline",
            "outputs": [
                {
                    "internalType": "address",
                    "name": "",
                    "type": "address"
                }
            ],
            "stateMutability": "view",
            "type": "function"
        },
        {
            "inputs": [
                {
                    "internalType": "address",
                    "name": "_user",
                    "type": "address"
                },
                {
                    "internalType": "bool",
                    "name": "_ban",
                    "type": "bool"
                }
            ],
            "name": "userBan",
            "outputs": [
                {
                    "internalType": "bool",
                    "name": "isBaned",
                    "type": "bool"
                }
            ],
            "stateMutability": "nonpayable",
            "type": "function"
        },
        {
            "inputs": [],
            "name": "ventaPublica",
            "outputs": [
                {
                    "internalType": "uint256",
                    "name": "",
                    "type": "uint256"
                }
            ],
            "stateMutability": "view",
            "type": "function"
        },
        {
            "inputs": [
                {
                    "internalType": "address",
                    "name": "_user",
                    "type": "address"
                }
            ],
            "name": "verInventario",
            "outputs": [
                {
                    "components": [
                        {
                            "internalType": "string",
                            "name": "nombre",
                            "type": "string"
                        },
                        {
                            "internalType": "uint256",
                            "name": "valor",
                            "type": "uint256"
                        },
                        {
                            "internalType": "bool",
                            "name": "stakear",
                            "type": "bool"
                        }
                    ],
                    "internalType": "struct MarketV2.Item[]",
                    "name": "invent",
                    "type": "tuple[]"
                }
            ],
            "stateMutability": "view",
            "type": "function"
        }
    ],
    "bytecode": "600280547311134bd1dd0219eb9b4ab931c508834ea29c0f8d6001600160a01b031991821681178355600380549092161781556362422bc5600455670de0b6b3a76400006005556201518060065560e0604052608081815260a092909252600160c0526200007091600791620000b2565b503480156200007e57600080fd5b50600080546001600160a01b0319163390811782558152600160208190526040909120805460ff191690911790556200011e565b828054828255906000526020600020908101928215620000f5579160200282015b82811115620000f5578251829060ff16905591602001919060010190620000d3565b506200010392915062000107565b5090565b5b8082111562000103576000815560010162000108565b612283806200012e6000396000f3fe6080604052600436106101f95760003560e01c806382655d061161010d5780639a777d5d116100a0578063c29caa331161006f578063c29caa331461060a578063c991c47414610620578063d60fd9b914610640578063ee99205c14610656578063f2fde38b1461067657600080fd5b80639a777d5d14610586578063aaa272a61461058e578063ab97fd60146105bb578063bfb231d2146105ea57600080fd5b80638da5cb5b116100dc5780638da5cb5b14610506578063910746581461052657806396ba536314610546578063983358941461056657600080fd5b806382655d061461049b578063875ede14146104bb5780638792fa47146104db5780638929cbc5146104f157600080fd5b8063571c94d7116101905780636aae4a0e1161015f5780636aae4a0e146103cb5780636f7bc9be146103eb57806370a0966b146104485780637383d70914610468578063761cd6211461047b57600080fd5b8063571c94d71461033957806363a846f814610359578063667682ec1461038957806369ed1e0a146103a957600080fd5b80632e9928d3116101cc5780632e9928d3146102c4578063303f3790146102d957806336b19cd7146102f957806351a4cd731461031957600080fd5b8063035092d9146101fe5780630e3bd352146102335780631f3d4cde14610281578063238393e4146102af575b600080fd5b34801561020a57600080fd5b5061021e610219366004611d84565b610696565b60405190151581526020015b60405180910390f35b34801561023f57600080fd5b5061026961024e366004611db4565b6009602052600090815260409020546001600160a01b031681565b6040516001600160a01b03909116815260200161022a565b34801561028d57600080fd5b506102a161029c366004611dd1565b61075e565b60405190815260200161022a565b3480156102bb57600080fd5b50600c546102a1565b3480156102d057600080fd5b5061021e6108d1565b3480156102e557600080fd5b5061021e6102f4366004611e0b565b61092c565b34801561030557600080fd5b50600254610269906001600160a01b031681565b34801561032557600080fd5b5061021e610334366004611e39565b610972565b34801561034557600080fd5b5061021e610354366004611d84565b610b48565b34801561036557600080fd5b5061021e610374366004611db4565b60016020526000908152604090205460ff1681565b34801561039557600080fd5b5061021e6103a4366004611db4565b610c00565b3480156103b557600080fd5b506103c96103c4366004611db4565b610c5f565b005b3480156103d757600080fd5b5061021e6103e6366004611ef5565b610ced565b3480156103f757600080fd5b5061042b610406366004611db4565b600a6020526000908152604090208054600182015460029092015460ff909116919083565b60408051931515845260208401929092529082015260600161022a565b34801561045457600080fd5b506103c9610463366004611db4565b610d9a565b61021e610476366004611d84565b610e22565b34801561048757600080fd5b5061021e610496366004611f58565b611204565b3480156104a757600080fd5b5061021e6104b6366004611fd0565b6112d6565b3480156104c757600080fd5b5061021e6104d6366004611dd1565b611392565b3480156104e757600080fd5b506102a160045481565b3480156104fd57600080fd5b506102a1611445565b34801561051257600080fd5b50600054610269906001600160a01b031681565b34801561053257600080fd5b5061021e610541366004611db4565b6115cb565b34801561055257600080fd5b5061021e610561366004611db4565b611618565b34801561057257600080fd5b506102a1610581366004611e39565b61165e565b61021e61167f565b34801561059a57600080fd5b506105ae6105a9366004611db4565b61178c565b60405161022a9190612078565b3480156105c757600080fd5b506105db6105d6366004611dd1565b6118b2565b60405161022a939291906120fb565b3480156105f657600080fd5b506105db610605366004611e39565b611985565b34801561061657600080fd5b506102a160055481565b34801561062c57600080fd5b506102a161063b366004611db4565b6119b8565b34801561064c57600080fd5b506102a160065481565b34801561066257600080fd5b50600354610269906001600160a01b031681565b34801561068257600080fd5b506103c9610691366004611db4565b611adb565b3360009081526001602052604081205460ff166106b257600080fd5b6001600160a01b0382166000908152600a60205260409020805460ff16806106dd5750806001015484115b156107395760405162461bcd60e51b815260206004820152602160248201527f6572726f723a20676173746172206d6173206465206c6f20717565207469656e6044820152606560f81b60648201526084015b60405180910390fd5b8381600101600082825461074d919061213b565b909155506001925050505b92915050565b6001600160a01b0382166000908152600b6020908152604080832080548251818502810185019093528083528493849084015b8282101561087457838290600052602060002090600302016040518060600160405290816000820180546107c490612152565b80601f01602080910402602001604051908101604052809291908181526020018280546107f090612152565b801561083d5780601f106108125761010080835404028352916020019161083d565b820191906000526020600020905b81548152906001019060200180831161082057829003601f168201915b505050918352505060018281015460208084019190915260029093015460ff16151560409092019190915291835292019101610791565b50505050905080838151811061088c5761088c61218d565b602002602001015160400151151560011515146108aa5760006108c9565b8083815181106108bc576108bc61218d565b6020026020010151602001515b949350505050565b600080546001600160a01b0316336001600160a01b0316146108f257600080fd5b600047116108ff57600080fd5b600080546040516001600160a01b03909116914780156108fc02929091818181858888f194505050505090565b3360009081526001602052604081205460ff1661094857600080fd5b506001600160a01b03919091166000908152600a60205260409020805460ff191682151517905590565b336000908152600a60205260408120805460ff16156109c35760405162461bcd60e51b815260206004820152600d60248201526c65737461732062616e6561646f60981b6044820152606401610730565b8060010154831115610a0d5760405162461bcd60e51b81526020600482015260136024820152726e6f207469656e6573206573652073616c646f60681b6044820152606401610730565b426006548260020154610a2091906121a3565b1115610a6e5760405162461bcd60e51b815260206004820152601760248201527f6e6f206573207469656d706f20646520726574697261720000000000000000006044820152606401610730565b82471015610abe5760405162461bcd60e51b815260206004820152601e60248201527f6e6f206861792062616c616e63652070617261207472616e73666572697200006044820152606401610730565b604051339084156108fc029085906000818181858888f1935050505015610b205760405162461bcd60e51b815260206004820152601660248201527566616c6c6f206c61207472616e73666572656e63696160501b6044820152606401610730565b82816001016000828254610b34919061213b565b909155505042600290910155506001919050565b3360009081526001602052604081205460ff16610b6457600080fd5b6001600160a01b0382166000908152600a60205260409020805460ff1680610b94575068056bc75e2d6310000084115b15610bec57805460ff1916600117815560405162461bcd60e51b815260206004820152601d60248201527f76616c6f72206d7579206772616e6465206e6f207065726d697469646f0000006044820152606401610730565b8381600101600082825461074d91906121a3565b600080546001600160a01b0316336001600160a01b031614610c2157600080fd5b50600380546001600160a01b0319166001600160a01b039290921691821790556000908152600160208190526040909120805460ff19168217905590565b6000546001600160a01b0316336001600160a01b031614610c7f57600080fd5b6001600160a01b038116610c9257600080fd5b6040516001600160a01b038216907f71614071b88dee5e0b2ae578a9dd7b2ebbe9ae832ba419dc0242cd065a290b6c90600090a26001600160a01b03166000908152600160208190526040909120805460ff19169091179055565b600080546001600160a01b0316336001600160a01b031614610d0e57600080fd5b6040518060600160405280858152602001848152602001831515815250600c8681548110610d3e57610d3e61218d565b90600052602060002090600302016000820151816000019080519060200190610d68929190611cd3565b5060208201516001828101919091556040909201516002909101805460ff191691151591909117905595945050505050565b6000546001600160a01b0316336001600160a01b031614610dba57600080fd5b6001600160a01b038116610dcd57600080fd5b6040516001600160a01b038216907fa3b62bc36326052d97ea62d63c3d60308ed4c3ea8ac079dd8499f1e9c4f80c0f90600090a26001600160a01b03166000908152600160205260409020805460ff19169055565b600080600c8481548110610e3857610e3861218d565b9060005260206000209060030201604051806060016040529081600082018054610e6190612152565b80601f0160208091040260200160405190810160405280929190818152602001828054610e8d90612152565b8015610eda5780601f10610eaf57610100808354040283529160200191610eda565b820191906000526020600020905b815481529060010190602001808311610ebd57829003601f168201915b5050509183525050600182015460208083019190915260029092015460ff161515604090910152810151909150341015610f565760405162461bcd60e51b815260206004820152601e60248201527f706f72206661766f7220656e76696520737566696369656e746520626e6200006044820152606401610730565b600454421015610fa85760405162461bcd60e51b815260206004820181905260248201527f6e6f206573207469656d706f206465206c612076656e7461207075626c6963616044820152606401610730565b336000908152600a60208181526040928390208351606081018552815460ff16151581526001820154928101929092526002908101549382019390935291546001600160a01b0316906108fc9061100d90606490611007903490611b69565b90611ba2565b6040518115909202916000818181858888f19350505050158015611035573d6000803e3d6000fd5b5080511561104857600092505050610758565b6001600160a01b038416158015906110765750336000908152600960205260409020546001600160a01b0316155b801561108b57506001600160a01b0384163314155b156110b95733600090815260096020526040902080546001600160a01b0319166001600160a01b0386161790555b336000908152600960205260409020546001600160a01b03161561113f57600354605a906001600160a01b03166108fc6111106064611007611109611102338a60200151611bbc565b8790611cb8565b3490611b69565b6040518115909202916000818181858888f19350505050158015611138573d6000803e3d6000fd5b5050611188565b6003546001600160a01b03166108fc61115e606461100734605a611b69565b6040518115909202916000818181858888f19350505050158015611186573d6000803e3d6000fd5b505b336000908152600b602090815260408220805460018101825590835291819020845180518694600302909201926111c492849290910190611cd3565b506020820151816001015560408201518160020160006101000a81548160ff0219169083151502179055505050600192505050610758565b505092915050565b3360009081526001602052604081205460ff1661122057600080fd5b6000600b6000886001600160a01b03166001600160a01b03168152602001908152602001600020905060405180606001604052808681526020018581526020018415158152508187815481106112785761127861218d565b906000526020600020906003020160008201518160000190805190602001906112a2929190611cd3565b5060208201516001828101919091556040909201516002909101805460ff1916911515919091179055979650505050505050565b600080546001600160a01b0316336001600160a01b0316146112f757600080fd5b60408051606081018252858152602080820186905284151592820192909252600c805460018101825560009190915281518051929360039092027fdf6966c971051c3d54ec59162606531493a51404a002842f56009d7e5cf4a8c701926113619284920190611cd3565b5060208201516001828101919091556040909201516002909101805460ff1916911515919091179055949350505050565b3360009081526001602052604081205460ff166113ae57600080fd5b6001600160a01b0383166000908152600b6020526040902080548190849081106113da576113da61218d565b600091825260209091206002600390920201015460ff1615156001141561143b57600081848154811061140f5761140f61218d565b60009182526020909120600390910201600201805460ff19169115159190911790555060019050610758565b6000915050610758565b600080546001600160a01b0316336001600160a01b03161461146657600080fd5b6008546040516370a0823160e01b81523060048201526000916001600160a01b0316906370a0823190602401602060405180830381865afa1580156114af573d6000803e3d6000fd5b505050506040513d601f19601f820116820180604052508101906114d391906121bb565b116114dd57600080fd5b6008546040516370a0823160e01b81523060048201526000916001600160a01b0316906370a0823190602401602060405180830381865afa158015611526573d6000803e3d6000fd5b505050506040513d601f19601f8201168201806040525081019061154a91906121bb565b60085460005460405163a9059cbb60e01b81526001600160a01b03918216600482015260248101849052929350169063a9059cbb906044016020604051808303816000875af11580156115a1573d6000803e3d6000fd5b505050506040513d601f19601f820116820180604052508101906115c591906121d4565b50905090565b600080546001600160a01b0316336001600160a01b0316146115ec57600080fd5b600280546001600160a01b0319166001600160a01b03841617905561161082610c5f565b506001919050565b600080546001600160a01b0316336001600160a01b03161461163957600080fd5b50600880546001600160a01b0383166001600160a01b03199091161790556001919050565b6007818154811061166e57600080fd5b600091825260209091200154905081565b336000908152600a60205260408120805460ff16156116d05760405162461bcd60e51b815260206004820152600d60248201526c65737461732062616e6561646f60981b6044820152606401610730565b6000349050808260010160008282546116e991906121a3565b9091555050600280546001600160a01b0316906108fc9061171290606490611007908690611b69565b6040518115909202916000818181858888f1935050505015801561173a573d6000803e3d6000fd5b506003546001600160a01b03166108fc61175a6064611007856008611b69565b6040518115909202916000818181858888f19350505050158015611782573d6000803e3d6000fd5b5060019250505090565b6001600160a01b0381166000908152600b60209081526040808320805482518185028101850190935280835260609492939192909184015b828210156118a757838290600052602060002090600302016040518060600160405290816000820180546117f790612152565b80601f016020809104026020016040519081016040528092919081815260200182805461182390612152565b80156118705780601f1061184557610100808354040283529160200191611870565b820191906000526020600020905b81548152906001019060200180831161185357829003601f168201915b505050918352505060018281015460208084019190915260029093015460ff161515604090920191909152918352920191016117c4565b505050509050919050565b600b60205281600052604060002081815481106118ce57600080fd5b9060005260206000209060030201600091509150508060000180546118f290612152565b80601f016020809104026020016040519081016040528092919081815260200182805461191e90612152565b801561196b5780601f106119405761010080835404028352916020019161196b565b820191906000526020600020905b81548152906001019060200180831161194e57829003601f168201915b50505050600183015460029093015491929160ff16905083565b600c818154811061199557600080fd5b90600052602060002090600302016000915090508060000180546118f290612152565b6001600160a01b0381166000908152600b6020908152604080832080548251818502810185019093528083528493849084015b82821015611ace5783829060005260206000209060030201604051806060016040529081600082018054611a1e90612152565b80601f0160208091040260200160405190810160405280929190818152602001828054611a4a90612152565b8015611a975780601f10611a6c57610100808354040283529160200191611a97565b820191906000526020600020905b815481529060010190602001808311611a7a57829003601f168201915b505050918352505060018281015460208084019190915260029093015460ff161515604090920191909152918352920191016119eb565b5050915195945050505050565b6000546001600160a01b0316336001600160a01b031614611afb57600080fd5b6001600160a01b038116611b0e57600080fd5b600080546040516001600160a01b03808516939216917f8be0079c531659141344cd1fd0a4f28419497f9722a3daafe3b4186f6b6457e091a3600080546001600160a01b0319166001600160a01b0392909216919091179055565b600082611b7857506000610758565b6000611b8483856121f1565b905082611b918583612210565b14611b9b57600080fd5b9392505050565b6000808211611bb057600080fd5b60006108c98385612210565b60008060005b6007548110156111fc576001600160a01b038516611bdf576111fc565b6001600160a01b038086166000908152600960209081526040808320549093168252600a90522060078054919350611c42916064916110079185908110611c2857611c2861218d565b906000526020600020015487611b6990919063ffffffff16565b826001016000828254611c5591906121a3565b90915550506001600160a01b039485166000908152600960205260409020546007805491909616959082908110611c8e57611c8e61218d565b906000526020600020015483611ca491906121a3565b925080611cb081612232565b915050611bc2565b600082821115611cc757600080fd5b60006108c9838561213b565b828054611cdf90612152565b90600052602060002090601f016020900481019282611d015760008555611d47565b82601f10611d1a57805160ff1916838001178555611d47565b82800160010185558215611d47579182015b82811115611d47578251825591602001919060010190611d2c565b50611d53929150611d57565b5090565b5b80821115611d535760008155600101611d58565b6001600160a01b0381168114611d8157600080fd5b50565b60008060408385031215611d9757600080fd5b823591506020830135611da981611d6c565b809150509250929050565b600060208284031215611dc657600080fd5b8135611b9b81611d6c565b60008060408385031215611de457600080fd5b8235611def81611d6c565b946020939093013593505050565b8015158114611d8157600080fd5b60008060408385031215611e1e57600080fd5b8235611e2981611d6c565b91506020830135611da981611dfd565b600060208284031215611e4b57600080fd5b5035919050565b634e487b7160e01b600052604160045260246000fd5b600082601f830112611e7957600080fd5b813567ffffffffffffffff80821115611e9457611e94611e52565b604051601f8301601f19908116603f01168101908282118183101715611ebc57611ebc611e52565b81604052838152866020858801011115611ed557600080fd5b836020870160208301376000602085830101528094505050505092915050565b60008060008060808587031215611f0b57600080fd5b84359350602085013567ffffffffffffffff811115611f2957600080fd5b611f3587828801611e68565b935050604085013591506060850135611f4d81611dfd565b939692955090935050565b600080600080600060a08688031215611f7057600080fd5b8535611f7b81611d6c565b945060208601359350604086013567ffffffffffffffff811115611f9e57600080fd5b611faa88828901611e68565b935050606086013591506080860135611fc281611dfd565b809150509295509295909350565b600080600060608486031215611fe557600080fd5b833567ffffffffffffffff811115611ffc57600080fd5b61200886828701611e68565b93505060208401359150604084013561202081611dfd565b809150509250925092565b6000815180845260005b8181101561205157602081850181015186830182015201612035565b81811115612063576000602083870101525b50601f01601f19169290920160200192915050565b60006020808301818452808551808352604092508286019150828160051b87010184880160005b838110156120ed57603f198984030185528151606081518186526120c58287018261202b565b838b0151878c015292890151151595890195909552509487019492509086019060010161209f565b509098975050505050505050565b60608152600061210e606083018661202b565b602083019490945250901515604090910152919050565b634e487b7160e01b600052601160045260246000fd5b60008282101561214d5761214d612125565b500390565b600181811c9082168061216657607f821691505b6020821081141561218757634e487b7160e01b600052602260045260246000fd5b50919050565b634e487b7160e01b600052603260045260246000fd5b600082198211156121b6576121b6612125565b500190565b6000602082840312156121cd57600080fd5b5051919050565b6000602082840312156121e657600080fd5b8151611b9b81611dfd565b600081600019048311821515161561220b5761220b612125565b500290565b60008261222d57634e487b7160e01b600052601260045260246000fd5b500490565b600060001982141561224657612246612125565b506001019056fea26469706673582212205f0d48cf3fb3262d3e12589b6867c45447f6c76c9246414c7c839868a05981ef64736f6c634300080a0033",
    "sourcePath": "c:/Users/STC/Documents/GitHub/Solitare-Crypto/contracts/Market 2.0/Market-2.0.sol",
    "compiler": {
        "name": "solc",
        "version": "0.8.10+commit.fc410830"
    },
    "functionHashes": {
        "ChangeTokenOTRO(address)": "96ba5363",
        "MAX_BNB()": "c29caa33",
        "NoStakingCard(address,uint256)": "875ede14",
        "TIME_CLAIM()": "d60fd9b9",
        "UpdateDEVSWallet(address)": "91074658",
        "UpdateStakingContract(address)": "667682ec",
        "actualizarItem(address,uint256,string,uint256,bool)": "761cd621",
        "addItem(string,uint256,bool)": "82655d06",
        "admin(address)": "63a846f8",
        "adminWallet()": "36b19cd7",
        "asignarCoinsTo(uint256,address)": "571c94d7",
        "buyCoins()": "9a777d5d",
        "buyItem(uint256,address)": "7383d709",
        "consultarCarta(address,uint256)": "1f3d4cde",
        "editItem(uint256,string,uint256,bool)": "6aae4a0e",
        "gastarCoinsfrom(uint256,address)": "035092d9",
        "inventario(address,uint256)": "ab97fd60",
        "investors(address)": "6f7bc9be",
        "items(uint256)": "bfb231d2",
        "largoInventario(address)": "c991c474",
        "largoItems()": "238393e4",
        "makeNewAdmin(address)": "69ed1e0a",
        "makeRemoveAdmin(address)": "70a0966b",
        "niveles(uint256)": "98335894",
        "owner()": "8da5cb5b",
        "redimETH()": "2e9928d3",
        "redimOTRO()": "8929cbc5",
        "sellCoins(uint256)": "51a4cd73",
        "stakingContract()": "ee99205c",
        "transferOwnership(address)": "f2fde38b",
        "upline(address)": "0e3bd352",
        "userBan(address,bool)": "303f3790",
        "ventaPublica()": "8792fa47",
        "verInventario(address)": "aaa272a6"
    },
    "gasEstimates": {
        "creation": {
            "codeDepositCost": "1767000",
            "executionCost": "infinite",
            "totalCost": "infinite"
        },
        "external": {
            "ChangeTokenOTRO(address)": "26871",
            "MAX_BNB()": "2339",
            "NoStakingCard(address,uint256)": "33547",
            "TIME_CLAIM()": "2383",
            "UpdateDEVSWallet(address)": "54550",
            "UpdateStakingContract(address)": "51169",
            "actualizarItem(address,uint256,string,uint256,bool)": "infinite",
            "addItem(string,uint256,bool)": "infinite",
            "admin(address)": "2582",
            "adminWallet()": "2427",
            "asignarCoinsTo(uint256,address)": "29182",
            "buyCoins()": "infinite",
            "buyItem(uint256,address)": "infinite",
            "consultarCarta(address,uint256)": "infinite",
            "editItem(uint256,string,uint256,bool)": "infinite",
            "gastarCoinsfrom(uint256,address)": "31286",
            "inventario(address,uint256)": "infinite",
            "investors(address)": "6870",
            "items(uint256)": "infinite",
            "largoInventario(address)": "infinite",
            "largoItems()": "2405",
            "makeNewAdmin(address)": "28088",
            "makeRemoveAdmin(address)": "28047",
            "niveles(uint256)": "4686",
            "owner()": "2382",
            "redimETH()": "infinite",
            "redimOTRO()": "infinite",
            "sellCoins(uint256)": "infinite",
            "stakingContract()": "2447",
            "transferOwnership(address)": "30544",
            "upline(address)": "2621",
            "userBan(address,bool)": "infinite",
            "ventaPublica()": "2385",
            "verInventario(address)": "infinite"
        },
        "internal": {
            "referRedward(address,uint256)": "infinite"
        }
    }
}