{
    "contractName": "StakingV2",
    "abi": [
        {
            "inputs": [],
            "stateMutability": "nonpayable",
            "type": "constructor"
        },
        {
            "anonymous": false,
            "inputs": [
                {
                    "indexed": true,
                    "internalType": "address",
                    "name": "admin",
                    "type": "address"
                }
            ],
            "name": "AdminRemoved",
            "type": "event"
        },
        {
            "anonymous": false,
            "inputs": [
                {
                    "indexed": true,
                    "internalType": "address",
                    "name": "admin",
                    "type": "address"
                }
            ],
            "name": "NewAdmin",
            "type": "event"
        },
        {
            "anonymous": false,
            "inputs": [
                {
                    "indexed": true,
                    "internalType": "address",
                    "name": "previousOwner",
                    "type": "address"
                },
                {
                    "indexed": true,
                    "internalType": "address",
                    "name": "newOwner",
                    "type": "address"
                }
            ],
            "name": "OwnershipTransferred",
            "type": "event"
        },
        {
            "stateMutability": "payable",
            "type": "fallback"
        },
        {
            "inputs": [
                {
                    "internalType": "address",
                    "name": "_tokenTRC20",
                    "type": "address"
                }
            ],
            "name": "ChangeTokenOTRO",
            "outputs": [
                {
                    "internalType": "bool",
                    "name": "",
                    "type": "bool"
                }
            ],
            "stateMutability": "nonpayable",
            "type": "function"
        },
        {
            "inputs": [
                {
                    "internalType": "uint256",
                    "name": "_inicio",
                    "type": "uint256"
                }
            ],
            "name": "actualizarFecha",
            "outputs": [
                {
                    "internalType": "bool",
                    "name": "",
                    "type": "bool"
                }
            ],
            "stateMutability": "nonpayable",
            "type": "function"
        },
        {
            "inputs": [
                {
                    "internalType": "address",
                    "name": "",
                    "type": "address"
                }
            ],
            "name": "admin",
            "outputs": [
                {
                    "internalType": "bool",
                    "name": "",
                    "type": "bool"
                }
            ],
            "stateMutability": "view",
            "type": "function"
        },
        {
            "inputs": [],
            "name": "bonus",
            "outputs": [
                {
                    "internalType": "uint256",
                    "name": "",
                    "type": "uint256"
                }
            ],
            "stateMutability": "view",
            "type": "function"
        },
        {
            "inputs": [],
            "name": "inicio",
            "outputs": [
                {
                    "internalType": "uint256",
                    "name": "",
                    "type": "uint256"
                }
            ],
            "stateMutability": "view",
            "type": "function"
        },
        {
            "inputs": [
                {
                    "internalType": "address payable",
                    "name": "_newadmin",
                    "type": "address"
                }
            ],
            "name": "makeNewAdmin",
            "outputs": [],
            "stateMutability": "nonpayable",
            "type": "function"
        },
        {
            "inputs": [
                {
                    "internalType": "address payable",
                    "name": "_oldadmin",
                    "type": "address"
                }
            ],
            "name": "makeRemoveAdmin",
            "outputs": [],
            "stateMutability": "nonpayable",
            "type": "function"
        },
        {
            "inputs": [],
            "name": "owner",
            "outputs": [
                {
                    "internalType": "address payable",
                    "name": "",
                    "type": "address"
                }
            ],
            "stateMutability": "view",
            "type": "function"
        },
        {
            "inputs": [
                {
                    "internalType": "uint256",
                    "name": "",
                    "type": "uint256"
                }
            ],
            "name": "planRetorno",
            "outputs": [
                {
                    "internalType": "uint256",
                    "name": "",
                    "type": "uint256"
                }
            ],
            "stateMutability": "view",
            "type": "function"
        },
        {
            "inputs": [
                {
                    "internalType": "uint256",
                    "name": "",
                    "type": "uint256"
                }
            ],
            "name": "planTiempo",
            "outputs": [
                {
                    "internalType": "uint256",
                    "name": "",
                    "type": "uint256"
                }
            ],
            "stateMutability": "view",
            "type": "function"
        },
        {
            "inputs": [],
            "name": "redimBNB",
            "outputs": [
                {
                    "internalType": "uint256",
                    "name": "",
                    "type": "uint256"
                }
            ],
            "stateMutability": "nonpayable",
            "type": "function"
        },
        {
            "inputs": [],
            "name": "redimOTRO",
            "outputs": [
                {
                    "internalType": "uint256",
                    "name": "",
                    "type": "uint256"
                }
            ],
            "stateMutability": "nonpayable",
            "type": "function"
        },
        {
            "inputs": [
                {
                    "internalType": "address",
                    "name": "_user",
                    "type": "address"
                }
            ],
            "name": "retirable",
            "outputs": [
                {
                    "internalType": "uint256",
                    "name": "",
                    "type": "uint256"
                }
            ],
            "stateMutability": "view",
            "type": "function"
        },
        {
            "inputs": [
                {
                    "internalType": "address",
                    "name": "_user",
                    "type": "address"
                }
            ],
            "name": "retirableBlock",
            "outputs": [
                {
                    "internalType": "uint256",
                    "name": "",
                    "type": "uint256"
                }
            ],
            "stateMutability": "view",
            "type": "function"
        },
        {
            "inputs": [
                {
                    "internalType": "bool",
                    "name": "_bloqueado",
                    "type": "bool"
                }
            ],
            "name": "retiro",
            "outputs": [
                {
                    "internalType": "bool",
                    "name": "",
                    "type": "bool"
                }
            ],
            "stateMutability": "nonpayable",
            "type": "function"
        },
        {
            "inputs": [
                {
                    "internalType": "bool",
                    "name": "_bloqueado",
                    "type": "bool"
                },
                {
                    "internalType": "uint256",
                    "name": "_plan",
                    "type": "uint256"
                },
                {
                    "internalType": "uint256",
                    "name": "_carta",
                    "type": "uint256"
                }
            ],
            "name": "staking",
            "outputs": [
                {
                    "internalType": "bool",
                    "name": "",
                    "type": "bool"
                }
            ],
            "stateMutability": "nonpayable",
            "type": "function"
        },
        {
            "inputs": [
                {
                    "internalType": "address payable",
                    "name": "newOwner",
                    "type": "address"
                }
            ],
            "name": "transferOwnership",
            "outputs": [],
            "stateMutability": "nonpayable",
            "type": "function"
        },
        {
            "inputs": [
                {
                    "internalType": "address",
                    "name": "",
                    "type": "address"
                },
                {
                    "internalType": "uint256",
                    "name": "",
                    "type": "uint256"
                }
            ],
            "name": "usuarios",
            "outputs": [
                {
                    "internalType": "uint256",
                    "name": "deposito",
                    "type": "uint256"
                },
                {
                    "internalType": "uint256",
                    "name": "inicio",
                    "type": "uint256"
                },
                {
                    "internalType": "uint256",
                    "name": "payAt",
                    "type": "uint256"
                },
                {
                    "internalType": "uint256",
                    "name": "factor",
                    "type": "uint256"
                },
                {
                    "internalType": "bool",
                    "name": "bloqueado",
                    "type": "bool"
                },
                {
                    "internalType": "uint256",
                    "name": "carta",
                    "type": "uint256"
                },
                {
                    "internalType": "uint256",
                    "name": "tiempo",
                    "type": "uint256"
                }
            ],
            "stateMutability": "view",
            "type": "function"
        },
        {
            "stateMutability": "payable",
            "type": "receive"
        }
    ],
    "bytecode": "6002805473389ccc30de1d311738dffd3f60d4fd6188970f456001600160a01b0319918216811790925560038054909116909117905563618c32d0600455610140604052621275006080818152621baf8060a08190526224ea0060c081905260e09390935261010052610120919091526200007e90600690816200010a565b506040805160c081018252610460815261055060208201526105789181019190915261078a6060820152610abe6080820152610b6860a0820152620000c890600790600662000161565b50348015620000d657600080fd5b50600080546001600160a01b0319163390811782558152600160208190526040909120805460ff19169091179055620001bc565b8280548282559060005260206000209081019282156200014f579160200282015b828111156200014f578251829062ffffff169055916020019190600101906200012b565b506200015d929150620001a5565b5090565b8280548282559060005260206000209081019282156200014f579160200282015b828111156200014f578251829061ffff1690559160200191906001019062000182565b5b808211156200015d5760008155600101620001a6565b6112d680620001cc6000396000f3fe6080604052600436106101015760003560e01c80638929cbc51161008f578063be98f86211610061578063be98f8621461030c578063cd711c4d1461032c578063f2fde38b1461034c578063fa1518001461036c578063fd14d5981461038c57005b80638929cbc51461027f5780638da5cb5b1461029457806396ba5363146102cc578063bbfcde1e146102ec57005b806363a846f8116100d357806363a846f8146101a357806369ed1e0a146101d357806370a0966b146101f357806375b4d78c1461021357806381b1474e1461022857005b80631072d00b1461010a5780633082e7891461013f5780633624850e1461016d57806350f20d0e1461018357005b3661010857005b005b34801561011657600080fd5b5061012a6101253660046110ce565b6103a1565b60405190151581526020015b60405180910390f35b34801561014b57600080fd5b5061015f61015a366004611100565b610484565b604051908152602001610136565b34801561017957600080fd5b5061015f60045481565b34801561018f57600080fd5b5061015f61019e366004611100565b6106b3565b3480156101af57600080fd5b5061012a6101be366004611100565b60016020526000908152604090205460ff1681565b3480156101df57600080fd5b506101086101ee366004611100565b610887565b3480156101ff57600080fd5b5061010861020e366004611100565b610915565b34801561021f57600080fd5b5061015f61099d565b34801561023457600080fd5b5061024861024336600461111d565b610a0f565b6040805197885260208801969096529486019390935260608501919091521515608084015260a083015260c082015260e001610136565b34801561028b57600080fd5b5061015f610a6f565b3480156102a057600080fd5b506000546102b4906001600160a01b031681565b6040516001600160a01b039091168152602001610136565b3480156102d857600080fd5b5061012a6102e7366004611100565b610b7e565b3480156102f857600080fd5b5061012a610307366004611149565b610bc4565b34801561031857600080fd5b5061015f61032736600461117e565b610eef565b34801561033857600080fd5b5061015f61034736600461117e565b610f10565b34801561035857600080fd5b50610108610367366004611100565b610f20565b34801561037857600080fd5b5061012a61038736600461117e565b610fae565b34801561039857600080fd5b5061015f610fd8565b6000806001831515146103bc576103b7336106b3565b6103c5565b6103c533610484565b90506000811161041c5760405162461bcd60e51b815260206004820152601860248201527f6e6f20686179206e61646120706172612072657469726172000000000000000060448201526064015b60405180910390fd5b604051339082156108fc029083906000818181858888f19350505050151560011515141561044d5750600192915050565b60405162461bcd60e51b815260206004820152600c60248201526b66616c6c6f2072657469726f60a01b6044820152606401610413565b6001600160a01b038116600090815260056020526040812081808080805b85548110156106a7578581815481106104bd576104bd611197565b600091825260209091206004600790920201015460ff16151560011415610695578581815481106104f0576104f0611197565b90600052602060002090600702016006015486828154811061051457610514611197565b90600052602060002090600702016001015461053091906111c3565b935085818154811061054457610544611197565b90600052602060002090600702016001015486828154811061056857610568611197565b906000526020600020906007020160020154116105a85785818154811061059157610591611197565b9060005260206000209060070201600101546105cd565b8581815481106105ba576105ba611197565b9060005260206000209060070201600201545b92508342116105dc57426105de565b835b915083421115610695578581815481106105fa576105fa611197565b906000526020600020906007020160060154838361061891906111db565b6106746103e861066e8a868154811061063357610633611197565b9060005260206000209060070201600301548b878154811061065757610657611197565b600091825260209091206007909102015490611044565b9061107f565b61067e91906111f2565b6106889190611227565b61069290866111c3565b94505b8061069f8161123b565b9150506104a2565b50929695505050505050565b6001600160a01b038116600090815260056020526040812081808080805b85548110156106a7578581815481106106ec576106ec611197565b600091825260209091206004600790920201015460ff166108755785818154811061071957610719611197565b90600052602060002090600702016006015486828154811061073d5761073d611197565b90600052602060002090600702016001015461075991906111c3565b935085818154811061076d5761076d611197565b90600052602060002090600702016001015486828154811061079157610791611197565b906000526020600020906007020160020154116107d1578581815481106107ba576107ba611197565b9060005260206000209060070201600101546107f6565b8581815481106107e3576107e3611197565b9060005260206000209060070201600201545b92508342116108055742610807565b835b915085818154811061081b5761081b611197565b906000526020600020906007020160060154838361083991906111db565b6108546103e861066e8a868154811061063357610633611197565b61085e91906111f2565b6108689190611227565b61087290866111c3565b94505b8061087f8161123b565b9150506106d1565b6000546001600160a01b0316336001600160a01b0316146108a757600080fd5b6001600160a01b0381166108ba57600080fd5b6040516001600160a01b038216907f71614071b88dee5e0b2ae578a9dd7b2ebbe9ae832ba419dc0242cd065a290b6c90600090a26001600160a01b03166000908152600160208190526040909120805460ff19169091179055565b6000546001600160a01b0316336001600160a01b03161461093557600080fd5b6001600160a01b03811661094857600080fd5b6040516001600160a01b038216907fa3b62bc36326052d97ea62d63c3d60308ed4c3ea8ac079dd8499f1e9c4f80c0f90600090a26001600160a01b03166000908152600160205260409020805460ff19169055565b6000610a0a6109f46005601e62015180600454426109bb91906111db565b6109c59190611256565b116109eb5762015180600454426109dc91906111db565b6109e69190611256565b6109ee565b60005b90611044565b610a04600a6109ee606447611256565b906110a1565b905090565b60056020528160005260406000208181548110610a2b57600080fd5b600091825260209091206007909102018054600182015460028301546003840154600485015460058601546006909601549497509295509093909260ff9092169187565b600080546001600160a01b0316336001600160a01b031614610a9057600080fd5b6003546040516370a0823160e01b81523060048201526000916001600160a01b0316906370a0823190602401602060405180830381865afa158015610ad9573d6000803e3d6000fd5b505050506040513d601f19601f82011682018060405250810190610afd919061126a565b60035460005460405163a9059cbb60e01b81526001600160a01b03918216600482015260248101849052929350169063a9059cbb906044016020604051808303816000875af1158015610b54573d6000803e3d6000fd5b505050506040513d601f19601f82011682018060405250810190610b789190611283565b50905090565b600080546001600160a01b0316336001600160a01b031614610b9f57600080fd5b50600380546001600160a01b0383166001600160a01b03199091161790556001919050565b6000600454421015610c0d5760405162461bcd60e51b815260206004820152601260248201527161756e206e6f20686120696e69636961646f60701b6044820152606401610413565b6002546000906001600160a01b0316631f3d4cde336040516001600160e01b031960e084901b1681526001600160a01b03909116600482015260248101869052604401602060405180830381865afa158015610c6d573d6000803e3d6000fd5b505050506040513d601f19601f82011682018060405250810190610c91919061126a565b905060008111610cdc5760405162461bcd60e51b81526020600482015260166024820152756572726f7220616c2075736172206c6120636172746160501b6044820152606401610413565b6000600581336001600160a01b03166001600160a01b031681526020019081526020016000209050806040518060e00160405280848152602001428152602001428152602001610d59610d2d61099d565b60078a81548110610d4057610d40611197565b90600052602060002001546110a190919063ffffffff16565b8152602001881515815260200186815260200160068881548110610d7f57610d7f611197565b6000918252602080832091909101549092528354600180820186559482529082902083516007909202019081559082015192810192909255604081015160028084019190915560608201516003840155608082015160048401805460ff191691151591909117905560a0820151600584015560c090910151600690920191909155546001600160a01b031663875ede14336040516001600160e01b031960e084901b1681526001600160a01b03909116600482015260248101879052604401602060405180830381865afa158015610e5b573d6000803e3d6000fd5b505050506040513d601f19601f82011682018060405250810190610e7f9190611283565b151560011415610e9457600192505050610ee8565b60405162461bcd60e51b815260206004820152602360248201527f66616c6c6f20616c206d617263617220636172746120636f6d6f207374616b6560448201526261646160e81b6064820152608401610413565b9392505050565b60078181548110610eff57600080fd5b600091825260209091200154905081565b60068181548110610eff57600080fd5b6000546001600160a01b0316336001600160a01b031614610f4057600080fd5b6001600160a01b038116610f5357600080fd5b600080546040516001600160a01b03808516939216917f8be0079c531659141344cd1fd0a4f28419497f9722a3daafe3b4186f6b6457e091a3600080546001600160a01b0319166001600160a01b0392909216919091179055565b600080546001600160a01b0316336001600160a01b031614610fcf57600080fd5b50600455600190565b600080546001600160a01b0316336001600160a01b031614610ff957600080fd5b4761100357600080fd5b600080546040516001600160a01b03909116914780156108fc02929091818181858888f1935050505015801561103d573d6000803e3d6000fd5b5047905090565b60008261105357506000611079565b600061105f83856111f2565b90508261106c8583611227565b1461107657600080fd5b90505b92915050565b600080821161108d57600080fd5b60006110998385611227565b949350505050565b6000806110ae83856111c3565b90508381101561107657600080fd5b80151581146110cb57600080fd5b50565b6000602082840312156110e057600080fd5b8135611076816110bd565b6001600160a01b03811681146110cb57600080fd5b60006020828403121561111257600080fd5b8135611076816110eb565b6000806040838503121561113057600080fd5b823561113b816110eb565b946020939093013593505050565b60008060006060848603121561115e57600080fd5b8335611169816110bd565b95602085013595506040909401359392505050565b60006020828403121561119057600080fd5b5035919050565b634e487b7160e01b600052603260045260246000fd5b634e487b7160e01b600052601160045260246000fd5b600082198211156111d6576111d66111ad565b500190565b6000828210156111ed576111ed6111ad565b500390565b600081600019048311821515161561120c5761120c6111ad565b500290565b634e487b7160e01b600052601260045260246000fd5b60008261123657611236611211565b500490565b600060001982141561124f5761124f6111ad565b5060010190565b60008261126557611265611211565b500690565b60006020828403121561127c57600080fd5b5051919050565b60006020828403121561129557600080fd5b8151611076816110bd56fea26469706673582212209e75edad2cfc2b6ffcc1acaf23df8f2ab73044e03aff680189b3f0ed8fcd32a564736f6c634300080a0033",
    "sourcePath": "c:/Users/STC/Documents/GitHub/Solitare-Crypto/contracts/Staking 2.0/stakingV2.sol",
    "compiler": {
        "name": "solc",
        "version": "0.8.10+commit.fc410830"
    },
    "functionHashes": {
        "ChangeTokenOTRO(address)": "96ba5363",
        "actualizarFecha(uint256)": "fa151800",
        "admin(address)": "63a846f8",
        "bonus()": "75b4d78c",
        "inicio()": "3624850e",
        "makeNewAdmin(address)": "69ed1e0a",
        "makeRemoveAdmin(address)": "70a0966b",
        "owner()": "8da5cb5b",
        "planRetorno(uint256)": "be98f862",
        "planTiempo(uint256)": "cd711c4d",
        "redimBNB()": "fd14d598",
        "redimOTRO()": "8929cbc5",
        "retirable(address)": "50f20d0e",
        "retirableBlock(address)": "3082e789",
        "retiro(bool)": "1072d00b",
        "staking(bool,uint256,uint256)": "bbfcde1e",
        "transferOwnership(address)": "f2fde38b",
        "usuarios(address,uint256)": "81b1474e"
    },
    "gasEstimates": {
        "creation": {
            "codeDepositCost": "964400",
            "executionCost": "infinite",
            "totalCost": "infinite"
        },
        "external": {
            "": "185",
            "ChangeTokenOTRO(address)": "26853",
            "actualizarFecha(uint256)": "24633",
            "admin(address)": "2541",
            "bonus()": "infinite",
            "inicio()": "2363",
            "makeNewAdmin(address)": "28025",
            "makeRemoveAdmin(address)": "28029",
            "owner()": "2382",
            "planRetorno(uint256)": "4597",
            "planTiempo(uint256)": "4619",
            "redimBNB()": "infinite",
            "redimOTRO()": "infinite",
            "retirable(address)": "infinite",
            "retirableBlock(address)": "infinite",
            "retiro(bool)": "infinite",
            "staking(bool,uint256,uint256)": "infinite",
            "transferOwnership(address)": "30482",
            "usuarios(address,uint256)": "17683"
        }
    }
}