{
    "contractName": "StakingV2",
    "abi": [
        {
            "inputs": [],
            "stateMutability": "nonpayable",
            "type": "constructor"
        },
        {
            "anonymous": false,
            "inputs": [
                {
                    "indexed": true,
                    "internalType": "address",
                    "name": "admin",
                    "type": "address"
                }
            ],
            "name": "AdminRemoved",
            "type": "event"
        },
        {
            "anonymous": false,
            "inputs": [
                {
                    "indexed": true,
                    "internalType": "address",
                    "name": "admin",
                    "type": "address"
                }
            ],
            "name": "NewAdmin",
            "type": "event"
        },
        {
            "anonymous": false,
            "inputs": [
                {
                    "indexed": true,
                    "internalType": "address",
                    "name": "previousOwner",
                    "type": "address"
                },
                {
                    "indexed": true,
                    "internalType": "address",
                    "name": "newOwner",
                    "type": "address"
                }
            ],
            "name": "OwnershipTransferred",
            "type": "event"
        },
        {
            "stateMutability": "payable",
            "type": "fallback"
        },
        {
            "inputs": [
                {
                    "internalType": "address",
                    "name": "_market",
                    "type": "address"
                }
            ],
            "name": "ChangeMarketContract",
            "outputs": [
                {
                    "internalType": "bool",
                    "name": "",
                    "type": "bool"
                }
            ],
            "stateMutability": "nonpayable",
            "type": "function"
        },
        {
            "inputs": [
                {
                    "internalType": "uint256",
                    "name": "_time",
                    "type": "uint256"
                }
            ],
            "name": "ChangeTimeWitdrwal",
            "outputs": [
                {
                    "internalType": "bool",
                    "name": "",
                    "type": "bool"
                }
            ],
            "stateMutability": "nonpayable",
            "type": "function"
        },
        {
            "inputs": [
                {
                    "internalType": "address",
                    "name": "_tokenTRC20",
                    "type": "address"
                }
            ],
            "name": "ChangeTokenOTRO",
            "outputs": [
                {
                    "internalType": "bool",
                    "name": "",
                    "type": "bool"
                }
            ],
            "stateMutability": "nonpayable",
            "type": "function"
        },
        {
            "inputs": [
                {
                    "internalType": "uint256",
                    "name": "_inicio",
                    "type": "uint256"
                }
            ],
            "name": "actualizarFecha",
            "outputs": [
                {
                    "internalType": "bool",
                    "name": "",
                    "type": "bool"
                }
            ],
            "stateMutability": "nonpayable",
            "type": "function"
        },
        {
            "inputs": [
                {
                    "internalType": "address",
                    "name": "",
                    "type": "address"
                }
            ],
            "name": "admin",
            "outputs": [
                {
                    "internalType": "bool",
                    "name": "",
                    "type": "bool"
                }
            ],
            "stateMutability": "view",
            "type": "function"
        },
        {
            "inputs": [
                {
                    "internalType": "address",
                    "name": "",
                    "type": "address"
                },
                {
                    "internalType": "uint256",
                    "name": "",
                    "type": "uint256"
                }
            ],
            "name": "bloqueado",
            "outputs": [
                {
                    "internalType": "uint256",
                    "name": "deposito",
                    "type": "uint256"
                },
                {
                    "internalType": "uint256",
                    "name": "inicio",
                    "type": "uint256"
                },
                {
                    "internalType": "uint256",
                    "name": "factor",
                    "type": "uint256"
                },
                {
                    "internalType": "uint256",
                    "name": "carta",
                    "type": "uint256"
                },
                {
                    "internalType": "uint256",
                    "name": "tiempo",
                    "type": "uint256"
                }
            ],
            "stateMutability": "view",
            "type": "function"
        },
        {
            "inputs": [],
            "name": "bonus",
            "outputs": [
                {
                    "internalType": "uint256",
                    "name": "",
                    "type": "uint256"
                }
            ],
            "stateMutability": "view",
            "type": "function"
        },
        {
            "inputs": [
                {
                    "internalType": "address",
                    "name": "",
                    "type": "address"
                },
                {
                    "internalType": "uint256",
                    "name": "",
                    "type": "uint256"
                }
            ],
            "name": "flexible",
            "outputs": [
                {
                    "internalType": "uint256",
                    "name": "deposito",
                    "type": "uint256"
                },
                {
                    "internalType": "uint256",
                    "name": "inicio",
                    "type": "uint256"
                },
                {
                    "internalType": "uint256",
                    "name": "factor",
                    "type": "uint256"
                },
                {
                    "internalType": "uint256",
                    "name": "carta",
                    "type": "uint256"
                },
                {
                    "internalType": "uint256",
                    "name": "tiempo",
                    "type": "uint256"
                }
            ],
            "stateMutability": "view",
            "type": "function"
        },
        {
            "inputs": [],
            "name": "inicio",
            "outputs": [
                {
                    "internalType": "uint256",
                    "name": "",
                    "type": "uint256"
                }
            ],
            "stateMutability": "view",
            "type": "function"
        },
        {
            "inputs": [
                {
                    "internalType": "address payable",
                    "name": "_newadmin",
                    "type": "address"
                }
            ],
            "name": "makeNewAdmin",
            "outputs": [],
            "stateMutability": "nonpayable",
            "type": "function"
        },
        {
            "inputs": [
                {
                    "internalType": "address payable",
                    "name": "_oldadmin",
                    "type": "address"
                }
            ],
            "name": "makeRemoveAdmin",
            "outputs": [],
            "stateMutability": "nonpayable",
            "type": "function"
        },
        {
            "inputs": [],
            "name": "owner",
            "outputs": [
                {
                    "internalType": "address payable",
                    "name": "",
                    "type": "address"
                }
            ],
            "stateMutability": "view",
            "type": "function"
        },
        {
            "inputs": [
                {
                    "internalType": "address",
                    "name": "",
                    "type": "address"
                }
            ],
            "name": "payAt",
            "outputs": [
                {
                    "internalType": "uint256",
                    "name": "",
                    "type": "uint256"
                }
            ],
            "stateMutability": "view",
            "type": "function"
        },
        {
            "inputs": [
                {
                    "internalType": "address",
                    "name": "",
                    "type": "address"
                }
            ],
            "name": "payAtBlock",
            "outputs": [
                {
                    "internalType": "uint256",
                    "name": "",
                    "type": "uint256"
                }
            ],
            "stateMutability": "view",
            "type": "function"
        },
        {
            "inputs": [
                {
                    "internalType": "uint256",
                    "name": "",
                    "type": "uint256"
                }
            ],
            "name": "planBloqueo",
            "outputs": [
                {
                    "internalType": "bool",
                    "name": "",
                    "type": "bool"
                }
            ],
            "stateMutability": "view",
            "type": "function"
        },
        {
            "inputs": [
                {
                    "internalType": "uint256",
                    "name": "",
                    "type": "uint256"
                }
            ],
            "name": "planRetorno",
            "outputs": [
                {
                    "internalType": "uint256",
                    "name": "",
                    "type": "uint256"
                }
            ],
            "stateMutability": "view",
            "type": "function"
        },
        {
            "inputs": [
                {
                    "internalType": "uint256",
                    "name": "",
                    "type": "uint256"
                }
            ],
            "name": "planTiempo",
            "outputs": [
                {
                    "internalType": "uint256",
                    "name": "",
                    "type": "uint256"
                }
            ],
            "stateMutability": "view",
            "type": "function"
        },
        {
            "inputs": [],
            "name": "plazoRetiros",
            "outputs": [
                {
                    "internalType": "uint256",
                    "name": "",
                    "type": "uint256"
                }
            ],
            "stateMutability": "view",
            "type": "function"
        },
        {
            "inputs": [],
            "name": "redimBNB",
            "outputs": [
                {
                    "internalType": "uint256",
                    "name": "",
                    "type": "uint256"
                }
            ],
            "stateMutability": "nonpayable",
            "type": "function"
        },
        {
            "inputs": [],
            "name": "redimOTRO",
            "outputs": [
                {
                    "internalType": "uint256",
                    "name": "",
                    "type": "uint256"
                }
            ],
            "stateMutability": "nonpayable",
            "type": "function"
        },
        {
            "inputs": [
                {
                    "internalType": "address",
                    "name": "_user",
                    "type": "address"
                }
            ],
            "name": "retirable",
            "outputs": [
                {
                    "internalType": "uint256",
                    "name": "",
                    "type": "uint256"
                }
            ],
            "stateMutability": "view",
            "type": "function"
        },
        {
            "inputs": [
                {
                    "internalType": "address",
                    "name": "_user",
                    "type": "address"
                },
                {
                    "internalType": "bool",
                    "name": "_view",
                    "type": "bool"
                }
            ],
            "name": "retirableBlock",
            "outputs": [
                {
                    "internalType": "uint256",
                    "name": "",
                    "type": "uint256"
                }
            ],
            "stateMutability": "view",
            "type": "function"
        },
        {
            "inputs": [
                {
                    "internalType": "bool",
                    "name": "_bloqueado",
                    "type": "bool"
                }
            ],
            "name": "retiro",
            "outputs": [
                {
                    "internalType": "bool",
                    "name": "",
                    "type": "bool"
                }
            ],
            "stateMutability": "nonpayable",
            "type": "function"
        },
        {
            "inputs": [
                {
                    "internalType": "uint256",
                    "name": "_plan",
                    "type": "uint256"
                },
                {
                    "internalType": "uint256",
                    "name": "_carta",
                    "type": "uint256"
                }
            ],
            "name": "staking",
            "outputs": [
                {
                    "internalType": "bool",
                    "name": "",
                    "type": "bool"
                }
            ],
            "stateMutability": "nonpayable",
            "type": "function"
        },
        {
            "inputs": [
                {
                    "internalType": "address payable",
                    "name": "newOwner",
                    "type": "address"
                }
            ],
            "name": "transferOwnership",
            "outputs": [],
            "stateMutability": "nonpayable",
            "type": "function"
        },
        {
            "stateMutability": "payable",
            "type": "receive"
        }
    ],
    "bytecode": "600280546001600160a01b031990811673d9145cce52d386f254917e481eb44e9943f39138179091556003805490911673d70e4ec3a81231b63bc2cd16d2bd6acc4614d505179055636223763260045562015180600555610140604052610384608081815260a082905260c082905260e0829052610100829052610120919091526200009090600a9060066200015f565b506040805160c081018252610460815261055060208201526105789181019190915261078a6060820152610abe6080820152610b6860a0820152620000da90600b9060066200015f565b506040805160c081018252600080825260208201819052918101919091526001606082018190526080820181905260a08201526200011d90600c906006620001b5565b503480156200012b57600080fd5b50600080546001600160a01b0319163390811782558152600160208190526040909120805460ff191690911790556200026e565b828054828255906000526020600020908101928215620001a3579160200282015b82811115620001a3578251829061ffff1690559160200191906001019062000180565b50620001b192915062000257565b5090565b82805482825590600052602060002090601f01602090048101928215620001a35791602002820160005b838211156200021e57835183826101000a81548160ff0219169083151502179055509260200192600101602081600001049283019260010302620001df565b80156200024d5782816101000a81549060ff02191690556001016020816000010492830192600103026200021e565b5050620001b19291505b5b80821115620001b1576000815560010162000258565b611743806200027e6000396000f3fe60806040526004361061015b5760003560e01c80638da5cb5b116100c8578063cd711c4d11610084578063f2fde38b11610061578063f2fde38b14610467578063f667259d14610487578063fa151800146104a7578063fd14d598146104c757005b8063cd711c4d14610411578063d771d0ac14610431578063e893985a1461044757005b80638da5cb5b1461033957806396ba5363146103715780639f81806b14610391578063aac85139146103b1578063be98f862146103d1578063bec1dcdb146103f157005b80636497462911610117578063649746291461025a57806369ed1e0a146102a257806370a0966b146102c257806375b4d78c146102e257806376947ef8146102f75780638929cbc51461032457005b80631072d00b1461016457806326651133146101995780632e9f411e146101d45780633624850e146101f457806350f20d0e1461020a57806363a846f81461022a57005b3661016257005b005b34801561017057600080fd5b5061018461017f366004611531565b6104dc565b60405190151581526020015b60405180910390f35b3480156101a557600080fd5b506101c66101b4366004611563565b60096020526000908152604090205481565b604051908152602001610190565b3480156101e057600080fd5b506101846101ef366004611580565b610685565b34801561020057600080fd5b506101c660045481565b34801561021657600080fd5b506101c6610225366004611563565b610abc565b34801561023657600080fd5b50610184610245366004611563565b60016020526000908152604090205460ff1681565b34801561026657600080fd5b5061027a6102753660046115a2565b610d0d565b604080519586526020860194909452928401919091526060830152608082015260a001610190565b3480156102ae57600080fd5b506101626102bd366004611563565b610d5b565b3480156102ce57600080fd5b506101626102dd366004611563565b610de9565b3480156102ee57600080fd5b506101c6610e71565b34801561030357600080fd5b506101c6610312366004611563565b60086020526000908152604090205481565b34801561033057600080fd5b506101c6610eef565b34801561034557600080fd5b50600054610359906001600160a01b031681565b6040516001600160a01b039091168152602001610190565b34801561037d57600080fd5b5061018461038c366004611563565b610ffe565b34801561039d57600080fd5b506101846103ac3660046115ce565b611044565b3480156103bd57600080fd5b506101846103cc366004611563565b61106e565b3480156103dd57600080fd5b506101c66103ec3660046115ce565b6110bb565b3480156103fd57600080fd5b5061027a61040c3660046115a2565b6110dc565b34801561041d57600080fd5b506101c661042c3660046115ce565b6110f8565b34801561043d57600080fd5b506101c660055481565b34801561045357600080fd5b506101c66104623660046115e7565b611108565b34801561047357600080fd5b50610162610482366004611563565b611351565b34801561049357600080fd5b506101846104a23660046115ce565b6113df565b3480156104b357600080fd5b506101846104c23660046115ce565b611413565b3480156104d357600080fd5b506101c661143d565b6000806001831515146104f7576104f233610abc565b610502565b610502336000611108565b9050600081116105595760405162461bcd60e51b815260206004820152601860248201527f6e6f20686179206e61646120706172612072657469726172000000000000000060448201526064015b60405180910390fd5b821561061f576005543360009081526009602052604090205461057c9190611636565b4211156105d757604051339082156108fc029083906000818181858888f193505050501580156105b0573d6000803e3d6000fd5b504260096000335b6001600160a01b0316815260208101919091526040016000205561067c565b60405162461bcd60e51b815260206004820152601760248201527f6e6f206573207469656d706f20646520726574697261720000000000000000006044820152606401610550565b6005543360009081526008602052604090205461063c9190611636565b4211156105d757604051339082156108fc029083906000818181858888f19350505050158015610670573d6000803e3d6000fd5b504260086000336105b8565b50600192915050565b60006004544210156106ce5760405162461bcd60e51b815260206004820152601260248201527161756e206e6f20686120696e69636961646f60701b6044820152606401610550565b6002546000906001600160a01b0316631f3d4cde336040516001600160e01b031960e084901b1681526001600160a01b03909116600482015260248101869052604401602060405180830381865afa15801561072e573d6000803e3d6000fd5b505050506040513d601f19601f82011682018060405250810190610752919061164e565b90506000811161079d5760405162461bcd60e51b81526020600482015260166024820152756572726f7220616c2075736172206c6120636172746160501b6044820152606401610550565b336000908152600860205260409020541580156107c7575033600090815260096020526040902054155b156107ed5733600090815260086020908152604080832042908190556009909252909120555b600c848154811061080057610800611667565b90600052602060002090602091828204019190069054906101000a900460ff16156109105760076000336001600160a01b03166001600160a01b031681526020019081526020016000206040518060a0016040528083815260200142815260200161089861086c610e71565b600b898154811061087f5761087f611667565b90600052602060002001546114a990919063ffffffff16565b8152602001858152602001600a87815481106108b6576108b6611667565b600091825260208083209091015490925283546001818101865594825290829020835160059092020190815590820151928101929092556040810151600283015560608101516003830155608001516004909101556109cb565b60066000336001600160a01b03166001600160a01b031681526020019081526020016000206040518060a0016040528083815260200142815260200161095761086c610e71565b8152602001858152602001600a878154811061097557610975611667565b600091825260208083209091015490925283546001818101865594825290829020835160059092020190815590820151928101929092556040810151600283015560608101516003830155608001516004909101555b6002546001600160a01b031663875ede14336040516001600160e01b031960e084901b1681526001600160a01b039091166004820152602481018690526044016020604051808303816000875af1158015610a2a573d6000803e3d6000fd5b505050506040513d601f19601f82011682018060405250810190610a4e919061167d565b151560011415610a62576001915050610ab6565b60405162461bcd60e51b815260206004820152602360248201527f66616c6c6f20616c206d617263617220636172746120636f6d6f207374616b6560448201526261646160e81b6064820152608401610550565b92915050565b6001600160a01b038116600090815260066020908152604080832080548251818502810185019093528083528493849084015b82821015610b5357838290600052602060002090600502016040518060a00160405290816000820154815260200160018201548152602001600282015481526020016003820154815260200160048201548152505081526020019060010190610aef565b50505050905060008060008060005b8551811015610d0157858181518110610b7d57610b7d611667565b602002602001015160800151868281518110610b9b57610b9b611667565b602002602001015160200151610bb19190611636565b9350858181518110610bc557610bc5611667565b602002602001015160200151600860008a6001600160a01b03166001600160a01b031681526020019081526020016000205411610c1f57858181518110610c0e57610c0e611667565b602002602001015160200151610c39565b6001600160a01b0388166000908152600860205260409020545b9250834211610c485742610c4a565b835b9150858181518110610c5e57610c5e611667565b6020026020010151608001518383610c76919061169a565b610ccf6103e8610cc98a8681518110610c9157610c91611667565b6020026020010151604001518b8781518110610caf57610caf611667565b6020026020010151600001516114cc90919063ffffffff16565b906114fe565b610cd991906116b1565b610ce391906116d0565b610ced9086611636565b945080610cf9816116f2565b915050610b62565b50929695505050505050565b60066020528160005260406000208181548110610d2957600080fd5b600091825260209091206005909102018054600182015460028301546003840154600490940154929550909350919085565b6000546001600160a01b0316336001600160a01b031614610d7b57600080fd5b6001600160a01b038116610d8e57600080fd5b6040516001600160a01b038216907f71614071b88dee5e0b2ae578a9dd7b2ebbe9ae832ba419dc0242cd065a290b6c90600090a26001600160a01b03166000908152600160208190526040909120805460ff19169091179055565b6000546001600160a01b0316336001600160a01b031614610e0957600080fd5b6001600160a01b038116610e1c57600080fd5b6040516001600160a01b038216907fa3b62bc36326052d97ea62d63c3d60308ed4c3ea8ac079dd8499f1e9c4f80c0f90600090a26001600160a01b03166000908152600160205260409020805460ff19169055565b600080610e92600a610e8c4768056bc75e2d631000006114fe565b906114cc565b9050600060045442610ea4919061169a565b905062278d00811115610eb95750601e610ed1565b610ece6201518060045442610cc9919061169a565b90505b610edc8160326114cc565b9050610ee882826114a9565b9250505090565b600080546001600160a01b0316336001600160a01b031614610f1057600080fd5b6003546040516370a0823160e01b81523060048201526000916001600160a01b0316906370a0823190602401602060405180830381865afa158015610f59573d6000803e3d6000fd5b505050506040513d601f19601f82011682018060405250810190610f7d919061164e565b60035460005460405163a9059cbb60e01b81526001600160a01b03918216600482015260248101849052929350169063a9059cbb906044016020604051808303816000875af1158015610fd4573d6000803e3d6000fd5b505050506040513d601f19601f82011682018060405250810190610ff8919061167d565b50905090565b600080546001600160a01b0316336001600160a01b03161461101f57600080fd5b50600380546001600160a01b0383166001600160a01b03199091161790556001919050565b600080546001600160a01b0316336001600160a01b03161461106557600080fd5b50600555600190565b600080546001600160a01b0316336001600160a01b03161461108f57600080fd5b600280546001600160a01b0319166001600160a01b0384161790556110b382610d5b565b506001919050565b600b81815481106110cb57600080fd5b600091825260209091200154905081565b60076020528160005260406000208181548110610d2957600080fd5b600a81815481106110cb57600080fd5b6001600160a01b038216600090815260076020908152604080832080548251818502810185019093528083528493849084015b8282101561119f57838290600052602060002090600502016040518060a0016040529081600082015481526020016001820154815260200160028201548152602001600382015481526020016004820154815250508152602001906001019061113b565b50505050905060008060008060005b8551811015611344578581815181106111c9576111c9611667565b6020026020010151608001518682815181106111e7576111e7611667565b6020026020010151602001516111fd9190611636565b935085818151811061121157611211611667565b602002602001015160200151600960008b6001600160a01b03166001600160a01b03168152602001908152602001600020541161126b5785818151811061125a5761125a611667565b602002602001015160200151611285565b6001600160a01b0389166000908152600960205260409020545b92508342116112945742611296565b835b915083421180156112bf57506001600160a01b0389166000908152600960205260409020548410155b806112c75750875b15611332578581815181106112de576112de611667565b60200260200101516080015183836112f6919061169a565b6113116103e8610cc98a8681518110610c9157610c91611667565b61131b91906116b1565b61132591906116d0565b61132f9086611636565b94505b8061133c816116f2565b9150506111ae565b5092979650505050505050565b6000546001600160a01b0316336001600160a01b03161461137157600080fd5b6001600160a01b03811661138457600080fd5b600080546040516001600160a01b03808516939216917f8be0079c531659141344cd1fd0a4f28419497f9722a3daafe3b4186f6b6457e091a3600080546001600160a01b0319166001600160a01b0392909216919091179055565b600c81815481106113ef57600080fd5b9060005260206000209060209182820401919006915054906101000a900460ff1681565b600080546001600160a01b0316336001600160a01b03161461143457600080fd5b50600455600190565b600080546001600160a01b0316336001600160a01b03161461145e57600080fd5b4761146857600080fd5b600080546040516001600160a01b03909116914780156108fc02929091818181858888f193505050501580156114a2573d6000803e3d6000fd5b5047905090565b6000806114b68385611636565b9050838110156114c557600080fd5b9392505050565b6000826114db57506000610ab6565b60006114e783856116b1565b9050826114f485836116d0565b146114c557600080fd5b600080821161150c57600080fd5b600061151883856116d0565b949350505050565b801515811461152e57600080fd5b50565b60006020828403121561154357600080fd5b81356114c581611520565b6001600160a01b038116811461152e57600080fd5b60006020828403121561157557600080fd5b81356114c58161154e565b6000806040838503121561159357600080fd5b50508035926020909101359150565b600080604083850312156115b557600080fd5b82356115c08161154e565b946020939093013593505050565b6000602082840312156115e057600080fd5b5035919050565b600080604083850312156115fa57600080fd5b82356116058161154e565b9150602083013561161581611520565b809150509250929050565b634e487b7160e01b600052601160045260246000fd5b6000821982111561164957611649611620565b500190565b60006020828403121561166057600080fd5b5051919050565b634e487b7160e01b600052603260045260246000fd5b60006020828403121561168f57600080fd5b81516114c581611520565b6000828210156116ac576116ac611620565b500390565b60008160001904831182151516156116cb576116cb611620565b500290565b6000826116ed57634e487b7160e01b600052601260045260246000fd5b500490565b600060001982141561170657611706611620565b506001019056fea2646970667358221220589a176a95a477bd48138a304ecc5fafa91bbefd0aaeb3aad1b068651acf660b64736f6c634300080a0033",
    "sourcePath": "c:/Users/STC/Documents/GitHub/Solitare-Crypto/contracts/Staking 2.0/stakingV2.sol",
    "compiler": {
        "name": "solc",
        "version": "0.8.10+commit.fc410830"
    },
    "functionHashes": {
        "ChangeMarketContract(address)": "aac85139",
        "ChangeTimeWitdrwal(uint256)": "9f81806b",
        "ChangeTokenOTRO(address)": "96ba5363",
        "actualizarFecha(uint256)": "fa151800",
        "admin(address)": "63a846f8",
        "bloqueado(address,uint256)": "bec1dcdb",
        "bonus()": "75b4d78c",
        "flexible(address,uint256)": "64974629",
        "inicio()": "3624850e",
        "makeNewAdmin(address)": "69ed1e0a",
        "makeRemoveAdmin(address)": "70a0966b",
        "owner()": "8da5cb5b",
        "payAt(address)": "76947ef8",
        "payAtBlock(address)": "26651133",
        "planBloqueo(uint256)": "f667259d",
        "planRetorno(uint256)": "be98f862",
        "planTiempo(uint256)": "cd711c4d",
        "plazoRetiros()": "d771d0ac",
        "redimBNB()": "fd14d598",
        "redimOTRO()": "8929cbc5",
        "retirable(address)": "50f20d0e",
        "retirableBlock(address,bool)": "e893985a",
        "retiro(bool)": "1072d00b",
        "staking(uint256,uint256)": "2e9f411e",
        "transferOwnership(address)": "f2fde38b"
    },
    "gasEstimates": {
        "creation": {
            "codeDepositCost": "1191000",
            "executionCost": "infinite",
            "totalCost": "infinite"
        },
        "external": {
            "": "229",
            "ChangeMarketContract(address)": "54572",
            "ChangeTimeWitdrwal(uint256)": "24612",
            "ChangeTokenOTRO(address)": "26827",
            "actualizarFecha(uint256)": "24633",
            "admin(address)": "2648",
            "bloqueado(address,uint256)": "13421",
            "bonus()": "infinite",
            "flexible(address,uint256)": "13311",
            "inicio()": "2385",
            "makeNewAdmin(address)": "28021",
            "makeRemoveAdmin(address)": "28025",
            "owner()": "2360",
            "payAt(address)": "2624",
            "payAtBlock(address)": "2559",
            "planBloqueo(uint256)": "6291",
            "planRetorno(uint256)": "4686",
            "planTiempo(uint256)": "4620",
            "plazoRetiros()": "2362",
            "redimBNB()": "infinite",
            "redimOTRO()": "infinite",
            "retirable(address)": "infinite",
            "retirableBlock(address,bool)": "infinite",
            "retiro(bool)": "infinite",
            "staking(uint256,uint256)": "infinite",
            "transferOwnership(address)": "30456"
        }
    }
}