{
    "contractName": "StakingV2",
    "abi": [
        {
            "inputs": [],
            "stateMutability": "nonpayable",
            "type": "constructor"
        },
        {
            "anonymous": false,
            "inputs": [
                {
                    "indexed": true,
                    "internalType": "address",
                    "name": "admin",
                    "type": "address"
                }
            ],
            "name": "AdminRemoved",
            "type": "event"
        },
        {
            "anonymous": false,
            "inputs": [
                {
                    "indexed": true,
                    "internalType": "address",
                    "name": "admin",
                    "type": "address"
                }
            ],
            "name": "NewAdmin",
            "type": "event"
        },
        {
            "anonymous": false,
            "inputs": [
                {
                    "indexed": true,
                    "internalType": "address",
                    "name": "previousOwner",
                    "type": "address"
                },
                {
                    "indexed": true,
                    "internalType": "address",
                    "name": "newOwner",
                    "type": "address"
                }
            ],
            "name": "OwnershipTransferred",
            "type": "event"
        },
        {
            "stateMutability": "payable",
            "type": "fallback"
        },
        {
            "inputs": [
                {
                    "internalType": "address",
                    "name": "_tokenTRC20",
                    "type": "address"
                }
            ],
            "name": "ChangeTokenOTRO",
            "outputs": [
                {
                    "internalType": "bool",
                    "name": "",
                    "type": "bool"
                }
            ],
            "stateMutability": "nonpayable",
            "type": "function"
        },
        {
            "inputs": [
                {
                    "internalType": "uint256",
                    "name": "_inicio",
                    "type": "uint256"
                }
            ],
            "name": "actualizarFecha",
            "outputs": [
                {
                    "internalType": "bool",
                    "name": "",
                    "type": "bool"
                }
            ],
            "stateMutability": "nonpayable",
            "type": "function"
        },
        {
            "inputs": [
                {
                    "internalType": "address",
                    "name": "",
                    "type": "address"
                }
            ],
            "name": "admin",
            "outputs": [
                {
                    "internalType": "bool",
                    "name": "",
                    "type": "bool"
                }
            ],
            "stateMutability": "view",
            "type": "function"
        },
        {
            "inputs": [],
            "name": "bonus",
            "outputs": [
                {
                    "internalType": "uint256",
                    "name": "",
                    "type": "uint256"
                }
            ],
            "stateMutability": "view",
            "type": "function"
        },
        {
            "inputs": [],
            "name": "inicio",
            "outputs": [
                {
                    "internalType": "uint256",
                    "name": "",
                    "type": "uint256"
                }
            ],
            "stateMutability": "view",
            "type": "function"
        },
        {
            "inputs": [
                {
                    "internalType": "address payable",
                    "name": "_newadmin",
                    "type": "address"
                }
            ],
            "name": "makeNewAdmin",
            "outputs": [],
            "stateMutability": "nonpayable",
            "type": "function"
        },
        {
            "inputs": [
                {
                    "internalType": "address payable",
                    "name": "_oldadmin",
                    "type": "address"
                }
            ],
            "name": "makeRemoveAdmin",
            "outputs": [],
            "stateMutability": "nonpayable",
            "type": "function"
        },
        {
            "inputs": [],
            "name": "owner",
            "outputs": [
                {
                    "internalType": "address payable",
                    "name": "",
                    "type": "address"
                }
            ],
            "stateMutability": "view",
            "type": "function"
        },
        {
            "inputs": [
                {
                    "internalType": "address",
                    "name": "",
                    "type": "address"
                }
            ],
            "name": "payAt",
            "outputs": [
                {
                    "internalType": "uint256",
                    "name": "",
                    "type": "uint256"
                }
            ],
            "stateMutability": "view",
            "type": "function"
        },
        {
            "inputs": [
                {
                    "internalType": "address",
                    "name": "",
                    "type": "address"
                }
            ],
            "name": "payAtBlock",
            "outputs": [
                {
                    "internalType": "uint256",
                    "name": "",
                    "type": "uint256"
                }
            ],
            "stateMutability": "view",
            "type": "function"
        },
        {
            "inputs": [
                {
                    "internalType": "uint256",
                    "name": "",
                    "type": "uint256"
                }
            ],
            "name": "planBloqueo",
            "outputs": [
                {
                    "internalType": "bool",
                    "name": "",
                    "type": "bool"
                }
            ],
            "stateMutability": "view",
            "type": "function"
        },
        {
            "inputs": [
                {
                    "internalType": "uint256",
                    "name": "",
                    "type": "uint256"
                }
            ],
            "name": "planRetorno",
            "outputs": [
                {
                    "internalType": "uint256",
                    "name": "",
                    "type": "uint256"
                }
            ],
            "stateMutability": "view",
            "type": "function"
        },
        {
            "inputs": [
                {
                    "internalType": "uint256",
                    "name": "",
                    "type": "uint256"
                }
            ],
            "name": "planTiempo",
            "outputs": [
                {
                    "internalType": "uint256",
                    "name": "",
                    "type": "uint256"
                }
            ],
            "stateMutability": "view",
            "type": "function"
        },
        {
            "inputs": [],
            "name": "redimBNB",
            "outputs": [
                {
                    "internalType": "uint256",
                    "name": "",
                    "type": "uint256"
                }
            ],
            "stateMutability": "nonpayable",
            "type": "function"
        },
        {
            "inputs": [],
            "name": "redimOTRO",
            "outputs": [
                {
                    "internalType": "uint256",
                    "name": "",
                    "type": "uint256"
                }
            ],
            "stateMutability": "nonpayable",
            "type": "function"
        },
        {
            "inputs": [
                {
                    "internalType": "address",
                    "name": "_user",
                    "type": "address"
                }
            ],
            "name": "retirable",
            "outputs": [
                {
                    "internalType": "uint256",
                    "name": "",
                    "type": "uint256"
                }
            ],
            "stateMutability": "view",
            "type": "function"
        },
        {
            "inputs": [
                {
                    "internalType": "address",
                    "name": "_user",
                    "type": "address"
                },
                {
                    "internalType": "bool",
                    "name": "_view",
                    "type": "bool"
                }
            ],
            "name": "retirableBlock",
            "outputs": [
                {
                    "internalType": "uint256",
                    "name": "",
                    "type": "uint256"
                }
            ],
            "stateMutability": "view",
            "type": "function"
        },
        {
            "inputs": [
                {
                    "internalType": "bool",
                    "name": "_bloqueado",
                    "type": "bool"
                }
            ],
            "name": "retiro",
            "outputs": [
                {
                    "internalType": "bool",
                    "name": "",
                    "type": "bool"
                }
            ],
            "stateMutability": "nonpayable",
            "type": "function"
        },
        {
            "inputs": [
                {
                    "internalType": "uint256",
                    "name": "_plan",
                    "type": "uint256"
                },
                {
                    "internalType": "uint256",
                    "name": "_carta",
                    "type": "uint256"
                }
            ],
            "name": "staking",
            "outputs": [
                {
                    "internalType": "bool",
                    "name": "",
                    "type": "bool"
                }
            ],
            "stateMutability": "nonpayable",
            "type": "function"
        },
        {
            "inputs": [
                {
                    "internalType": "address payable",
                    "name": "newOwner",
                    "type": "address"
                }
            ],
            "name": "transferOwnership",
            "outputs": [],
            "stateMutability": "nonpayable",
            "type": "function"
        },
        {
            "inputs": [
                {
                    "internalType": "address",
                    "name": "",
                    "type": "address"
                },
                {
                    "internalType": "uint256",
                    "name": "",
                    "type": "uint256"
                }
            ],
            "name": "usuarios",
            "outputs": [
                {
                    "internalType": "uint256",
                    "name": "deposito",
                    "type": "uint256"
                },
                {
                    "internalType": "uint256",
                    "name": "inicio",
                    "type": "uint256"
                },
                {
                    "internalType": "uint256",
                    "name": "factor",
                    "type": "uint256"
                },
                {
                    "internalType": "bool",
                    "name": "bloqueado",
                    "type": "bool"
                },
                {
                    "internalType": "uint256",
                    "name": "carta",
                    "type": "uint256"
                },
                {
                    "internalType": "uint256",
                    "name": "tiempo",
                    "type": "uint256"
                }
            ],
            "stateMutability": "view",
            "type": "function"
        },
        {
            "stateMutability": "payable",
            "type": "receive"
        }
    ],
    "bytecode": "6002805473d70e4ec3a81231b63bc2cd16d2bd6acc4614d5056001600160a01b0319918216811790925560038054909116909117905563618c32d0600455610140604052621275006080818152621baf8060a08190526224ea0060c081905260e09390935261010052610120919091526200007f9060089060066200014e565b506040805160c081018252610460815261055060208201526105789181019190915261078a6060820152610abe6080820152610b6860a0820152620000c9906009906006620001a5565b506040805160c081018252600080825260208201819052918101919091526001606082018190526080820181905260a08201526200010c90600a906006620001e9565b503480156200011a57600080fd5b50600080546001600160a01b0319163390811782558152600160208190526040909120805460ff19169091179055620002a2565b82805482825590600052602060002090810192821562000193579160200282015b8281111562000193578251829062ffffff169055916020019190600101906200016f565b50620001a19291506200028b565b5090565b82805482825590600052602060002090810192821562000193579160200282015b8281111562000193578251829061ffff16905591602001919060010190620001c6565b82805482825590600052602060002090601f01602090048101928215620001935791602002820160005b838211156200025257835183826101000a81548160ff021916908315150217905550926020019260010160208160000104928301926001030262000213565b8015620002815782816101000a81549060ff021916905560010160208160000104928301926001030262000252565b5050620001a19291505b5b80821115620001a157600081556001016200028c565b6113ee80620002b26000396000f3fe6080604052600436106101225760003560e01c806381b1474e116100a5578063cd711c4d1161006c578063cd711c4d1461037f578063e893985a1461039f578063f2fde38b146103bf578063f667259d146103df578063fa151800146103ff578063fd14d5981461041f57005b806381b1474e146102a35780638929cbc5146102f25780638da5cb5b1461030757806396ba53631461033f578063be98f8621461035f57005b806363a846f8116100e957806363a846f8146101f157806369ed1e0a1461022157806370a0966b1461024157806375b4d78c1461026157806376947ef81461027657005b80631072d00b1461012b57806326651133146101605780632e9f411e1461019b5780633624850e146101bb57806350f20d0e146101d157005b3661012957005b005b34801561013757600080fd5b5061014b6101463660046111c0565b610434565b60405190151581526020015b60405180910390f35b34801561016c57600080fd5b5061018d61017b3660046111f2565b60076020526000908152604090205481565b604051908152602001610157565b3480156101a757600080fd5b5061014b6101b636600461120f565b610549565b3480156101c757600080fd5b5061018d60045481565b3480156101dd57600080fd5b5061018d6101ec3660046111f2565b610883565b3480156101fd57600080fd5b5061014b61020c3660046111f2565b60016020526000908152604090205460ff1681565b34801561022d57600080fd5b5061012961023c3660046111f2565b610a8c565b34801561024d57600080fd5b5061012961025c3660046111f2565b610b1a565b34801561026d57600080fd5b5061018d610ba2565b34801561028257600080fd5b5061018d6102913660046111f2565b60066020526000908152604090205481565b3480156102af57600080fd5b506102c36102be366004611231565b610c14565b6040805196875260208701959095529385019290925215156060840152608083015260a082015260c001610157565b3480156102fe57600080fd5b5061018d610c6c565b34801561031357600080fd5b50600054610327906001600160a01b031681565b6040516001600160a01b039091168152602001610157565b34801561034b57600080fd5b5061014b61035a3660046111f2565b610d7b565b34801561036b57600080fd5b5061018d61037a36600461125d565b610dc1565b34801561038b57600080fd5b5061018d61039a36600461125d565b610de2565b3480156103ab57600080fd5b5061018d6103ba366004611276565b610df2565b3480156103cb57600080fd5b506101296103da3660046111f2565b610fe0565b3480156103eb57600080fd5b5061014b6103fa36600461125d565b61106e565b34801561040b57600080fd5b5061014b61041a36600461125d565b6110a2565b34801561042b57600080fd5b5061018d6110cc565b60008060018315151461044f5761044a33610883565b61045a565b61045a336000610df2565b9050600081116104b15760405162461bcd60e51b815260206004820152601860248201527f6e6f20686179206e61646120706172612072657469726172000000000000000060448201526064015b60405180910390fd5b604051339082156108fc029083906000818181858888f1935050505015156001151514156105125782156104f657336000908152600760205260409020429055610509565b3360009081526006602052604090204290555b50600192915050565b60405162461bcd60e51b815260206004820152600c60248201526b66616c6c6f2072657469726f60a01b60448201526064016104a8565b60006004544210156105925760405162461bcd60e51b815260206004820152601260248201527161756e206e6f20686120696e69636961646f60701b60448201526064016104a8565b6002546000906001600160a01b0316631f3d4cde336040516001600160e01b031960e084901b1681526001600160a01b03909116600482015260248101869052604401602060405180830381865afa1580156105f2573d6000803e3d6000fd5b505050506040513d601f19601f8201168201806040525081019061061691906112af565b9050600081116106615760405162461bcd60e51b81526020600482015260166024820152756572726f7220616c2075736172206c6120636172746160501b60448201526064016104a8565b33600090815260056020908152604091829020825160c08101845284815242928101929092529182919081016106c4610698610ba2565b60098a815481106106ab576106ab6112c8565b906000526020600020015461113890919063ffffffff16565b8152602001600a88815481106106dc576106dc6112c8565b90600052602060002090602091828204019190069054906101000a900460ff16151581526020018681526020016008888154811061071c5761071c6112c8565b60009182526020808320919091015490925283546001808201865594825290829020835160069092020190815590820151928101929092556040810151600280840191909155606082015160038401805460ff19169115159190911790556080820151600484015560a090910151600590920191909155546001600160a01b031663875ede14336040516001600160e01b031960e084901b1681526001600160a01b039091166004820152602481018790526044016020604051808303816000875af11580156107f0573d6000803e3d6000fd5b505050506040513d601f19601f8201168201806040525081019061081491906112de565b1515600114156108295760019250505061087d565b60405162461bcd60e51b815260206004820152602360248201527f66616c6c6f20616c206d617263617220636172746120636f6d6f207374616b6560448201526261646160e81b60648201526084016104a8565b92915050565b6001600160a01b038116600090815260056020526040812081808080805b8554811015610a80578581815481106108bc576108bc6112c8565b600091825260209091206003600690920201015460ff16610a6e578581815481106108e9576108e96112c8565b90600052602060002090600602016005015486828154811061090d5761090d6112c8565b9060005260206000209060060201600101546109299190611311565b935085818154811061093d5761093d6112c8565b60009182526020808320600692830201600101546001600160a01b038c168452919052604090912054116109945785818154811061097d5761097d6112c8565b9060005260206000209060060201600101546109ae565b6001600160a01b0388166000908152600660205260409020545b92508342116109bd57426109bf565b835b91508581815481106109d3576109d36112c8565b90600052602060002090600602016005015483836109f19190611329565b610a4d6103e8610a478a8681548110610a0c57610a0c6112c8565b9060005260206000209060060201600201548b8781548110610a3057610a306112c8565b60009182526020909120600690910201549061115b565b9061118d565b610a579190611340565b610a619190611375565b610a6b9086611311565b94505b80610a7881611389565b9150506108a1565b50929695505050505050565b6000546001600160a01b0316336001600160a01b031614610aac57600080fd5b6001600160a01b038116610abf57600080fd5b6040516001600160a01b038216907f71614071b88dee5e0b2ae578a9dd7b2ebbe9ae832ba419dc0242cd065a290b6c90600090a26001600160a01b03166000908152600160208190526040909120805460ff19169091179055565b6000546001600160a01b0316336001600160a01b031614610b3a57600080fd5b6001600160a01b038116610b4d57600080fd5b6040516001600160a01b038216907fa3b62bc36326052d97ea62d63c3d60308ed4c3ea8ac079dd8499f1e9c4f80c0f90600090a26001600160a01b03166000908152600160205260409020805460ff19169055565b6000610c0f610bf96005601e6201518060045442610bc09190611329565b610bca91906113a4565b11610bf0576201518060045442610be19190611329565b610beb91906113a4565b610bf3565b60005b9061115b565b610c09600a610bf36064476113a4565b90611138565b905090565b60056020528160005260406000208181548110610c3057600080fd5b60009182526020909120600690910201805460018201546002830154600384015460048501546005909501549396509194509260ff9091169186565b600080546001600160a01b0316336001600160a01b031614610c8d57600080fd5b6003546040516370a0823160e01b81523060048201526000916001600160a01b0316906370a0823190602401602060405180830381865afa158015610cd6573d6000803e3d6000fd5b505050506040513d601f19601f82011682018060405250810190610cfa91906112af565b60035460005460405163a9059cbb60e01b81526001600160a01b03918216600482015260248101849052929350169063a9059cbb906044016020604051808303816000875af1158015610d51573d6000803e3d6000fd5b505050506040513d601f19601f82011682018060405250810190610d7591906112de565b50905090565b600080546001600160a01b0316336001600160a01b031614610d9c57600080fd5b50600380546001600160a01b0383166001600160a01b03199091161790556001919050565b60098181548110610dd157600080fd5b600091825260209091200154905081565b60088181548110610dd157600080fd5b6001600160a01b038216600090815260056020526040812081808080805b8554811015610fd357858181548110610e2b57610e2b6112c8565b600091825260209091206003600690920201015460ff16151560011415610fc157858181548110610e5e57610e5e6112c8565b906000526020600020906006020160050154868281548110610e8257610e826112c8565b906000526020600020906006020160010154610e9e9190611311565b9350858181548110610eb257610eb26112c8565b906000526020600020906006020160010154600760008b6001600160a01b03166001600160a01b031681526020019081526020016000205411610f1857858181548110610f0157610f016112c8565b906000526020600020906006020160010154610f32565b6001600160a01b0389166000908152600760205260409020545b9250834211610f415742610f43565b835b915083421180610f505750875b15610fc157858181548110610f6757610f676112c8565b9060005260206000209060060201600501548383610f859190611329565b610fa06103e8610a478a8681548110610a0c57610a0c6112c8565b610faa9190611340565b610fb49190611375565b610fbe9086611311565b94505b80610fcb81611389565b915050610e10565b5092979650505050505050565b6000546001600160a01b0316336001600160a01b03161461100057600080fd5b6001600160a01b03811661101357600080fd5b600080546040516001600160a01b03808516939216917f8be0079c531659141344cd1fd0a4f28419497f9722a3daafe3b4186f6b6457e091a3600080546001600160a01b0319166001600160a01b0392909216919091179055565b600a818154811061107e57600080fd5b9060005260206000209060209182820401919006915054906101000a900460ff1681565b600080546001600160a01b0316336001600160a01b0316146110c357600080fd5b50600455600190565b600080546001600160a01b0316336001600160a01b0316146110ed57600080fd5b476110f757600080fd5b600080546040516001600160a01b03909116914780156108fc02929091818181858888f19350505050158015611131573d6000803e3d6000fd5b5047905090565b6000806111458385611311565b90508381101561115457600080fd5b9392505050565b60008261116a5750600061087d565b60006111768385611340565b9050826111838583611375565b1461115457600080fd5b600080821161119b57600080fd5b60006111a78385611375565b949350505050565b80151581146111bd57600080fd5b50565b6000602082840312156111d257600080fd5b8135611154816111af565b6001600160a01b03811681146111bd57600080fd5b60006020828403121561120457600080fd5b8135611154816111dd565b6000806040838503121561122257600080fd5b50508035926020909101359150565b6000806040838503121561124457600080fd5b823561124f816111dd565b946020939093013593505050565b60006020828403121561126f57600080fd5b5035919050565b6000806040838503121561128957600080fd5b8235611294816111dd565b915060208301356112a4816111af565b809150509250929050565b6000602082840312156112c157600080fd5b5051919050565b634e487b7160e01b600052603260045260246000fd5b6000602082840312156112f057600080fd5b8151611154816111af565b634e487b7160e01b600052601160045260246000fd5b60008219821115611324576113246112fb565b500190565b60008282101561133b5761133b6112fb565b500390565b600081600019048311821515161561135a5761135a6112fb565b500290565b634e487b7160e01b600052601260045260246000fd5b6000826113845761138461135f565b500490565b600060001982141561139d5761139d6112fb565b5060010190565b6000826113b3576113b361135f565b50069056fea2646970667358221220cc07d584e32cd4b8d94b3637072362b3af97a8466b4f13e190fb04914804943364736f6c634300080a0033",
    "sourcePath": "c:/Users/STC/Documents/GitHub/Solitare-Crypto/contracts/Staking 2.0/stakingV2.sol",
    "compiler": {
        "name": "solc",
        "version": "0.8.10+commit.fc410830"
    },
    "functionHashes": {
        "ChangeTokenOTRO(address)": "96ba5363",
        "actualizarFecha(uint256)": "fa151800",
        "admin(address)": "63a846f8",
        "bonus()": "75b4d78c",
        "inicio()": "3624850e",
        "makeNewAdmin(address)": "69ed1e0a",
        "makeRemoveAdmin(address)": "70a0966b",
        "owner()": "8da5cb5b",
        "payAt(address)": "76947ef8",
        "payAtBlock(address)": "26651133",
        "planBloqueo(uint256)": "f667259d",
        "planRetorno(uint256)": "be98f862",
        "planTiempo(uint256)": "cd711c4d",
        "redimBNB()": "fd14d598",
        "redimOTRO()": "8929cbc5",
        "retirable(address)": "50f20d0e",
        "retirableBlock(address,bool)": "e893985a",
        "retiro(bool)": "1072d00b",
        "staking(uint256,uint256)": "2e9f411e",
        "transferOwnership(address)": "f2fde38b",
        "usuarios(address,uint256)": "81b1474e"
    },
    "gasEstimates": {
        "creation": {
            "codeDepositCost": "1020400",
            "executionCost": "infinite",
            "totalCost": "infinite"
        },
        "external": {
            "": "207",
            "ChangeTokenOTRO(address)": "26871",
            "actualizarFecha(uint256)": "24655",
            "admin(address)": "2537",
            "bonus()": "infinite",
            "inicio()": "2385",
            "makeNewAdmin(address)": "28021",
            "makeRemoveAdmin(address)": "28025",
            "owner()": "2404",
            "payAt(address)": "2624",
            "payAtBlock(address)": "2559",
            "planBloqueo(uint256)": "6313",
            "planRetorno(uint256)": "4686",
            "planTiempo(uint256)": "4597",
            "redimBNB()": "infinite",
            "redimOTRO()": "infinite",
            "retirable(address)": "infinite",
            "retirableBlock(address,bool)": "infinite",
            "retiro(bool)": "infinite",
            "staking(uint256,uint256)": "infinite",
            "transferOwnership(address)": "30478",
            "usuarios(address,uint256)": "15453"
        }
    }
}