{
    "contractName": "StakingV2",
    "abi": [
        {
            "inputs": [],
            "stateMutability": "nonpayable",
            "type": "constructor"
        },
        {
            "anonymous": false,
            "inputs": [
                {
                    "indexed": true,
                    "internalType": "address",
                    "name": "admin",
                    "type": "address"
                }
            ],
            "name": "AdminRemoved",
            "type": "event"
        },
        {
            "anonymous": false,
            "inputs": [
                {
                    "indexed": true,
                    "internalType": "address",
                    "name": "admin",
                    "type": "address"
                }
            ],
            "name": "NewAdmin",
            "type": "event"
        },
        {
            "anonymous": false,
            "inputs": [
                {
                    "indexed": true,
                    "internalType": "address",
                    "name": "previousOwner",
                    "type": "address"
                },
                {
                    "indexed": true,
                    "internalType": "address",
                    "name": "newOwner",
                    "type": "address"
                }
            ],
            "name": "OwnershipTransferred",
            "type": "event"
        },
        {
            "stateMutability": "payable",
            "type": "fallback"
        },
        {
            "inputs": [
                {
                    "internalType": "address",
                    "name": "_market",
                    "type": "address"
                }
            ],
            "name": "ChangeMarketContract",
            "outputs": [
                {
                    "internalType": "bool",
                    "name": "",
                    "type": "bool"
                }
            ],
            "stateMutability": "nonpayable",
            "type": "function"
        },
        {
            "inputs": [
                {
                    "internalType": "address",
                    "name": "_tokenTRC20",
                    "type": "address"
                }
            ],
            "name": "ChangeTokenOTRO",
            "outputs": [
                {
                    "internalType": "bool",
                    "name": "",
                    "type": "bool"
                }
            ],
            "stateMutability": "nonpayable",
            "type": "function"
        },
        {
            "inputs": [
                {
                    "internalType": "uint256",
                    "name": "_inicio",
                    "type": "uint256"
                }
            ],
            "name": "actualizarFecha",
            "outputs": [
                {
                    "internalType": "bool",
                    "name": "",
                    "type": "bool"
                }
            ],
            "stateMutability": "nonpayable",
            "type": "function"
        },
        {
            "inputs": [
                {
                    "internalType": "address",
                    "name": "",
                    "type": "address"
                }
            ],
            "name": "admin",
            "outputs": [
                {
                    "internalType": "bool",
                    "name": "",
                    "type": "bool"
                }
            ],
            "stateMutability": "view",
            "type": "function"
        },
        {
            "inputs": [],
            "name": "bonus",
            "outputs": [
                {
                    "internalType": "uint256",
                    "name": "",
                    "type": "uint256"
                }
            ],
            "stateMutability": "view",
            "type": "function"
        },
        {
            "inputs": [],
            "name": "inicio",
            "outputs": [
                {
                    "internalType": "uint256",
                    "name": "",
                    "type": "uint256"
                }
            ],
            "stateMutability": "view",
            "type": "function"
        },
        {
            "inputs": [
                {
                    "internalType": "address payable",
                    "name": "_newadmin",
                    "type": "address"
                }
            ],
            "name": "makeNewAdmin",
            "outputs": [],
            "stateMutability": "nonpayable",
            "type": "function"
        },
        {
            "inputs": [
                {
                    "internalType": "address payable",
                    "name": "_oldadmin",
                    "type": "address"
                }
            ],
            "name": "makeRemoveAdmin",
            "outputs": [],
            "stateMutability": "nonpayable",
            "type": "function"
        },
        {
            "inputs": [],
            "name": "owner",
            "outputs": [
                {
                    "internalType": "address payable",
                    "name": "",
                    "type": "address"
                }
            ],
            "stateMutability": "view",
            "type": "function"
        },
        {
            "inputs": [
                {
                    "internalType": "address",
                    "name": "",
                    "type": "address"
                }
            ],
            "name": "payAt",
            "outputs": [
                {
                    "internalType": "uint256",
                    "name": "",
                    "type": "uint256"
                }
            ],
            "stateMutability": "view",
            "type": "function"
        },
        {
            "inputs": [
                {
                    "internalType": "address",
                    "name": "",
                    "type": "address"
                }
            ],
            "name": "payAtBlock",
            "outputs": [
                {
                    "internalType": "uint256",
                    "name": "",
                    "type": "uint256"
                }
            ],
            "stateMutability": "view",
            "type": "function"
        },
        {
            "inputs": [
                {
                    "internalType": "uint256",
                    "name": "",
                    "type": "uint256"
                }
            ],
            "name": "planBloqueo",
            "outputs": [
                {
                    "internalType": "bool",
                    "name": "",
                    "type": "bool"
                }
            ],
            "stateMutability": "view",
            "type": "function"
        },
        {
            "inputs": [
                {
                    "internalType": "uint256",
                    "name": "",
                    "type": "uint256"
                }
            ],
            "name": "planRetorno",
            "outputs": [
                {
                    "internalType": "uint256",
                    "name": "",
                    "type": "uint256"
                }
            ],
            "stateMutability": "view",
            "type": "function"
        },
        {
            "inputs": [
                {
                    "internalType": "uint256",
                    "name": "",
                    "type": "uint256"
                }
            ],
            "name": "planTiempo",
            "outputs": [
                {
                    "internalType": "uint256",
                    "name": "",
                    "type": "uint256"
                }
            ],
            "stateMutability": "view",
            "type": "function"
        },
        {
            "inputs": [],
            "name": "plazoRetiros",
            "outputs": [
                {
                    "internalType": "uint256",
                    "name": "",
                    "type": "uint256"
                }
            ],
            "stateMutability": "view",
            "type": "function"
        },
        {
            "inputs": [],
            "name": "redimBNB",
            "outputs": [
                {
                    "internalType": "uint256",
                    "name": "",
                    "type": "uint256"
                }
            ],
            "stateMutability": "nonpayable",
            "type": "function"
        },
        {
            "inputs": [],
            "name": "redimOTRO",
            "outputs": [
                {
                    "internalType": "uint256",
                    "name": "",
                    "type": "uint256"
                }
            ],
            "stateMutability": "nonpayable",
            "type": "function"
        },
        {
            "inputs": [
                {
                    "internalType": "address",
                    "name": "_user",
                    "type": "address"
                }
            ],
            "name": "retirable",
            "outputs": [
                {
                    "internalType": "uint256",
                    "name": "",
                    "type": "uint256"
                }
            ],
            "stateMutability": "view",
            "type": "function"
        },
        {
            "inputs": [
                {
                    "internalType": "address",
                    "name": "_user",
                    "type": "address"
                },
                {
                    "internalType": "bool",
                    "name": "_view",
                    "type": "bool"
                }
            ],
            "name": "retirableBlock",
            "outputs": [
                {
                    "internalType": "uint256",
                    "name": "",
                    "type": "uint256"
                }
            ],
            "stateMutability": "view",
            "type": "function"
        },
        {
            "inputs": [
                {
                    "internalType": "bool",
                    "name": "_bloqueado",
                    "type": "bool"
                }
            ],
            "name": "retiro",
            "outputs": [
                {
                    "internalType": "bool",
                    "name": "",
                    "type": "bool"
                }
            ],
            "stateMutability": "nonpayable",
            "type": "function"
        },
        {
            "inputs": [
                {
                    "internalType": "uint256",
                    "name": "_plan",
                    "type": "uint256"
                },
                {
                    "internalType": "uint256",
                    "name": "_carta",
                    "type": "uint256"
                }
            ],
            "name": "staking",
            "outputs": [
                {
                    "internalType": "bool",
                    "name": "",
                    "type": "bool"
                }
            ],
            "stateMutability": "nonpayable",
            "type": "function"
        },
        {
            "inputs": [
                {
                    "internalType": "address payable",
                    "name": "newOwner",
                    "type": "address"
                }
            ],
            "name": "transferOwnership",
            "outputs": [],
            "stateMutability": "nonpayable",
            "type": "function"
        },
        {
            "inputs": [
                {
                    "internalType": "address",
                    "name": "",
                    "type": "address"
                },
                {
                    "internalType": "uint256",
                    "name": "",
                    "type": "uint256"
                }
            ],
            "name": "usuarios",
            "outputs": [
                {
                    "internalType": "uint256",
                    "name": "deposito",
                    "type": "uint256"
                },
                {
                    "internalType": "uint256",
                    "name": "inicio",
                    "type": "uint256"
                },
                {
                    "internalType": "uint256",
                    "name": "factor",
                    "type": "uint256"
                },
                {
                    "internalType": "bool",
                    "name": "bloqueado",
                    "type": "bool"
                },
                {
                    "internalType": "uint256",
                    "name": "carta",
                    "type": "uint256"
                },
                {
                    "internalType": "uint256",
                    "name": "tiempo",
                    "type": "uint256"
                }
            ],
            "stateMutability": "view",
            "type": "function"
        },
        {
            "stateMutability": "payable",
            "type": "receive"
        }
    ],
    "bytecode": "600280546001600160a01b031990811673d9145cce52d386f254917e481eb44e9943f39138179091556003805490911673d70e4ec3a81231b63bc2cd16d2bd6acc4614d50517905563618c32d0600455600f600555610140604052610384608081815260a082905260c082905260e0829052610100829052610120919091526200008e9060099060066200015d565b506040805160c081018252610460815261055060208201526105789181019190915261078a6060820152610abe6080820152610b6860a0820152620000d890600a9060066200015d565b506040805160c081018252600080825260208201819052918101919091526001606082018190526080820181905260a08201526200011b90600b906006620001b3565b503480156200012957600080fd5b50600080546001600160a01b0319163390811782558152600160208190526040909120805460ff191690911790556200026c565b828054828255906000526020600020908101928215620001a1579160200282015b82811115620001a1578251829061ffff169055916020019190600101906200017e565b50620001af92915062000255565b5090565b82805482825590600052602060002090601f01602090048101928215620001a15791602002820160005b838211156200021c57835183826101000a81548160ff0219169083151502179055509260200192600101602081600001049283019260010302620001dd565b80156200024b5782816101000a81549060ff02191690556001016020816000010492830192600103026200021c565b5050620001af9291505b5b80821115620001af576000815560010162000256565b61162d806200027c6000396000f3fe6080604052600436106101385760003560e01c80638929cbc5116100b0578063d771d0ac1161006c578063d771d0ac146103d5578063e893985a146103eb578063f2fde38b1461040b578063f667259d1461042b578063fa1518001461044b578063fd14d5981461046b57005b80638929cbc5146103085780638da5cb5b1461031d57806396ba536314610355578063aac8513914610375578063be98f86214610395578063cd711c4d146103b557005b806363a846f8116100ff57806363a846f81461020757806369ed1e0a1461023757806370a0966b1461025757806375b4d78c1461027757806376947ef81461028c57806381b1474e146102b957005b80631072d00b1461014157806326651133146101765780632e9f411e146101b15780633624850e146101d157806350f20d0e146101e757005b3661013f57005b005b34801561014d57600080fd5b5061016161015c3660046113ff565b610480565b60405190151581526020015b60405180910390f35b34801561018257600080fd5b506101a3610191366004611431565b60086020526000908152604090205481565b60405190815260200161016d565b3480156101bd57600080fd5b506101616101cc36600461144e565b610629565b3480156101dd57600080fd5b506101a360045481565b3480156101f357600080fd5b506101a3610202366004611431565b610977565b34801561021357600080fd5b50610161610222366004611431565b60016020526000908152604090205460ff1681565b34801561024357600080fd5b5061013f610252366004611431565b610bf7565b34801561026357600080fd5b5061013f610272366004611431565b610c85565b34801561028357600080fd5b506101a3610d0d565b34801561029857600080fd5b506101a36102a7366004611431565b60076020526000908152604090205481565b3480156102c557600080fd5b506102d96102d4366004611470565b610d7f565b6040805196875260208701959095529385019290925215156060840152608083015260a082015260c00161016d565b34801561031457600080fd5b506101a3610dd7565b34801561032957600080fd5b5060005461033d906001600160a01b031681565b6040516001600160a01b03909116815260200161016d565b34801561036157600080fd5b50610161610370366004611431565b610ee6565b34801561038157600080fd5b50610161610390366004611431565b610f2c565b3480156103a157600080fd5b506101a36103b036600461149c565b610f72565b3480156103c157600080fd5b506101a36103d036600461149c565b610f93565b3480156103e157600080fd5b506101a360055481565b3480156103f757600080fd5b506101a36104063660046114b5565b610fa3565b34801561041757600080fd5b5061013f610426366004611431565b61121f565b34801561043757600080fd5b5061016161044636600461149c565b6112ad565b34801561045757600080fd5b5061016161046636600461149c565b6112e1565b34801561047757600080fd5b506101a361130b565b60008060018315151461049b5761049633610977565b6104a6565b6104a6336000610fa3565b9050600081116104fd5760405162461bcd60e51b815260206004820152601860248201527f6e6f20686179206e61646120706172612072657469726172000000000000000060448201526064015b60405180910390fd5b82156105c357600554336000908152600860205260409020546105209190611504565b42111561057b57604051339082156108fc029083906000818181858888f19350505050158015610554573d6000803e3d6000fd5b504260086000335b6001600160a01b03168152602081019190915260400160002055610620565b60405162461bcd60e51b815260206004820152601760248201527f6e6f206573207469656d706f206465207265746972617200000000000000000060448201526064016104f4565b600554336000908152600760205260409020546105e09190611504565b42111561057b57604051339082156108fc029083906000818181858888f19350505050158015610614573d6000803e3d6000fd5b5042600760003361055c565b50600192915050565b60006004544210156106725760405162461bcd60e51b815260206004820152601260248201527161756e206e6f20686120696e69636961646f60701b60448201526064016104f4565b6002546000906001600160a01b0316631f3d4cde336040516001600160e01b031960e084901b1681526001600160a01b03909116600482015260248101869052604401602060405180830381865afa1580156106d2573d6000803e3d6000fd5b505050506040513d601f19601f820116820180604052508101906106f6919061151c565b9050600081116107415760405162461bcd60e51b81526020600482015260166024820152756572726f7220616c2075736172206c6120636172746160501b60448201526064016104f4565b3360009081526006602090815260408083206007835281842042908190556008845293829020849055815160c0810183528581529283019390935282919081016107b861078c610d0d565b600a8a8154811061079f5761079f611535565b906000526020600020015461137790919063ffffffff16565b8152602001600b88815481106107d0576107d0611535565b90600052602060002090602091828204019190069054906101000a900460ff16151581526020018681526020016009888154811061081057610810611535565b60009182526020808320919091015490925283546001808201865594825290829020835160069092020190815590820151928101929092556040810151600280840191909155606082015160038401805460ff19169115159190911790556080820151600484015560a090910151600590920191909155546001600160a01b031663875ede14336040516001600160e01b031960e084901b1681526001600160a01b039091166004820152602481018790526044016020604051808303816000875af11580156108e4573d6000803e3d6000fd5b505050506040513d601f19601f82011682018060405250810190610908919061154b565b15156001141561091d57600192505050610971565b60405162461bcd60e51b815260206004820152602360248201527f66616c6c6f20616c206d617263617220636172746120636f6d6f207374616b6560448201526261646160e81b60648201526084016104f4565b92915050565b6001600160a01b038116600090815260066020908152604080832080548251818502810185019093528083528493849084015b82821015610a175760008481526020908190206040805160c081018252600686029092018054835260018082015484860152600282015492840192909252600381015460ff1615156060840152600481015460808401526005015460a083015290835290920191016109aa565b50505050905060008060008060005b8551811015610beb57858181518110610a4157610a41611535565b602090810291909101015160600151610bd957858181518110610a6657610a66611535565b602002602001015160a00151868281518110610a8457610a84611535565b602002602001015160200151610a9a9190611504565b9350858181518110610aae57610aae611535565b602002602001015160200151600760008a6001600160a01b03166001600160a01b031681526020019081526020016000205411610b0857858181518110610af757610af7611535565b602002602001015160200151610b22565b6001600160a01b0388166000908152600760205260409020545b9250834211610b315742610b33565b835b9150858181518110610b4757610b47611535565b602002602001015160a001518383610b5f9190611568565b610bb86103e8610bb28a8681518110610b7a57610b7a611535565b6020026020010151604001518b8781518110610b9857610b98611535565b60200260200101516000015161139a90919063ffffffff16565b906113cc565b610bc2919061157f565b610bcc91906115b4565b610bd69086611504565b94505b80610be3816115c8565b915050610a26565b50929695505050505050565b6000546001600160a01b0316336001600160a01b031614610c1757600080fd5b6001600160a01b038116610c2a57600080fd5b6040516001600160a01b038216907f71614071b88dee5e0b2ae578a9dd7b2ebbe9ae832ba419dc0242cd065a290b6c90600090a26001600160a01b03166000908152600160208190526040909120805460ff19169091179055565b6000546001600160a01b0316336001600160a01b031614610ca557600080fd5b6001600160a01b038116610cb857600080fd5b6040516001600160a01b038216907fa3b62bc36326052d97ea62d63c3d60308ed4c3ea8ac079dd8499f1e9c4f80c0f90600090a26001600160a01b03166000908152600160205260409020805460ff19169055565b6000610d7a610d646005601e6201518060045442610d2b9190611568565b610d3591906115e3565b11610d5b576201518060045442610d4c9190611568565b610d5691906115e3565b610d5e565b60005b9061139a565b610d74600a610d5e6064476115e3565b90611377565b905090565b60066020528160005260406000208181548110610d9b57600080fd5b60009182526020909120600690910201805460018201546002830154600384015460048501546005909501549396509194509260ff9091169186565b600080546001600160a01b0316336001600160a01b031614610df857600080fd5b6003546040516370a0823160e01b81523060048201526000916001600160a01b0316906370a0823190602401602060405180830381865afa158015610e41573d6000803e3d6000fd5b505050506040513d601f19601f82011682018060405250810190610e65919061151c565b60035460005460405163a9059cbb60e01b81526001600160a01b03918216600482015260248101849052929350169063a9059cbb906044016020604051808303816000875af1158015610ebc573d6000803e3d6000fd5b505050506040513d601f19601f82011682018060405250810190610ee0919061154b565b50905090565b600080546001600160a01b0316336001600160a01b031614610f0757600080fd5b50600380546001600160a01b0383166001600160a01b03199091161790556001919050565b600080546001600160a01b0316336001600160a01b031614610f4d57600080fd5b50600280546001600160a01b0383166001600160a01b03199091161790556001919050565b600a8181548110610f8257600080fd5b600091825260209091200154905081565b60098181548110610f8257600080fd5b6001600160a01b038216600090815260066020908152604080832080548251818502810185019093528083528493849084015b828210156110435760008481526020908190206040805160c081018252600686029092018054835260018082015484860152600282015492840192909252600381015460ff1615156060840152600481015460808401526005015460a08301529083529092019101610fd6565b50505050905060008060008060005b85518110156112125785818151811061106d5761106d611535565b60200260200101516060015115156001151514156112005785818151811061109757611097611535565b602002602001015160a001518682815181106110b5576110b5611535565b6020026020010151602001516110cb9190611504565b93508581815181106110df576110df611535565b602002602001015160200151600860008b6001600160a01b03166001600160a01b0316815260200190815260200160002054116111395785818151811061112857611128611535565b602002602001015160200151611153565b6001600160a01b0389166000908152600860205260409020545b92508342116111625742611164565b835b9150834211801561118d57506001600160a01b0389166000908152600860205260409020548410155b806111955750875b15611200578581815181106111ac576111ac611535565b602002602001015160a0015183836111c49190611568565b6111df6103e8610bb28a8681518110610b7a57610b7a611535565b6111e9919061157f565b6111f391906115b4565b6111fd9086611504565b94505b8061120a816115c8565b915050611052565b5092979650505050505050565b6000546001600160a01b0316336001600160a01b03161461123f57600080fd5b6001600160a01b03811661125257600080fd5b600080546040516001600160a01b03808516939216917f8be0079c531659141344cd1fd0a4f28419497f9722a3daafe3b4186f6b6457e091a3600080546001600160a01b0319166001600160a01b0392909216919091179055565b600b81815481106112bd57600080fd5b9060005260206000209060209182820401919006915054906101000a900460ff1681565b600080546001600160a01b0316336001600160a01b03161461130257600080fd5b50600455600190565b600080546001600160a01b0316336001600160a01b03161461132c57600080fd5b4761133657600080fd5b600080546040516001600160a01b03909116914780156108fc02929091818181858888f19350505050158015611370573d6000803e3d6000fd5b5047905090565b6000806113848385611504565b90508381101561139357600080fd5b9392505050565b6000826113a957506000610971565b60006113b5838561157f565b9050826113c285836115b4565b1461139357600080fd5b60008082116113da57600080fd5b60006113e683856115b4565b949350505050565b80151581146113fc57600080fd5b50565b60006020828403121561141157600080fd5b8135611393816113ee565b6001600160a01b03811681146113fc57600080fd5b60006020828403121561144357600080fd5b81356113938161141c565b6000806040838503121561146157600080fd5b50508035926020909101359150565b6000806040838503121561148357600080fd5b823561148e8161141c565b946020939093013593505050565b6000602082840312156114ae57600080fd5b5035919050565b600080604083850312156114c857600080fd5b82356114d38161141c565b915060208301356114e3816113ee565b809150509250929050565b634e487b7160e01b600052601160045260246000fd5b60008219821115611517576115176114ee565b500190565b60006020828403121561152e57600080fd5b5051919050565b634e487b7160e01b600052603260045260246000fd5b60006020828403121561155d57600080fd5b8151611393816113ee565b60008282101561157a5761157a6114ee565b500390565b6000816000190483118215151615611599576115996114ee565b500290565b634e487b7160e01b600052601260045260246000fd5b6000826115c3576115c361159e565b500490565b60006000198214156115dc576115dc6114ee565b5060010190565b6000826115f2576115f261159e565b50069056fea2646970667358221220c43b40cc2b7a621a763ad465841c69f2a815095f089d5c27c5636df1607819a964736f6c634300080a0033",
    "sourcePath": "c:/Users/STC/Documents/GitHub/Solitare-Crypto/contracts/Staking 2.0/stakingV2.sol",
    "compiler": {
        "name": "solc",
        "version": "0.8.10+commit.fc410830"
    },
    "functionHashes": {
        "ChangeMarketContract(address)": "aac85139",
        "ChangeTokenOTRO(address)": "96ba5363",
        "actualizarFecha(uint256)": "fa151800",
        "admin(address)": "63a846f8",
        "bonus()": "75b4d78c",
        "inicio()": "3624850e",
        "makeNewAdmin(address)": "69ed1e0a",
        "makeRemoveAdmin(address)": "70a0966b",
        "owner()": "8da5cb5b",
        "payAt(address)": "76947ef8",
        "payAtBlock(address)": "26651133",
        "planBloqueo(uint256)": "f667259d",
        "planRetorno(uint256)": "be98f862",
        "planTiempo(uint256)": "cd711c4d",
        "plazoRetiros()": "d771d0ac",
        "redimBNB()": "fd14d598",
        "redimOTRO()": "8929cbc5",
        "retirable(address)": "50f20d0e",
        "retirableBlock(address,bool)": "e893985a",
        "retiro(bool)": "1072d00b",
        "staking(uint256,uint256)": "2e9f411e",
        "transferOwnership(address)": "f2fde38b",
        "usuarios(address,uint256)": "81b1474e"
    },
    "gasEstimates": {
        "creation": {
            "codeDepositCost": "1135400",
            "executionCost": "infinite",
            "totalCost": "infinite"
        },
        "external": {
            "": "207",
            "ChangeMarketContract(address)": "26871",
            "ChangeTokenOTRO(address)": "26849",
            "actualizarFecha(uint256)": "24655",
            "admin(address)": "2537",
            "bonus()": "infinite",
            "inicio()": "2385",
            "makeNewAdmin(address)": "28021",
            "makeRemoveAdmin(address)": "28025",
            "owner()": "2382",
            "payAt(address)": "2624",
            "payAtBlock(address)": "2559",
            "planBloqueo(uint256)": "6313",
            "planRetorno(uint256)": "4686",
            "planTiempo(uint256)": "4708",
            "plazoRetiros()": "2317",
            "redimBNB()": "infinite",
            "redimOTRO()": "infinite",
            "retirable(address)": "infinite",
            "retirableBlock(address,bool)": "infinite",
            "retiro(bool)": "infinite",
            "staking(uint256,uint256)": "infinite",
            "transferOwnership(address)": "30478",
            "usuarios(address,uint256)": "15563"
        }
    }
}